:1000000016C3000035C3000033C3000031C3000035
:100010002FC300002DC300002BC3000029C3000024
:1000200027C3000025C3000023C300000C94DE1981
:100030001FC300001DC300001BC3000019C3000044
:1000400017C3000015C3000013C3000011C3000054
:100050000FC300000DC300000C94AB2409C30000C3
:1000600007C3000005C3000003C3000001C3000074
:10007000FFC20000FDC20000FBC20000F9C2000088
:10008000F7C20000F5C20000F3C20000F1C2000098
:10009000EFC20000EDC20000EBC200000C94771725
:1000A0000C94A9170C94DB170C940D18E1C20000F6
:1000B000DFC20000DDC20000DBC20000D9C20000C8
:1000C000D7C20000D5C20000D3C20000D1C20000D8
:1000D000CFC20000CDC20000CBC20000C9C20000E8
:1000E000C7C20000C5C20000C3C20000C1C20000F8
:1000F000BFC20000BDC20000BBC20000B9C2000008
:10010000B7C20000B5C20000B3C20000B1C2000017
:10011000AFC20000ADC20000ABC200000C94AF162D
:100120000C94E1160C9413170C944517A1C200000F
:100130009FC200009DC200009BC2000099C2000047
:1001400097C2000095C2000093C2000091C2000057
:100150008FC200008DC200008BC2000089C2000067
:1001600087C2000085C2000083C2000081C2000077
:100170007FC200007DC200007BC2000079C2000087
:1001800077C2000075C2000073C2000071C2000097
:100190006FC200006DC200006BC2000069C20000A7
:1001A00067C2000065C2000063C2000061C20000B7
:1001B0005FC200005DC200005BC2000059C20000C7
:1001C00057C2000055C2000053C2000051C20000D7
:1001D0004FC200004DC200004BC2000049C20000E7
:1001E00047C2000045C2000043C2000041C20000F7
:1001F0003FC200000C94991F0C944920000000009D
:10020000000000202020202000205050500000003E
:10021000005050F850F850502078A07028F020C0BE
:10022000C810204098186090A040A89068602040B6
:10023000000000001020404040201040201010100E
:100240002040005020F8205000002020F8202000FE
:1002500000000000602040000000F80000000000E6
:10026000000000606000081020408000708898A89E
:10027000C8887020602020202070708808102040DE
:10028000F8F810201008887010305090F81010F80E
:1002900080F008088870304080F0888870F8081076
:1002A00020404040708888708888707088887808FE
:1002B00010600060600060600000606000602040CE
:1002C000081020402010080000F800F800008040CE
:1002D0002010204080708808102000207088086856
:1002E000A8A87070888888F88888F08888F088883E
:1002F000F070888080808870E09088888890E0F82E
:100300008080F08080F8F88080E080808070888035
:1003100080988870888888F88888887020202020B5
:100320002070381010101090608890A0C0A09088A5
:10033000808080808080F888D8A88888888888888D
:10034000C8A898888870888888888870F08888F01D
:1003500080808070888888A89068F08888F0A09055
:1003600088788080700808F0F820202020202088DD
:1003700088888888887088888888885020888888B5
:10038000A8A8D8888888502050888888885020203D
:100390002020F80810204080F83820202020203825
:1003A00000804020100800E02020202020E0205085
:1003B0008800000000000000000000F8402010004D
:1003C000000000000070087888788080B0C88888B5
:1003D000F00000708080887008086898888878002D
:1003E000007088F88070304840E04040400000785D
:1003F000887808308080B0C88888882000602020F5
:1004000020701000301010906040404850605048FC
:10041000602020202020700000D0A8A8888800003C
:10042000B0C8888888000070888888700000F088CC
:10043000F08080000068987808080000B0C88080CC
:1004400080000070807008F04040E040404830007C
:100450000088888898680000888888502000008874
:1004600088A8A8500000885020508800008888780C
:1004700008700000F8102040F810202040202010C4
:1004800020202020202020402020102020402B341D
:1004900035206D696E002B3330206D696E002B3175
:1004A00035206D696E002030206D696E0054696DD5
:1004B000657A6F6E65206D696E757465733A002B91
:1004C00031323A2046696A69002B31313A20536F44
:1004D0006C6F6D6F6E2049736C616E64002B3130F0
:1004E0003A204145535400202B393A20546F6B7900
:1004F0006F00202B383A20486F6E67204B6F6E6775
:1005000000202B373A20546861696C616E640020CA
:100510002B363A2042616E676C6164657368002017
:100520002B353A2050616B697374616E00202B3457
:100530003A204D6F73636F7700202B333A204E6162
:1005400069726F626900202B323A20497374616EC0
:1005500062756C00202B313A204F736C6F2C204257
:1005600065726C696E005554433A20554B202847FC
:100570004D542900202D313A2050726169610020CC
:100580002D323A20536F7574682047656F72676922
:100590006100202D333A20477265656E6C616E6490
:1005A00000202D343A2045435400202D353A204573
:1005B00061737465726E00202D363A2043656E7447
:1005C00072616C00202D373A204D6F756E74616931
:1005D0006E00202D383A20506163696669630020FF
:1005E0002D393A20416C61736B61002D31303A2016
:1005F000486177616969002D31313A204B696E6736
:100600006D616E2052656566002D31323A2042617F
:100610006B65722049736C616E640054696D657A14
:100620006F6E6520686F75727320555443001124F6
:100630001FBECFEFDFE5DEBFCDBF00E00CBF11E294
:10064000A0E0B0E2EAEBF7E500E00BBF02C00790E4
:100650000D92A236B107D9F72AE2A4E6B1E201C0B1
:100660001D92AF35B207E1F70E944E230C94DB2BAD
:10067000C7CC8093A2066093A2068093A5066093E0
:10068000A6066093A10608953F936093A206809307
:10069000A1068093A2066093A1063F918091A806CF
:1006A000842308958093A6068093A1060895A1E06F
:1006B000B0E0EDE5F3E00C942B27E82F0FB70078BE
:1006C000198280916421813019F081E08093642146
:1006D000CE2EDD24F601EA55FE4DB080F601E6553A
:1006E000FE4DA080F894BB2009F4AAC08B2DDADF60
:1006F0008B2D6A2DBEDF1B2DEE24FF2460E0812CA4
:1007000030E2932EF5FE07C09091A7218091A6219B
:10071000982B19F535C08FB7802B8FBF0000F89448
:100720008B2D6A2D412FB0DF682F0894E11CF11C3E
:10073000809100208F5F80930020823030F08230E3
:1007400021F0833011F0109200206623D9F220911D
:10075000A7218091A621282B15C0412F80E040FFC2
:1007600009C0E82FF0E0EE0FFF1FE159FE4D808237
:10077000918201C090FD8F5F96954695992379F7F8
:1007800010E020E08FB7802B8FBF109265212223CD
:1007900009F43FC0112309F43CC03091AB21809192
:1007A000AA21382B562F90E080E070E040E023C073
:1007B00050FD17C019C030FF13C0981781F4E42F03
:1007C000F0E0EE0FFF1FE159FE4DE082F182852F30
:1007D0008E7F19F4892F71E008C0892F06C08F5FC2
:1007E0003695332341F701C020FD9F5F20FD4F5F09
:1007F0005695269511F05523D9F6409365216095BD
:100800001623713021F4112311F4EE24FF2460E04B
:1008100013C08091A7219091A621892B898390E014
:1008200006C0898180FD9F5F898186958983898142
:100830008823B9F790936521F894112309F062CFCA
:1008400086EA91E2C80ED91EF60180812BDF8FB7B0
:10085000082B0FBF2196ECE00C944427FC0180E2AA
:1008600090E0808391831282138280E394E08483FA
:10087000958308959091A021A92FB0E0FD01EE0F7E
:10088000FF1FEA0FFB1FEE0FFF1FE857FE4D4383CC
:10089000677085832370660F660F660F262B24838F
:1008A0009F5F9093A02108951F93CF93DF93282FEC
:1008B000C82FD0E0FE01EE0FFF1FEC0FFD1FEE0F63
:1008C000FF1FE857FE4D3581838190E0009068213D
:1008D00002C0959587950A94E2F7182F843008F4A2
:1008E00014E08091A021281718F020E030E02DC0FE
:1008F000832F1DD19C01412F50E016951695812F15
:1009000090E0841B950B8217930764F4FE01EE0FB1
:10091000FF1FEC0FFD1FEE0FFF1FE857FE4D8481F8
:100920008B7F848388279927841B950B82179307D5
:1009300064F0FE01EE0FFF1FEC0FFD1FEE0FFF1F17
:10094000E857FE4D848184608483C901DF91CF9193
:100950001F910895FF920F931F93CF93DF931092EF
:1009600080211092812120918421309185218093D2
:100970008421909385214091862150918721421BAB
:10098000530B480F591FFF2403C0F394485C504099
:10099000483C5105D0F740938621509387218091A0
:1009A000A121882341F08F1518F41092A12103C0D2
:1009B0008F198093A121AAD3E0918221F091832104
:1009C000309709F0199510E000E005C0812F6F2DD8
:1009D000C3D0082B1F5F6091A0211617B8F3002326
:1009E00049F08091802190918121916080938021B4
:1009F0009093812110927F21A8E8B1E230E041E09C
:100A000050E017C08C91887191F0E32FE695E69540
:100A1000E695F0E0E159FE4D832F8770EA0102C0B0
:100A2000CC0FDD1F8A95E2F720892C2B208B3F5FAE
:100A30001696361738F38091802190918121CDB799
:100A4000DEB7E5E00C944B271092A02184E0809360
:100A5000692194E190936C2185E080936D2110923F
:100A60006B2190936A2181E08093682183E08093D9
:100A70006E213BD3109282211092832108951F93FF
:100A800010E003C0812F27D01F5F8091A02118178D
:100A9000C8F31F910895EF92FF921F93CF93DF93B6
:100AA000EC017B0110E003C0812F15D01F5F809106
:100AB000A0211817C8F31092842110928521C093A9
:100AC0006621D0936721C7010BD3DF91CF911F918E
:100AD000FF90EF90089590E0E8E8F1E29C01220F8A
:100AE000331F280F391FD901AA0FBB1FAE0FBF1F1D
:100AF00015964C911597809180219091812182606B
:100B000080938021909381212F5F3F4F220F331FCD
:100B1000E20FF31F1082E2EAF1E2E40FF11D80E838
:100B2000808381E08C938FE011968C93089590E000
:100B3000FC013496AFE6B1E2EE0FFF1FEA0FFB1F98
:100B4000880F991FA80FB91F208131818D919C9129
:100B5000281B390BC9010895A0E0B0E0E2EBF5E0F5
:100B60000C942927782EF62E9FDE5C01072D10E0CD
:100B7000F801EE0FFF1FE00FF11FEE0FFF1FE85708
:100B8000FE4D54814381242F30E0852F837090E007
:100B9000019602C0359527958A95E2F7822F22307B
:100BA00008F482E0242F30E0B901681B7109F801D4
:100BB000EE0FFF1FE00FF11FEF01CC0FDD1FC85735
:100BC000DE4D8881843009F4F7C0853030F48130FF
:100BD00071F0823009F07DC26EC0803109F4A1C18C
:100BE000803209F442C2883009F073C2EEC14091EC
:100BF000802150918121CA0192608093802190933D
:100C000081218D816981A82FB0E06A3060F0AA0F40
:100C1000BB1FFD01E159FE4D80819181A958BE4D58
:100C20008D939C9318C0AA0FBB1FFD01E958FE4D80
:100C300020813181A159BE4D8D919C9182179307DE
:100C400018F42150304005C02817390750F42F5FA1
:100C50003F4F2083318348605260409380215093FE
:100C60008121862F8150F801EE0FFF1FE00FF11F49
:100C7000EF01CC0FDD1FC857DE4D89838823B1F407
:100C8000AD8182E088838091802190918121826072
:100C90008093802190938121EE0FFF1FE657FE4D38
:100CA0001082B0E0AE55BE4D80E88C9380916A21F1
:100CB0008093A1210CC252FF04C080E28883198274
:100CC000F7C1C501B7FE02C080E090E0821793072C
:100CD00080F0F801EE0FFF1FE00FF11FEE0FFF1F76
:100CE000DF01A857BE4D84E08C93E657FE4D10827D
:100CF000E5C1FF2009F4EDC18091A121882309F00D
:100D0000E8C1F801EE0FFF1FE00FF11FEE0FFF1F0C
:100D1000E857FE4D858190E0EC01CC0FDD1FC958EE
:100D2000DE4D28813981FC01EE0FFF1FE159FE4D98
:100D30000190F081E02D2E173F0788F4FC01EE555D
:100D4000FE4D90819F0D908380916D218058981762
:100D500008F4BFC180E880832F5F3F4F14C0DC01DF
:100D6000AE55BE4DE217F307D0F48C918F198C93DA
:100D700040E890916C21542F591B581708F4A9C1D1
:100D80004C93215030402883398380918021909169
:100D90008121886080938021909381219AC12C9138
:100DA000213810F021502C93FC01EE55FE4D80812E
:100DB00087FD8FC18F5F57C1C501B7FE02C080E0BC
:100DC00090E0F801EE0FFF1F8217930708F48FC021
:100DD00080916A218093A1219F01200F311F220F52
:100DE000331FD901A657BE4D8C918F5F8C93F901AB
:100DF000E857FE4D848190E08873907023E09695CB
:100E000087952A95E1F7682E882309F43EC0DD24F2
:100E1000CC247F0183E090E0E80EF91E4D012FC045
:100E2000D71461F18D2D90E0EC01CC0FDD1FC80FC0
:100E3000D91FCC0FDD1FC857DE4D8C8190E0887321
:100E4000907073E0969587957A95E1F76816B1F4FE
:100E50008D2D2ADD2B81821B9109F7012081A501AF
:100E6000421B5109481759072CF08881803111F035
:100E7000883021F4F4011082CC24C394D39480915F
:100E8000A021D81668F2CC2079F4809169218823BA
:100E900059F08091802190918121986080938021E8
:100EA0009093812141E001C040E09801220F331F5F
:100EB000200F311FF901EE0FFF1FE657FE4D908105
:100EC00080916921981708F405C180918021909143
:100ED000812183608093802190938121F901EE0F1D
:100EE000FF1FE857FE4D80E180831182F3C0E00FC1
:100EF000F11FEE0FFF1FDF01A857BE4D15962C9175
:100F0000159782E08C93809180219091812182605D
:100F10008093802190938121E657FE4D1082E22F2D
:100F20009EC0C501B7FE02C080E090E0F801EE0F60
:100F3000FF1F40918021509181218617970770F4FF
:100F4000E00FF11FEE0FFF1FE857FE4D88E0808392
:100F50005460409380215093812131C0416040937F
:100F6000802150938121E00FF11FEE0FFF1FE65704
:100F7000FE4D908180916921981710F49F5F9083B6
:100F800090916B21992371F0F801EE0FFF1FE00F94
:100F9000F11FEE0FFF1FE857FE4D8181891720F4E6
:100FA0008F0D818340E00CC0872D95DD80918021DD
:100FB000909181219260809380219093812141E0E2
:100FC00080916A218093A12185C080916A218093BC
:100FD000A121DF01AA0FBB1FA657BE4D8C9188230C
:100FE00089F1C501B7FE02C080E090E04091802108
:100FF000509181216817790790F4F801EE0FFF1FD7
:10100000E00FF11FEE0FFF1FE857FE4D80E18083D8
:101010004160409380215093812140E006C054609C
:10102000409380215093812141E0F801EE0FFF1F92
:10103000E00FF11FEE0FFF1FE657FE4D808181503C
:10104000808348C0ED8182E08883809180219091E7
:101050008121826080938021909381211C92F0E015
:10106000EE55FE4D80E8808334C099819F5F99835F
:101070008C8182FD17C0AD8182E0888380918021C0
:101080009091812182608093802190938121EE0F45
:10109000FF1FE657FE4D1082B0E0AE55BE4D80E812
:1010A0008C9317C080916E21981740F0872D13DD27
:1010B0008091802190918121906105C08091802153
:1010C000909181219460809380219093812141E0CF
:1010D00001C040E0842FCDB7DEB7EEE00C9442278C
:1010E000FC01009709F0199508951092A62110921D
:1010F000A7211092AA211092AB211092A821109240
:10110000A9211092AC211092AD2108958091A821BF
:101110009091A621892B41F0E0916621F091672101
:10112000309711F080E019958091A9219091A72125
:10113000892B41F0E0916621F0916721309711F001
:1011400081E019950895FC01608371834863DB0198
:1011500011964C93A081B18115962C930190F0814A
:10116000E02D81E0848308950F93CF93DF93FC01FA
:10117000293098F5093098F58789811132C081E0CE
:10118000878B108E660F6283222369F0A42FB52F00
:1011900040E050E08D91EF01C40FD51F8B834F5F6E
:1011A0005F4F4217B8F3238B048B158A168A838905
:1011B000882341F082818E7F0190F081E02D86832B
:1011C00081E012C08489882371F08281816001905E
:1011D000F081E02D868381E007C080E005C080E0DB
:1011E00003C080E001C081E0DF91CF910F910895AD
:1011F0000F93042F20E040E050E0B6DF0F910895F8
:10120000CF92DF92EF92FF920F931F93CF93DF93D2
:101210001F921F92CDB7DEB788E18A8388E0E0E0B5
:10122000F6E086838A81982F91509A838111FACFB4
:1012300088E18A8388E0E0E0F6E085838A81982F60
:1012400091509A838111FACF8BE2898380EA99E0E9
:10125000ECD5C12CD12C760100E012E12AE730E078
:1012600043E0BE016F5F7F4F80EA99E008D6E0E679
:10127000F6E081E0868398E0A0EAB6E016969C93BB
:101280008683E0EAF9E0818185FFFDCF80EA8093E3
:10129000A009E0EAF9E0818186FFFDCFE0EAF9E00C
:1012A00080E481838081E0EAF6E088E085838683BC
:1012B00081E0E0E6F6E08683E0EAF9E0818185FFFF
:1012C000FDCF86EA8093A009E0EAF9E0818186FFFC
:1012D000FDCFE0EAF9E080E481838081E0EAF6E096
:1012E00088E08583868381E0E0E6F6E08683E0EAB5
:1012F000F9E0818185FFFDCF88EC8093A009E0EAC9
:10130000F9E0818186FFFDCFE0EAF9E080E48183A6
:101310008081E0EAF6E088E08583868381E0E0E68C
:10132000F6E08683E0EAF9E0818185FFFDCF82EA7D
:101330008093A009E0EAF9E0818186FFFDCFE0EA31
:10134000F9E080E481838081E0EAF6E088E085834B
:10135000868381E0E0E6F6E08683E0EAF9E08181D9
:1013600085FFFDCF8FE28093A009E0EAF9E081815B
:1013700086FFFDCFE0EAF9E080E481838081E0EA46
:10138000F6E088E08583868381E0E0E6F6E0868308
:10139000E0EAF9E0818185FFFDCF88EF8093A00925
:1013A000E0EAF9E0818186FFFDCFE0EAF9E080E440
:1013B00081838081E0EAF6E088E08583868381E0AE
:1013C000E0E6F6E08683E0EAF9E0818185FFFDCF83
:1013D0001092A009E0EAF9E0818186FFFDCFE0EA02
:1013E000F9E080E481838081E0EAF6E088E08583AB
:1013F000868381E0E0E6F6E08683E0EAF9E0818139
:1014000085FFFDCF81E28093A009E0EAF9E08181C8
:1014100086FFFDCFE0EAF9E080E481838081E0EAA5
:10142000F6E088E08583868381E0E0E6F6E0868367
:10143000E0EAF9E0818185FFFDCF81E88093A00992
:10144000E0EAF9E0818186FFFDCFE0EAF9E080E49F
:1014500081838081E0EAF6E088E08583868381E00D
:10146000E0E6F6E08683E0EAF9E0818185FFFDCFE2
:1014700081E28093A009E0EAF9E0818186FFFDCF57
:10148000E0EAF9E080E481838081E0EAF6E088E048
:101490008583868381E0E0E6F6E08683E0EAF9E092
:1014A000818185FFFDCF8FEA8093A009E0EAF9E012
:1014B000818186FFFDCFE0EAF9E080E481838081CD
:1014C00088E0E0EAF6E085830F900F90DF91CF91FE
:1014D0001F910F91FF90EF90DF90CF9008950F93A1
:1014E0001F93CF93DF9300D01F92CDB7DEB78FEF5E
:1014F00080937000809371008093720080937300DA
:1015000080937400809375008093760064E081E49A
:1015100090E00E9426196CE170E082E00E9446197A
:101520008A836DE170E082E00E9446198983898197
:101530009A81019621F480E493E289839A838981D8
:101540009A818B839C83E0E6F0E082838C818383A5
:101550008FB7F894E0E5F0E09081926090838FBFC0
:10156000818181FFFDCF8FB7F89400E510E0D801AD
:1015700016969C911697997F16969C931697E0E67F
:10158000F0E090E895839BEB968316969C911697D6
:10159000946016969C939081916090838FBF61E0D8
:1015A00080E490E00E9426198FB7F894F8019081AA
:1015B0009E7F90838FBF2496CDBFDEBFDF91CF91FA
:1015C0001F910F9108959FB7F894E82FF0E0E0592C
:1015D000FF4F60958081682360839FBF08959FB708
:1015E000F894E82FF0E0E059FF4F8081682B60838A
:1015F0009FBF0895863011F468E101C060E0E0E526
:10160000F0E0818181FD24C08FB7F89490819260D1
:1016100090838FBF818181FFFDCF8FB7F894A0E5C4
:10162000B0E016969C911697997F16969C93169704
:10163000E0E6F0E090E895839BEB968316969C910C
:101640001697946016969C939081916090838FBFBB
:10165000636084E490E00E94261960E480E0B3CFE8
:10166000EF92FF920F931F93CF93DF93EC01F62E2F
:10167000042F122FA2D19F2D9F70906B88E0E0EA7B
:10168000F6E0868381E0E0E6F6E08683E0EAF9E0D2
:10169000818185FFFDCF9093A009E0EAF9E0818187
:1016A00086FFFDCFE0EAF9E080E481838081E0EA13
:1016B000F6E088E08583902F9F7792959F709061E8
:1016C000868381E0E0E6F6E08683E0EAF9E0818166
:1016D00085FFFDCF9093A009E0EAF9E0818186FFC4
:1016E000FDCFE0EAF9E080E481838081E0EAF6E082
:1016F00088E085830F70868381E0E0E6F6E08683EC
:10170000E0EAF9E0818185FFFDCF0093A009E0EADE
:10171000F9E0818186FFFDCFE0EAF9E080E4818392
:10172000808188E0E0EAF6E0858380EA96E048E0A0
:101730000F2EF0E6EF2EF6E0FF2EF02D31E0E0EA7E
:10174000F9E060E45991DC0116964C93D7011596A7
:101750003C93218125FFFDCF5083218126FFFDCFC2
:1017600061832081D70116963C93DC0115964C933A
:10177000115041F7DF91CF911F910F91FF90EF90A2
:1017800008951F93CF93DF93182FD62FC42F29D1FD
:101790001F70106B88E0E0EAF6E0868381E0E0E607
:1017A000F6E08683E0EAF9E0918195FFFDCF1093A2
:1017B000A009E0EAF9E0818186FFFDCFE0EAF9E0E7
:1017C00080E481838081E0EAF6E088E085839D2FD4
:1017D0009F7792959F709061868381E0E0E6F6E0C6
:1017E0008683E0EAF9E0818185FFFDCF9093A0092F
:1017F000E0EAF9E0818186FFFDCFE0EAF9E080E4EC
:1018000081838081E0EAF6E088E08583DF7086836B
:1018100081E0E0E6F6E08683E0EAF9E0818185FF99
:10182000FDCFD093A009E0EAF9E0818186FFFDCFEA
:10183000E0EAF9E080E481838081E0EAF6E088E094
:101840008583868381E0E0E6F6E08583E0EAF9E0DF
:10185000818185FFFDCFC093A009E0EAF9E0818195
:1018600086FFFDCFE0EAF9E080E48183808181E0BA
:10187000E0E6F6E0868388E0E0EAF6E08583DF9143
:10188000CF911F910895CF93DF938EEA91E290D08C
:10189000B7DC88E0E0EAF6E0868381E0E0E6F6E0A7
:1018A0008683E0EAF9E0818185FFFDCF80E48093C3
:1018B000A009E0EAF9E0818186FFFDCFE0EAF9E0E6
:1018C00080E48183808188E0E0EAF6E08583D0E0EF
:1018D0000AC040E06C2F8D2F54DFCF5FC038C9F7AE
:1018E000DF5FD43011F0C0E0F4CFDF91CF910895E5
:1018F00087C00895EF92FF920F931F93CF93DF93CA
:10190000182F042F88237CF1603268F5F62EF694A8
:10191000F694F694CF2DD0E0D195C195D109CC0F96
:10192000DD1FCC0FDD1FCC0FDD1FC60FD11D21E049
:1019300030E0C90102C0880F991FCA95E2F7EC0197
:10194000612F8F2DD5DF013021F028F0023039F4DE
:1019500005C08C2B04C0C0958C2301C08C27482F58
:10196000612F8F2D0EDFDF91CF911F910F91FF908F
:10197000EF9008950F931F93CF93DF93D82F162FD7
:10198000042FC22FB5DFC13021F028F0C23039F466
:1019900005C0802B04C00095802301C08027482FFC
:1019A000612F8D2FEEDEDF91CF911F910F91089562
:1019B0008093AE239093AF230895A42FB0E030E836
:1019C000639FA00DB11D11244091AE235091AF2310
:1019D000A40FB51FE82FF92F81918D932150E1F7C6
:1019E000089520E8829FC0011124FC01E60FF11D3B
:1019F0008091AE239091AF23E80FF91F40830895A3
:101A000020E8829FC0011124FC01E60FF11D8091A6
:101A1000AE239091AF23E80FF91F80810895FF92C4
:101A20000F931F93CF93DF93C42FE42FF0E0E80FC1
:101A3000F11DE138F10514F0C0E8C81BCC2309F40E
:101A400050C0D62FD695D695D695ED2FF0E0F195CE
:101A5000E195F109EE0FFF1FEE0FFF1FEE0FFF1FC5
:101A6000AF01460F511DBA01E1E0F0E0AF0102C045
:101A7000440F551F6A95E2F7042F213021F090F0B2
:101A8000223079F520C0F82EFA941F2D1C0F612FFB
:101A90008D2F2EDF482F402B612F8D2F72DEC150EE
:101AA000A1F71FC0F82EFA94042F00951F2D1C0FCC
:101AB000612F8D2F1DDF482F4023612F8D2F61DE79
:101AC000C150A1F70EC0F82EFA941F2D1C0F612FE4
:101AD0008D2F0EDF482F4027612F8D2F52DEC150F2
:101AE000A1F7DF91CF911F910F91FF900895FF9281
:101AF0000F931F93CF93DF93D82F122F442309F412
:101B000042C0962F9150940F691303C0422FF2DE0A
:101B10003AC09F3108F09FE1C62FC695C695C6957D
:101B2000092F0695069506956770EFEFF0E04E2FAA
:101B300001C0440F6A95EAF79770A7E0B0E0A91BCF
:101B4000B10902C0F595E795AA95E2F7FE2EC013FC
:101B500006C04E23212F6D2F8C2F0CDF14C0212F98
:101B60006D2F8C2F07DFCF5FC01740F4212F4FEF71
:101B70006D2F8C2FFFDECF5FC017C0F3212F4F2DAD
:101B80006D2F802FF7DEDF91CF911F910F91FF9086
:101B90000895FF920F931F93CF93DF93D82FC62FF3
:101BA000142FF22E202F3BDF6C2F61506F0D202F52
:101BB000412F8D2F34DF202F4F2D6C2F8D2F97DF4E
:101BC0008D2F8150202F4F2D6C2F810F90DFDF91B3
:101BD000CF911F910F91FF900895FF920F931F9344
:101BE000CF93DF93D82F142FC22F222351F0F62E3C
:101BF000FA946F2D6C0F202F412F8D2F10DFC150C5
:101C0000C1F7DF91CF911F910F91FF900895BF927F
:101C1000CF92DF92EF92FF920F931F93CF93DF93B8
:101C2000EC01F62EE980E694E694E694D42ED69460
:101C3000D694D6948A81882331F0813009F03CC053
:101C4000E11020C039C0E11023C036C0C12CBD2C2A
:101C5000B00E909FF001919FF00D1124EC0DF11D3D
:101C60002B813C81E20FF31F44916C2D6F0D8B2D66
:101C700088DDC3949881C91660F30F5F1F4F0E155E
:101C800018F01AC000E010E098819111DFCFF5CF75
:101C900000E010E028816D2D600F209FC001219F82
:101CA000900D1124EB81FC814F2D8E0F9F1FD8DCEE
:101CB0000F5F1F4F0E1570F3DF91CF911F910F91A2
:101CC000FF90EF90DF90CF90BF900895AF92BF92BA
:101CD000CF92DF92EF92FF920F931F93CF93DF93F8
:101CE000C82FD62EA42E790100E0F901248143816A
:101CF0006A2D8D2D72DFF7019081911139C083819A
:101D0000A82FA695A695A695877009F0AF5FF70155
:101D1000C480AC9DD0011124EC2FF0E0E7018D814F
:101D2000E81BF109AE9F9001AF9F300DBE9F300DB3
:101D300011240980DA81C02DC20FD31FF701B380AF
:101D4000BB2099F000E010E0812F8D0D912F97704E
:101D500019F4FE010491219600231CF441E06A2D40
:101D6000C9DD000F1F5F1B11EFCFA394CA9431F799
:101D7000DF91CF911F910F91FF90EF90DF90CF9067
:101D8000BF90AF900895DF92EF92FF920F931F9351
:101D9000CF93DF93E42E8901C82FD92FF62ED62EAC
:101DA00089918A3031F4F80184818F5FE80EFD2C2F
:101DB00009C08D3039F098014E2D6F2D87DFF80165
:101DC0008381F80E88818111EBCFDF91CF911F9134
:101DD0000F91FF90EF90DF900895CF93DF93FC0178
:101DE000709620E030E0C62FD0E0DE01022E02C067
:101DF000B595A7950A94E2F7A0FD50832F5F3F4F5A
:101E000031962830310589F740FF0AC041FF03C0F1
:101E1000FC01658302C0FC016683FC01618302C092
:101E2000FC016283DF91CF910895803A28E0920708
:101E300019F460E183E0C7CB803B28E0920719F4F6
:101E400060E283E0C0CB803A29E0920719F460E1B8
:101E500084E0B9CB803B29E0920719F460E284E08A
:101E6000B2CB803A2AE0920719F460E185E0ABCB6F
:101E7000803A9B4019F460E186E0A5CB08950F936A
:101E80001F93CF93DF9300D000D0CDB7DEB7098387
:101E90001A832B833C834D831E82BE016F5F7F4F6D
:101EA0000E94481A2696CDBFDEBFDF91CF911F91C9
:101EB0000F9108951092B9231092BA231092BB2368
:101EC00081EA8093BC2380E28093BD231092BE23DD
:101ED0001092BF231092C0231092C12382E090E0A1
:101EE0008093C2239093C3231092C4231092C523DE
:101EF00080E092ECA1E0B0E08093C6239093C723EA
:101F0000A093C823B093C9231092CA231092CB2365
:101F100088E08093CC238091B9238F5F8093B9238D
:101F200081E008958091B92381508093B923089569
:101F30008091B82381508093B8238091B823109268
:101F4000B723089580E0089580E008950895FF92F2
:101F50000F931F93CF93DF938091B12381116CC0B6
:101F60000E947F1E882351F0C091D123D091D223AB
:101F70000E948E1EC817D90759F45EC0C091D123A4
:101F8000D091D2230E94871EC817D90709F454C0E4
:101F90008FB7F894C091B2239091B023911106C0ED
:101FA00091E0C11190E09093B22304C091E0C1117F
:101FB00090E0C92F91E09093B1238FBFD0E0FE0154
:101FC000EE0FFF1FE353FC4DFF24F39480819181BA
:101FD0008034914009F4F12CFF2091F00E947F1E83
:101FE000882339F00E948E1E8093D1239093D223B0
:101FF0000BC00E94871E8093D1239093D22304C0EC
:102000001092D1231092D223FE01EE0FFF1FE35353
:10201000FC4D2081318180E491E0C89FA001C99FDF
:10202000500DD89F500D112448525C4D04E210E130
:102030006F2D81E80E94E31EDF91CF911F910F91D8
:10204000FF90089580E083CF811115C02091B223C5
:1020500081E090E0222311F080E090E0FC01EE0F9F
:10206000FF1FE353FC4D108211821092B023109297
:10207000B12380E06CCF08958091272A8823ECF467
:102080008076803209F044C08091282A813209F09C
:1020900041C080912D2A90912E2A0797E9F586EC70
:1020A00093E280932F2A9093302A87E090E08093E8
:1020B000312A9093322A81E008958076803271F53A
:1020C0008091282A803219F0823251F51AC080910D
:1020D0002D2A90912E2A079729F586EA9FE0809372
:1020E000332A9093342A86EC93E280932F2A90939C
:1020F000302A87E090E08093312A9093322A81E061
:1021000008958091292A81700E94742181E00895A8
:1021100080E0089580E0089580E0089580E00895CB
:1021200080E0089580E008952091B4233091B52394
:10213000E091B623F0E0EE0FFF1FED52FC4D81E081
:10214000408151812417350708F080E008950F93EE
:102150001F93CF93DF934FB7F8945091B62380919C
:10216000B323811110C02091B4233091B523C52F22
:10217000D0E0FE01EE0FFF1FED52FC4D80819181FA
:102180002817390718F44FBF80E022C01092B423FB
:102190001092B52381E0511180E08093B62381E055
:1021A0008093B3234FBF80E0BFDF80E491E0C89FFE
:1021B000A001C99F500DD89F500D1124485A594D68
:1021C0000DEE10E120E431E061E082E00E94E31EC8
:1021D000DF91CF911F910F9108950F931F93942F2B
:1021E000811127C08091B623E1E08111E0E0611503
:1021F0007105A1F4F0E020E431E0E29FB001E39F3B
:10220000700DF29F700D1124AB01485A594D0DEE1F
:1022100010E161E0892F0E94E31E0BC0F0E0EE0F99
:10222000FF1FED52FC4D608371831092B32380E059
:102230008EDF1F910F9108951092B8231092B12351
:102240001092B0231092B2231092CD231092CE237D
:102250001092CF231092D0231092D1231092D22328
:1022600080E075DE1092B3231092B6231092D32330
:102270001092D4231092B4231092B52380E067DF2C
:10228000882361F08091B8238F5F8093B823809179
:10229000B823813029F48093B723089580E008950E
:1022A00081E0089580E040CFFF920F931F93CF937A
:1022B000DF93FF24F3948091CC23893009F0F12C33
:1022C00000E010E0C0E4D1E02091B4233091B523C8
:1022D0004091B62350E0FA01EE0FFF1FED52FC4D86
:1022E000608171812617370738F08091B7238111FB
:1022F000EBCF00E010E01BC04C9FF0014D9FF00DB4
:102300005C9FF00D1124E20FF31FE85AF94D808114
:10231000082B2F5F3F4F2093B4233093B52380E0E9
:1023200016DFFF2021F0102F0027F12CCDCF802FBA
:10233000912FDF91CF911F910F91FF90089580E031
:10234000B3CFE091B223F0E0EE0FFF1FE353FC4D5B
:10235000808191818034914019F58091B023811161
:1023600010C08FB7F8949091B123911109C091E0FA
:102370009093B0232091B223211190E09093B22347
:102380008FBFE091B223F0E0EE0FFF1FE353FC4D4F
:1023900081E0208131812034314019F480E00895BA
:1023A00081E00895FF920F931F93CF93DF93EB018A
:1023B000FF24F3948091CC23893009F0F12C00E4C0
:1023C00011E080E0BEDF811107C08091B723811149
:1023D000F8CF20E030E025C04FB7F8942091B22329
:1023E00030E0F901EE0FFF1FE353FC4D8081918136
:1023F000209FD001219FB00D309FB00D1124A80F58
:10240000B91FA852BC4DCC930196808391834FBFD6
:10241000FF2029F0CD2FDD0FDD0BF12CD2CF21E0F5
:1024200030E0822F932FDF91CF911F910F91FF907A
:102430000895BC0180E0B6CFE091DB28F091DC2864
:102440000190F081E02D228133812E0F3F1F822FDA
:10245000932F08951F93CF93DF93EC01162FECDF9A
:102460002881FE01E20FF11DE817F907A0F4218190
:102470002430A1F0211306C016C02181243089F038
:10248000211789F02081E20FF11DE817F907A8F361
:10249000E0E0F0E008C0E0E0F0E005C0E0E0F0E0FF
:1024A00002C0E0E0F0E08E2F9F2FDF91CF911F91CF
:1024B00008950F931F93CF93DF93182F062F8091CA
:1024C000DA28882369F1E091DB28F091DC28C081CB
:1024D000D1818C81181730F5C093D828D093D92892
:1024E000ABDF9C01C817D907F8F49981943061F4E7
:1024F0009A81911309C08B81801306C0C093D8289C
:10250000D093D92881E011C09881C90FD11DC2177D
:10251000D30758F3C093D828D093D92880E005C0BA
:1025200080E003C080E001C080E0DF91CF911F9187
:102530000F9108958091292A8F770C94811E1F9303
:10254000CF93DF93182FB5DF882349F1C091D828A6
:10255000D091D92865E0CE017DDFEC01009749F0EC
:102560004C815D816B818A810E949A1E8111F2CF1C
:1025700017C0A091DB28B091DC28812F90E0880F54
:10258000991F1296ED91FC911397E80FF91F019096
:10259000F081E02D0190F081E02D199501C080E0DF
:1025A000DF91CF911F9108950F931F93CF93DF93E6
:1025B000C82F60E07EDF882389F1A091DB28B091ED
:1025C000DC28EC2FF0E0EE0FFF1F12962D913C91CE
:1025D0001397E20FF31F00811181D8011696ED9138
:1025E000FC9117971995682F8C2F63DF8823C1F012
:1025F000C091D828D091D92865E0CE012BDFEC011D
:10260000009721F08A810E94901FF6CFD801129680
:10261000ED91FC911397199581E003C080E001C012
:1026200080E0DF91CF911F910F9108950C94EB1DE5
:102630000895CF938091DA288823C1F0E091DB28B8
:10264000F091DC280190F081E02D8481882371F0E5
:10265000C0E08C2FA9DFCF5FE091DB28F091DC2870
:102660000190F081E02D8481C81798F31092DA2848
:1026700081E090E08093DD289093DE28CF9108954B
:10268000CF938091DA28882341F1E091DB28F09103
:10269000DC28A081B18114968C918823F1F0C0E0F0
:1026A0008C2F90E0880F991F0280F381E02DE80FB6
:1026B000F91F0190F081E02D0084F185E02D309725
:1026C00009F01995CF5FE091DB28F091DC28A0811B
:1026D000B18114968C91C81718F3CF910895FF9289
:1026E0000F931F93CF93DF931092312A1092322AC7
:1026F0001092332A1092342A1092352A1092362AD8
:102700002091272A22230CF043C280912D2A9091F8
:102710002E2A009709F041C235C22F7109F0A3C0DB
:102720003091282A363089F0383009F490C03111C0
:102730009AC0029741F462E070E08DED98E20E9449
:10274000911E81E0E3C180E0E1C12091292A30910E
:102750002A2A832F99278230910581F083309105B1
:1027600079F1019709F06BC080912220909123208C
:10277000DC016C9170E00E94911E50C0E09122201B
:10278000F09123208189281708F05BC0C90199279F
:10279000880F991F880F991FE0912420F091252020
:1027A000E80FF91F80819181FC01628173810E9491
:1027B000911EE0912F2AF091302A82E081832EC071
:1027C00033272130310581F040F02230310509F402
:1027D000E9C123303105B9F5E9C164E070E084E86E
:1027E00090E20E94911E1AC088E890E229E0382FFA
:1027F000E4EAF0E2A82FB92F8D91808311823296FE
:102800008A2F831B8217C0F3220F622F6E5F6093A3
:10281000A22070E082EA90E20E94911E80912D2A0F
:1028200090912E2A2091312A3091322A82179307D3
:1028300060F48093312A9093322A81E067C180E06E
:1028400065C180E063C180E061C181E05FC1019743
:1028500041F461E070E08AED98E20E94911E81E00F
:1028600055C180E053C1213009F041C03091282A80
:102870003A30E9F5019799F58091DA28882389F1B2
:10288000C0912B2AD0912C2A8C2F0091DB281091FB
:10289000DC28D801ED91FC919481C91720F560E006
:1028A00008DE882311F1CE019927880F991FD801DE
:1028B0001296ED91FC911397E80FF91F0190F081AA
:1028C000E02D86819781FC0119958093DF2861E0D6
:1028D00070E08FED98E20E94911E81E017C180E0C8
:1028E00015C180E013C180E011C180E00FC122302A
:1028F00009F00EC12091282A211103C1029781F409
:1029000080912B2A0E94C31E8093E0281092E12818
:1029100062E070E080EE98E20E94911E81E0F6C0D5
:1029200080E0F4C02F7109F093C08091282A833091
:1029300009F4E9C020F4813009F08AC016C085305E
:1029400021F0893009F084C02BC080912D2A90910C
:102950002E2A892B41F48AE992E18093332A9093BD
:10296000342A81E0D3C080E0D1C080912D2A90919B
:102970002E2A892B89F48091292A90912A2A01975D
:1029800069F48091DD289091DE288D7F8093DD2889
:102990009093DE2881E0BAC080E0B8C080E0B6C085
:1029A00080912D2A90912E2A892B09F045C00E94F2
:1029B000841E882309F442C02091292A30912A2AB2
:1029C0003327E0912220F0912320818990E0821723
:1029D0009307B0F12EDE8091292A90912A2A8093C4
:1029E000DA28882379F199270197880F991F880F92
:1029F000991FE0912420F0912520E80FF91FE09322
:102A0000DB28F093DC280190F081E02D848188237D
:102A1000D9F0C0E060E08C2F92DD8823B9F0CF5F61
:102A2000E091DB28F091DC280190F081E02D848199
:102A3000C81780F381E06AC080E068C080E066C0AB
:102A400080E064C081E062C081E060C080E05EC080
:102A5000213001F58091282A8B30E1F480912D2AD4
:102A600090912E2A892B81F48091DA28882371F0A5
:102A7000C0912B2AD091292A8C2F96DD882341F0F2
:102A80006D2F8C2F5CDD42C080E040C080E03EC0F6
:102A900080E03CC02230E1F58091282A813019F095
:102AA000833099F515C080912D2A90912E2A892B7B
:102AB00059F48091292A90912A2A892B39F48091FE
:102AC0002B2A0E94CA1E22C080E020C080E01EC0C7
:102AD00080912D2A90912E2A892B79F48091292A90
:102AE00090912A2A892B59F4CBE2DAE288810E945C
:102AF000591F88810E94801F09C080E007C080E0C4
:102B000005C080E003C080E001C080E081113CC0CE
:102B10008091272A8F718130C9F58091DA28882326
:102B200049F100912B2A10912C2AF02EC091DB281C
:102B3000D091DC28E881F98184810817E8F460E00D
:102B4000802FB7DC8823D1F011279801220F331F83
:102B5000EA81FB81E20FF31FC081D181EE81FF8109
:102B60001995682F8F2DA5DC882351F0EC81FD810C
:102B7000199520C080E01EC080E01CC080E01AC013
:102B800080E018C080E016C081E014C080E012C070
:102B9000822F807609F0BCCFC5CE322F307609F077
:102BA000B7CFBBCD2FE082E990E221CE2CE087E3C6
:102BB0009AE21DCEDF91CF911F910F91FF90089562
:102BC00043E050E061E080EE97E007D943E050E059
:102BD00062E080EE97E001D943E050E060E180E6FA
:102BE00096E0FBD841E050E460E280E696E0F5D85C
:102BF00040E05BE160E280E896E0EFD840E05BE136
:102C000062E080EA96E0E9D840E05BE164E080EAD7
:102C100096E0E3D843E050E062E080E696E0DDD85D
:102C200043E050E068E080E696E0D7D843E050E02B
:102C300068E080EA96E0D1D843E050E061E080E6C9
:102C400096E0CBD843E050E068E080E096E0C5D85D
:102C500041E050E060E180E896E0BFD843E050E01A
:102C600062E080E696E0B9D843E050E068E080E6B4
:102C700096E0B3D840E050E064E080E696E0ADD85E
:102C800043E050E060E180EA96E0A7C82FB7F894EF
:102C9000811532E0930729F46093232A7093242A44
:102CA00007C08034924021F46093212A7093222A35
:102CB0002FBF0895811522E0920761F48091E228E8
:102CC000982F9F5F9093E228811113C062E081E00A
:102CD0000C94E30A8034924061F48091E328982FA9
:102CE0009F5F9093E328811104C062E082E00C941E
:102CF000E30A0895811522E0920759F48091E228B1
:102D000081508093E228811112C062E081E00C942E
:102D1000EF0A8034924059F48091E32881508093E7
:102D2000E328811104C062E082E00C94EF0A089568
:102D30001F93CF93DF93EC011FB7F894BBDF88811B
:102D4000816088831FBF8FB7F894ECE1FAE290812D
:102D50009F5F90838FBFDF91CF911F9108951F9246
:102D60000F920FB60F9211240BB60F922F933F9331
:102D70004F935F936F937F938F939F93AF93BF9383
:102D8000EF93FF93E0E0F2E044A155A1E091232A04
:102D9000F091242A61E080E092E01995FF91EF9193
:102DA000BF91AF919F918F917F916F915F914F9163
:102DB0003F912F910F900BBE0F900FBE0F901F9061
:102DC00018951F920F920FB60F9211240BB60F9207
:102DD0002F933F934F935F936F937F938F939F9323
:102DE000AF93BF93EF93FF93E0E0F2E044A555A5C6
:102DF000E091232AF091242A62E080E092E0199584
:102E0000FF91EF91BF91AF919F918F917F916F91C2
:102E10005F914F913F912F910F900BBE0F900FBE7E
:102E20000F901F9018951F920F920FB60F921124BA
:102E30000BB60F922F933F934F935F936F937F93B4
:102E40008F939F93AF93BF93EF93FF93E0E0F2E0F4
:102E500044A955A9E091232AF091242A64E080E056
:102E600092E01995FF91EF91BF91AF919F918F9152
:102E70007F916F915F914F913F912F910F900BBE7A
:102E80000F900FBE0F901F9018951F920F920FB6C4
:102E90000F9211240BB60F922F933F934F935F9392
:102EA0006F937F938F939F93AF93BF93EF93FF9312
:102EB000E0E0F2E044AD55ADE091232AF091242A00
:102EC00068E080E092E01995FF91EF91BF91AF919A
:102ED0009F918F917F916F915F914F913F912F9132
:102EE0000F900BBE0F900FBE0F901F9018951F9262
:102EF0000F920FB60F9211240BB60F922F933F93A0
:102F00004F935F936F937F938F939F93AF93BF93F1
:102F1000EF93FF93E0E4F2E044A155A1E091212A70
:102F2000F091222A61E080E492E01995FF91EF91FF
:102F3000BF91AF919F918F917F916F915F914F91D1
:102F40003F912F910F900BBE0F900FBE0F901F90CF
:102F500018951F920F920FB60F9211240BB60F9275
:102F60002F933F934F935F936F937F938F939F9391
:102F7000AF93BF93EF93FF93E0E4F2E044A555A530
:102F8000E091212AF091222A62E080E492E01995F2
:102F9000FF91EF91BF91AF919F918F917F916F9131
:102FA0005F914F913F912F910F900BBE0F900FBEED
:102FB0000F901F9018951F920F920FB60F92112429
:102FC0000BB60F922F933F934F935F936F937F9323
:102FD0008F939F93AF93BF93EF93FF93E0E4F2E05F
:102FE00044A955A9E091212AF091222A64E080E4C5
:102FF00092E01995FF91EF91BF91AF919F918F91C1
:103000007F916F915F914F913F912F910F900BBEE8
:103010000F900FBE0F901F9018951F920F920FB632
:103020000F9211240BB60F922F933F934F935F9300
:103030006F937F938F939F93AF93BF93EF93FF9380
:10304000E0E4F2E044AD55ADE091212AF091222A6E
:1030500068E080E492E01995FF91EF91BF91AF9104
:103060009F918F917F916F915F914F913F912F91A0
:103070000F900BBE0F900FBE0F901F901895DF9210
:10308000EF92FF920F931F93CF93DF93EC018B018D
:10309000C11582E0D80769F461E270E082E0F6D001
:1030A000D82E60E270E082E0F1D0FD2CE12CE82A1D
:1030B00011C0C034E2E0DE0759F565E270E082E05D
:1030C000E5D0F82E64E270E082E0E0D03F2D20E011
:1030D0007901E82ADFB6F894CE01ECDD288182E0A0
:1030E0008883EC86FD86F80185819681888F998F8B
:1030F00082818A8384818C8383818B83818189838C
:10310000822F81709081892B8883CE01F3DDDFBE11
:10311000DF91CF911F910F91FF90EF90DF90089575
:10312000FF920F931F93CF93DF93EC018B01FFB6B8
:10313000F894C0DD8881807CF8018083888D998D2A
:10314000858396838A8182838C8184838B81838328
:1031500089818183CE01CEDDFFBEDF91CF911F91AA
:103160000F91FF900895CF92DF92EF92FF920F930D
:103170001F93CF93DF937C01D62E8A01862F837015
:1031800029F4962F9695969582E002C0962F80E0BE
:1031900090FF8F5FE701A09698E0899FC00DD11D39
:1031A0001124CFB6F894C70185DDF80180818883AA
:1031B00082818A8381818983D0FE02C083818E834C
:1031C000C70198DDCFBEDF91CF911F910F91FF9086
:1031D000EF90DF90CF900895CF92DF92EF92FF9221
:1031E0000F931F93CF93DF937C01D62EEA01862F96
:1031F000837029F4962F9695969582E002C0962FBB
:1032000080E090FF8F5F8701005E1F4F98E0899FED
:10321000000D111D1124CFB6F894C7014BDDF80144
:103220008081888382818A8381818983D0FE02C0E4
:1032300086818B83C7015EDDCFBEDF91CF911F9169
:103240000F91FF90EF90DF90CF9008951BBEFC018F
:1032500028ED24BF608308951F93CF93DF93E0ECA4
:10326000F1E027852223ECF3C0ECD1E01A829983A8
:1032700088831A8586E08A8761E08BEC91E0E6DF3F
:103280001A878C81DF91CF911F9108954091CA01D7
:10329000E62FF72F8093CA0184914093CA010895C5
:1032A00010922004E0E2F4E0218120FDFDCFE0E275
:1032B000F4E0648375838683978381E08083089537
:1032C0000F931F9380E1E0E2F4E08183818184FD2C
:1032D000FDCFE0E2F4E00481158126813781602F83
:1032E000712F822F932F1F910F910895CF93DF930A
:1032F000D82FE0EFF0E0C18164E080E00E94E30AB3
:10330000CC237CF0C0FF04C0DD2369F082E010C054
:10331000C1FD0BC082E08093F000C2FF08C085E0D1
:1033200007C081E005C083E003C084E001C080E005
:10333000DF91CF910895CF93DF9364E080E00E9406
:10334000E30AC0EFD0E088818260888361E080EF8B
:1033500090E07CDF88818460888380E090E0019643
:10336000803223E09207D9F7E0EFF0E080818860B7
:103370008083818183FFFDCF10922004E0E2F4E09E
:10338000818180FDFDCFE0E2F4E08FEF9FEFDC0173
:1033900080879187A287B38714821582168217824D
:1033A000818180FDFDCFE0E2F4E0128281E0808344
:1033B000818180FDFDCFDF91CF9108951F920F9203
:1033C0000FB60F9211240BB60F922F933F934F938A
:1033D0005F936F937F938F939F93AF93BF93CF939D
:1033E000DF93EF93FF93E0E2F4E01282C091252A8D
:1033F000D091262A209719F063DFFE011995FF91DD
:10340000EF91DF91CF91BF91AF919F918F917F917C
:103410006F915F914F913F912F910F900BBE0F9045
:103420000FBE0F901F901895CF92DF92EF92FF92F0
:103430000F931F93CF93DF93EC01D901C801B69589
:10344000A79597958795481759076A077B0778F4DA
:103450006A017B01CC0CDD1CEE1CFF1CC901B8010C
:10346000A70196010E9403272150310902C020E0E4
:1034700030E0832F99278F7099278F832E83DF91D8
:10348000CF911F910F91FF90EF90DF90CF90089513
:103490000F931F93CF93DF93EC018B01C03A88E029
:1034A000D80729F460E183E00E94E30A12C0C03B20
:1034B000E8E0DE0729F460E283E00E94E30A12C03C
:1034C000C03AF9E0DF0729F460E184E00E94E30AF2
:1034D00012C0C03B89E0D80729F460E284E00E9472
:1034E000E30A11C0C03AEAE0DE0729F460E185E0B2
:1034F0000E94E30A08C0C03AFBE0DF0721F460E164
:1035000086E00E94E30A8D81806C8D83F8018481BE
:10351000813011F0833021F48D8182608D8303C06E
:103520008D818D7F8D83F80184818250823008F0F7
:1035300047C0C03AF8E0DF0741F443E050E462E0FE
:1035400080E496E00E94ED0E18C0C03B88E0D807EA
:1035500041F443E050E460E280E496E00E94ED0E26
:1035600018C0C03AE9E0DE0741F443E050E462E00D
:1035700080E696E00E94ED0E18C0C03BF9E0DF0740
:1035800041F443E050E460E280E696E00E94ED0EF4
:1035900017C0C03A8AE0D80741F443E050E462E043
:1035A00080E896E00E94ED0E0BC0C03AEBE0DE072B
:1035B00039F443E050E462E080EA96E00E94ED0EC8
:1035C000F801408151816281738100E016E32EE6AB
:1035D00031E0CE0129DF8C8188608C838C81806111
:1035E0008C83DF91CF911F910F910895811118C0A5
:1035F00090914829992389F09FB7F894ECE1FAE279
:103600002081215020839FBF08C09FB7F894ECE130
:10361000FAE220812F5F20839FBF8093482908957D
:1036200090914829992389F3F8CF282F2F7030E003
:10363000220F331F992787FD90958827990F881FA0
:103640009927280F391F220F331F220F331F220FF4
:10365000331F2051374D822F932F0895CF93DF933F
:103660006370613011F028F002C0D0EC03C0D0E8E4
:1036700001C0D0E440385105E1F050F4403251052A
:10368000A1F04034510599F04031510561F419C061
:10369000411592E0590789F04F3F93E0590779F0BF
:1036A0004115514041F0C0E00DC0C2E00BC0C3E085
:1036B00009C0C4E007C0C5E005C0C6E003C0C7E05C
:1036C00001C0C1E0B2DFFC01118286E08083CD2B16
:1036D000C183DF91CF9108950F93E8ECF4E08081EE
:1036E0008F7D808380818F7D8083E8EFF8E202E028
:1036F00005931092FA281092FB2800E2069300E44A
:103700000693E0EFF8E200E2069300E406931092DD
:10371000332A1092342A1092352A1092362A1092A7
:10372000312A1092322A1092092A0F9108950F938C
:1037300085E08093092AE9EFF8E204E00593E1EFE0
:10374000F8E204E005930F9108950F9383E08093CE
:10375000092A1092FA281092FB28E8EFF8E202E01A
:1037600006930F9108950F9384E08093092AE0EF68
:10377000F8E202E006930F910895E091332AF09168
:10378000342A309709F0199508950F93CF93DF935A
:103790008091092A833019F4F0DF9EDF5AC08091AE
:1037A0000C2A90910D2AC091312AD091322AC81B3F
:1037B000D90B41F520910A2A30910B2A820F931FD1
:1037C00080930A2A90930B2A20912D2A30912E2A39
:1037D0008217930721F080910E2A882311F0C3DF0E
:1037E00038C0E091352AF091362A309799F0199532
:1037F000882381F010920C2A10920D2AC091312A50
:10380000D091322AC034D10528F010920E2AC0E49B
:10381000D0E003C081E080930E2AC093FA28D093B1
:10382000FB2880910C2A90910D2A20912F2A30910B
:10383000302A280F391F2093FC283093FD28C80F09
:10384000D91FC0930C2AD0930D2AE8EFF8E202E0CA
:103850000693DF91CF910F910895FC0181818770CC
:103860008430A9F030F4823061F070F4813031F4AA
:103870001AC0863091F070F0873091F028E030E087
:1038800014C020E230E011C020E430E00EC020E897
:1038900030E00BC020E031E008C020E032E005C09D
:1038A0002FEF33E002C020E130E0822F932F089504
:1038B000282F2F7030E0220F331F992787FD909516
:1038C0008827990F881F9927280F391F22503109FF
:1038D000C901880F991F880F991F880F991F280FFA
:1038E000391F2C5D364D822F932F08950F938091B1
:1038F000CC0480FF64C081E08093CC04E0EFF8E268
:1039000000E80693E8EFF8E200E806938093CA0423
:10391000E0EFF8E200E106938091092A882329F07C
:103920008350823008F429DFD7DE8091F22890910D
:10393000F328089709F045C088E0E9ECF9E2A7E22E
:10394000BAE201900D928A95E1F7E8ECF4E080810B
:10395000806280838081806280830E946F138111E6
:1039600003C0E5DE81E02EC08091272A882374F40D
:1039700010920A2A10920B2A10920C2A10920D2AE9
:1039800082E08093092A01DF81E01CC080912D2A0A
:1039900090912E2A892B19F4D8DE81E013C0109261
:1039A0000A2A10920B2A10920C2A10920D2A81E0FA
:1039B0008093092AE0EFF8E202E0069303C080E07A
:1039C00001C081E00F910895BF92CF92DF92EF92F4
:1039D000FF920F931F93CF93DF93B82E69DFEC0113
:1039E0008B2D23DE7C0139DF6C01BB200CF05FC026
:1039F000D70116962D913C9117978D819E81280FA6
:103A0000391F2D833E838B819C812817390709F448
:103A10003CC0FC01E21BF30B9F012115F4E03F07C2
:103A200040F02FEF33E0C901B6010E94EF26281BBA
:103A3000390B888181FF0CC0C901B6010E94EF26B5
:103A400041E050E0892B11F040E050E0CA0102C093
:103A500080E090E0988180FB91F99883D7011696D9
:103A60001D921C92179712962D933C9313972981C0
:103A70003A818D819E81820F931F14968D939C9322
:103A80001597F70102E006939CC0888181FF8BC0E7
:103A90008D7F8883D70116961D921C9217971296D8
:103AA0001D921C921397F70102E006938AC0D7017A
:103AB00012960D911C911397888182FF19C029815C
:103AC0003A818D819E81280F391F8B819C81B6019F
:103AD0000E94EF26B0E4BB9EF0011124E75FF64D93
:103AE000482F592F6E2F7F2F822F932F0E94AC28A3
:103AF0002D813E81200F311F2D833E83EB81FC8180
:103B0000E217F30710F4ED83FE83D70116962D918B
:103B10003C9117972017310709F045C08D819E8190
:103B2000E817F90709F43FC0E81BF90BE115B4E009
:103B3000FB0748F0EFEFF3E0CF01B6010E94EF265C
:103B4000E81BF90B06C0CF01B6010E94EF26E81B67
:103B5000F90BD70112961D921C921397EC15FD05D7
:103B600078F4888184608883B0E4BB9EC00111240E
:103B7000875F964DF70184839583C682D7820FC0F5
:103B800029813A818D819E81820F931FD7011496DE
:103B90008D939C9315971696ED93FC931797F701C9
:103BA00002E006930EC0888180FF0BC08E7F888361
:103BB000EF81F885309729F06D817E814B2D80E073
:103BC0001995DF91CF911F910F91FF90EF90DF90AA
:103BD000CF90BF900895CF93DF93C0E6D0E01882D6
:103BE00080E30E94FA0AE0ECF4E080818064808344
:103BF00081E08883CFB7F8941092F1281092F928C9
:103C00001092012910920929109211291092192954
:103C1000E4E2F9E280818E7F8083EDE2F9E2808147
:103C20008E7F8083E6E3F9E280818E7F8083EFE3FD
:103C3000F9E280818E7F80836AE170E082E026DB9A
:103C40008F3F19F08093FA0403C08FE18093FA0448
:103C50006BE170E082E01ADB8F3F19F08093FB0488
:103C600003C08FE18093FB04E0ECF4E0808182608C
:103C7000808380818068808380818061808380EF01
:103C800098E2868397838081806280838FEF809320
:103C9000C504E8ECF4E080818160808310924829BB
:103CA0008FB7F894E0E2FAE290819F5F90838FBF34
:103CB000CFBFDF91CF910895CF93CFB7F89481E034
:103CC00095DCEAECF4E080E4808380E28083E1EC40
:103CD000F4E0808181608083A9ECB4E08C91826003
:103CE0008C93E8ECF4E08081806480838C91816027
:103CF0008C93808180688083CFBFCF91089580E0CE
:103D000008958093C30408958091C3040895209179
:103D1000202930912129822F932F089580E090E06F
:103D2000089580932F2A9093302A6093312A7093BC
:103D3000322A0895EF92FF920F931F93CF93DF9350
:103D4000F82EE62E8A0171DCEC018981807C89F4F1
:103D5000A8016E2D8F2D82DC8981807C803C21F42E
:103D600089818770873039F089818062898381E019
:103D700003C080E001C081E0DF91CF911F910F91DE
:103D8000FF90EF90089551DCFC01818182FB882730
:103D900080F90895CF93C82F48DCFC01818182FF10
:103DA0000FC081818B7F81838C2F82DDFC0180811C
:103DB00080FF06C08E7F80830780F085E02D1995F7
:103DC00081E0CF9108958F929F92AF92BF92CF9250
:103DD000DF92EF92FF920F931F93CF93DF93982E72
:103DE000862E5A01690164DD7C01892D1EDCEC01FF
:103DF0008981807C09F44DC08981807C803C19F0E8
:103E0000898182FD48C08FB7F894F701908190FFB7
:103E100003C08FBF80E040C0F70190819160908324
:103E20008FBFA182B282C382D48215821682078399
:103E30001087811008C021E030E0C114D10429F0BE
:103E400020E030E002C021E030E0F701808120FB7B
:103E500081F98B7F808399201CF41E821F8215C0FC
:103E60008981807C803C69F4CE01F7DCBC01C6010D
:103E7000B6D7892B31F0F70180818E7F808380E077
:103E80000BC01A821B821E821F82892D9DDD81E05C
:103E900003C080E001C080E0DF91CF911F910F91BE
:103EA000FF90EF90DF90CF90BF90AF909F908F905A
:103EB00008950F931F93CF93DF93182FB6DBEC0178
:103EC000812FF6DCDC01FE0102E005938C9180FF7E
:103ED00012C08E7F8C931796ED91FC9118973097B6
:103EE00051F011231CF46E817F8102C06A817B81B5
:103EF000412F81E01995DF91CF911F910F91089586
:103F00000F93CF93C82F91DBFC0181818460818363
:103F100001E006938C2FCDDF81E0CF910F910895C2
:103F2000CF93C82FC6DF8C2F80DBFC011182CF918D
:103F300008951F920F920FB60F9211240BB60F9295
:103F40000F932F933F934F935F936F937F938F9331
:103F50009F93AF93BF93EF93FF938091CB048823FC
:103F600034F480E88093CA040E9440137EC080919C
:103F7000CB0482FF20C084E08093CA048091F8289B
:103F800086FF73C08091CC0481FD6FC0AFDC8111CE
:103F90006CC08091092A813011F4D7DB66C084306F
:103FA00009F063C0E9EFF8E204E00593E1EFF8E21D
:103FB00004E005935AC08091CB0481FF51C082E098
:103FC0008093CA048091F02886FF4FC08091CC0472
:103FD00081FD4BC08BDC811148C08091092A823061
:103FE00011F4C1DB42C0833009F03FC0E9EFF8E2D1
:103FF00004E00593E1EFF8E204E0059336C080E1C8
:104000008093CA0481E055DF81E853DF0E941913D1
:104010001092C30440E450E060E080E01FDB40E425
:1040200050E060E080E81ADB89EC99E28093F428A4
:104030009093F52851DB19C08091CB0486FF06C010
:1040400080E48093CA0480E0D1DA0FC08091CB0471
:1040500085FF0BC080E28093CA0481E0C7DA05C007
:104060008091CB0484FDCBCFE7CFFF91EF91BF913F
:10407000AF919F918F917F916F915F914F913F9100
:104080002F910F910F900BBE0F900FBE0F901F90AE
:1040900018951F920F920FB60F9211240BB60F9224
:1040A0000F931F932F933F934F935F936F937F9340
:1040B0008F939F93AF93BF93CF93DF93EF93FF9330
:1040C0008091CC0481FD03C011DC8111AAC082E083
:1040D0008093CC048091C5048195880FE0EFF8E2CD
:1040E000E81BF10920813181205F38423695279500
:1040F0003695279536952795822F869520FF02C005
:10410000C0E801C0C0E0C80F8C2F8FDAFC018081AD
:1041100085FF87C000E20693C1117DC08091092A06
:10412000843019F42ADBD8DA7CC0C091F228D0910F
:10413000F3288091312A9091322A00910C2A109113
:104140000D2A98012C0F3D1F8217930718F4EC01DC
:10415000C01BD10B20912F2A3091302A200F311F04
:1041600089EC99E24C2F5D2F682F792F822F932FA6
:10417000F3D70C0F1D1F00930C2A10930D2AC03487
:10418000D10569F480910A2A90910B2A800F911F22
:1041900020912D2A30912E2A8217930788F00093C0
:1041A000312A1093322AE091352AF091362A30973D
:1041B00029F01995811102C0BADA33C0C6DA31C0CC
:1041C0008091312A9091322A08171907F9F4E09169
:1041D000352AF091362A309711F4A9DA22C01995C0
:1041E000811102C0A4DA1DC020910A2A30910B2A45
:1041F00080910C2A90910D2A820F931F80930A2A96
:1042000090930B2A10920C2A10920D2AE0EFF8E2FC
:1042100002E0069306C0C03811F4B7DA02C08C2F52
:10422000D3DBFF91EF91DF91CF91BF91AF919F9140
:104230008F917F916F915F914F913F912F911F913E
:104240000F910F900BBE0F900FBE0F901F901895FF
:10425000EF92FF920F931F93CF93DF93CDB7DEB70B
:104260006097CDBFDEBF80E1E4E2F1E2DE011196AE
:1042700001900D928A95E1F70F2EF8E3EF2EFAE206
:10428000FF2EF02D08E010E0B80181E00E944619F1
:10429000F7013197982F92959F70A1E0B0E0AC0F95
:1042A000BD1FA90FB11D9C9190838F70E1E0F0E0DC
:1042B000EC0FFD1FE80FF11D8081F70180830F5F78
:1042C0001F4FF2E0EF0EF11C0E301105E9F60E94CF
:1042D0001613F2DC6096CDBFDEBFDF91CF911F9148
:1042E0000F91FF90EF90089580930F2A0895809189
:1042F0000F2A811110920F2A0E9452118823F1F087
:104300000E949F119091102A913049F48B3521F42D
:1043100092E09093102A08951092102A08C09230CB
:1043200031F41092102A813459F0823459F08B31D3
:1043300051F481E08093102A80E0089580E0089590
:1043400086E2089588E20895CF93DF93EC01E0E8D8
:10435000F6E0808585FD0CC08091112A80FD08C0A3
:1043600081608093112A8DE0888381E089837CC0FD
:10437000E0E8F6E0808585FF0CC08091112A80FF7F
:1043800008C08E7F8093112A8DE0888382E0898324
:104390006BC0E0EAF6E0808581FD0CC08091112AB7
:1043A00081FD08C082608093112A86E2888381E0C3
:1043B00089835AC0E0EAF6E0808581FF0CC08091D5
:1043C000112A81FF08C08D7F8093112A86E288839D
:1043D00082E0898349C0E0EAF6E0808582FD0CC076
:1043E0008091112A82FD08C084608093112A88E29E
:1043F000888381E0898338C0E0EAF6E0808582FF27
:104400000CC08091112A82FF08C08B7F8093112AF3
:1044100088E2888382E0898327C00FD3882361F0F4
:104420008091112A83FD08C088608093112A88E05A
:10443000888381E0898318C000D381110CC08091EA
:10444000112A83FF08C0877F8093112A88E0888320
:1044500082E0898309C04BDF882321F0888382E0D2
:10446000898302C018821982DF91CF91089561304B
:1044700061F58091152A8F5F8093152A813039F478
:104480004093122A5093132A1092142A0CC0809140
:10449000122A9091132A480F591F56954795409319
:1044A000122A5093132A8091152A843031F41092E5
:1044B000152A81E08093142A08958FB7F894E0E4D8
:1044C000F2E09081946090838FBF0895CF93DF9343
:1044D000EC018881882349F02196992787FD9095E2
:1044E0000E94191289918111F8CFDF91CF9108951F
:1044F000CF93DF934AE050E0D0E06D2FC0E07C2FF7
:104500003BD68D2F9C2FDF91CF9108958091122A59
:104510009091132A08958FB7F8949091142A9923B3
:1045200029F01092142A8FBF81E008958FBF80E098
:1045300008950F938FB7F894E0E4F2E090819460CF
:1045400090838FBF1092492A86E08093472A80E2A9
:104550008093482A82EC90E280934A2A90934B2AD7
:1045600001E020E240E860E080E00E94C90D00E048
:104570002EE14EE761E081E00E94ED0D40E06AE04F
:1045800087E49AE20E94070EC6DF8823E9F3BEDFC4
:104590008093442A9093452ABC01882777FD809513
:1045A000982F2ED32CEE31E548EB5EEBB5D320E00F
:1045B00030E042EA51E492D2F5D2262F6093462AA7
:1045C00000E042E063E08CE00E94ED0D8091452A1E
:1045D0008F938091442A8F9388E491E29F938F93E5
:1045E0001F928FE08F938CE49AE29F938F93E3D591
:1045F00027E030E24DE066E18CE49AE20E94C30ECF
:104600008DB79EB708968DBF9EBF0F910895CF932B
:10461000DF93CDB7DEB72B97CDBFDEBFBE016F5F97
:104620007F4F80E492E00E949018AE01485F5F4F98
:1046300061E080E492E00E94EC188A819B819F787F
:1046400090639B8396E09D83817E8A831C82BE015A
:104650006F5F7F4F80E492E00E943F1867E372E251
:1046600080E492E00E94461681E0888788E089878E
:104670008A85807F81608A87AE01485F5F4F61E0F5
:1046800080E492E00E94B31880E492E00E949816C1
:104690002B96CDBFDEBFDF91CF910895CF93DF93EF
:1046A0001F921F92CDB7DEB70E946F0A0E94E015DD
:1046B00087E0E0EAF0E082830E94430C6FD1A7DF3D
:1046C00080E1E0E8F6E0858364E080E00E94E30AB0
:1046D000E0E2F4E0818180FDFDCF80E00E94761968
:1046E000882349F00E949B19FAD06F5F7F4F8F4F4C
:1046F0009F4F0E9450190E94601960387E468E417B
:104700009D4430F460E87EE68EE19DE40E945019FD
:104710009FDD7894B3D10DDF8FEFE0E8F6E0818381
:10472000E0E6F6E082838093B00080898064808B2D
:1047300028EE40E460E070E080E090E00E94A30892
:10474000E0EAF0E082818160828378940F2EFBE5BD
:104750008F2EF1E29F2EF02D6894EE24E6F8FF24D0
:10476000F1F80F2EF8E4AF2EF1E2BF2EF02D0F2E50
:10477000FFE07F2EF02D0F2EFCE4CF2EFAE2DF2E8D
:10478000F02D8FE794E8EEE181509040E040E1F7B2
:1047900000C000000E946019662E572E482E392E48
:1047A00084E591E293DE8CE290E00E94191261E0D0
:1047B00070E08AE090E07AD3082F192F3F924F9251
:1047C0005F926F929F928F929F938F932AD5802FA3
:1047D000912F7CDE802F912F20D48CE290E00E94DC
:1047E00019128FB7F894F7019081946090838FBF6E
:1047F000CDBFDEBF90DE8823E9F388DE79DE66DE9A
:104800008DE090E00E9419128AE090E00E94191257
:1048100040E06AE087E49AE20E94070E8FB7F894BE
:10482000F7019081946090838FBF75DE8823E9F350
:104830006DDE8093442A9093452ABC01882777FD3A
:104840008095982FDDD12CEE31E548EB5EEB64D2FC
:1048500020E030E042EA51E441D1A4D1262F609318
:10486000462A00E042E063E08CE00E94ED0D80917A
:10487000452A8F938091442A8F93BF92AF921F92C3
:104880007F92DF92CF9297D427E030E24DE066E14D
:10489000C6010E94C30E44E068E280E090E00E94FE
:1048A000F808CDBFDEBFE0E0F0E087898111FBCFE3
:1048B0008385048510E0080F111D808D90E018DEBF
:1048C00005DE8EE591E202DEC8019F7311DEFEDD9A
:1048D0008EE591E2FBDDCE01019636DD52CF0F93DE
:1048E0001F93CF93DF9360E170E081E00E9446194F
:1048F000D82F61E170E081E00E944619082F62E143
:1049000070E081E00E944619C82F63E170E081E009
:104910000E94461910E020E030E09801112700279E
:104920003D2B082B1C2BD901C80180589E46AE4157
:10493000BD448F379149A14EB24B20F000E81EE6EE
:104940002EE13DE4602F712F822F932FDF91CF91C5
:104950001F910F9108951F920F920FB60F9211247D
:104960002F933F938F939F9381E08093182A2091F8
:10497000162A3091172A8091DA209091DB20820F3D
:10498000931F8093162A9093172A9F918F913F919E
:104990002F910F900FBE0F901F90189580E4809379
:1049A000A6211092A7211092A8211092A92180E897
:1049B0008093AA211092AB211092AC211092AD21CC
:1049C00023E04AE060E080E00E943A0460E070E0AA
:1049D00087E593E00E944B0584E08093692184E1A0
:1049E00080936C2195E090936D2110926B218093C0
:1049F0006A2161E06093682183E080936E21E0E7A3
:104A0000F0E083818D7F8383E0E4F8E082E08083BF
:104A10004091DA205091DB2028EE33E0429FC00124
:104A2000439F900D529F900D112486A397A36783F7
:104A3000109282211092832108958091182A882350
:104A400051F01092182A8091162A9091172A0E94EC
:104A5000AA0490FDF8CF80917F2180958170089500
:104A6000823031F0833031F0813031F080E00895D0
:104A70008EE108958DE208958FE00895CF93DF933E
:104A800084E090E00E942C19982F9C509093192A52
:104A9000893120F48093F020D0E006C01092192ACA
:104AA0008CE08093F020D1E085E090E00E942C190A
:104AB000C82F843040F4D4DF80931A2AC093E120B9
:104AC000D13041F402C01092E12081E08093192A94
:104AD00010921A2ADF91CF9108955058BB27AA2728
:104AE0000ED0E0C0D1D030F0D6D020F031F49F3FCE
:104AF00011F41EF4C6C00EF4E095E7FBBCC0E92F2C
:104B0000E2D080F3BA17620773078407950718F09D
:104B100071F49EF5FAC00EF4E0950B2EBA2FA02D7D
:104B20000B01B90190010C01CA01A0011124FF275A
:104B3000591B99F0593F50F4503E68F11A16F04055
:104B4000A22F232F342F4427585FF3CF4695379554
:104B50002795A795F0405395C9F77EF41F16BA0B19
:104B6000620B730B840BBAF09150A1F0FF0FBB1FC7
:104B7000661F771F881FC2F70EC0BA0F621F731F10
:104B8000841F48F4879577956795B795F7959E3F6D
:104B900008F0B3CF9395880F08F09927EE0F9795FB
:104BA0008795089598D088F09F5790F0B92F99274E
:104BB000B751A0F0D1F0660F771F881F991F1AF028
:104BC000BA95C9F712C0B13081F09FD0B1E0089515
:104BD0009CC0672F782F8827B85F39F0B93FCCF396
:104BE000869577956795B395D9F73EF4909580951E
:104BF000709561957F4F8F4F9F4F0895E89409C03E
:104C000097FB3EF490958095709561957F4F8F4FFF
:104C10009F4F9923A9F0F92F96E9BB279395F69515
:104C2000879577956795B795F111F8CFFAF4BB0F93
:104C300011F460FF1BC06F5F7F4F8F4F9F4F16C0F7
:104C4000882311F096E911C0772321F09EE8872F81
:104C5000762F05C0662371F096E8862F70E060E03D
:104C60002AF09A95660F771F881FDAF7880F9695B6
:104C7000879597F9089597F99F6780E870E060E05D
:104C800008959FEF80EC089500240A9416161706E5
:104C900018060906089500240A941216130614062D
:104CA00005060895092E0394000C11F4882352F090
:104CB000BB0F40F4BF2B11F460FF04C06F5F7F4F48
:104CC0008F4F9F4F089557FD9058440F551F59F02F
:104CD0005F3F71F04795880F97FB991F61F09F3FE9
:104CE00079F087950895121613061406551FF2CF12
:104CF0004695F1DF08C0161617061806991FF1CF62
:104D000086957105610508940895E894BB27662788
:104D10007727CB0197F908950BD0C4CFB5DF28F0E2
:104D2000BADF18F0952309F0A6CFABCF1124EECF50
:104D3000CADFA0F3959FD1F3950F50E0551F629FF6
:104D4000F001729FBB27F00DB11D639FAA27F00DE4
:104D5000B11DAA1F649F6627B00DA11D661F829F0B
:104D60002227B00DA11D621F739FB00DA11D621FF0
:104D7000839FA00D611D221F749F3327A00D611D0D
:104D8000231F849F600D211D822F762F6A2F1124EF
:104D90009F5750408AF0E1F088234AF0EE0FFF1F42
:104DA000BB1F661F771F881F91505040A9F79E3F79
:104DB000510570F060CFAACF5F3FECF3983EDCF373
:104DC000869577956795B795F795E7959F5FC1F7B6
:104DD000FE2B880F911D9695879597F90895AA1B2C
:104DE000BB1B51E107C0AA1FBB1FA617B70710F0D6
:104DF000A61BB70B881F991F5A95A9F78095909508
:104E0000BC01CD010895A1E21A2EAA1BBB1BFD0116
:104E10000DC0AA1FBB1FEE1FFF1FA217B307E40799
:104E2000F50720F0A21BB30BE40BF50B661F771FF1
:104E3000881F991F1A9469F76095709580959095D1
:104E40009B01AC01BD01CF0108952F923F924F927B
:104E50005F926F927F928F929F92AF92BF92CF920A
:104E6000DF92EF92FF920F931F93CF93DF93CDB713
:104E7000DEB7CA1BDB0BCDBFDEBF19942A88398889
:104E800048885F846E847D848C849B84AA84B984E2
:104E9000C884DF80EE80FD800C811B81AA81B981EE
:104EA000CE0FD11DCDBFDEBFED0108950F931F932F
:104EB000CF93DF93689F8001699F100D789F100D3D
:104EC0001124C8010FD0C82FD92F209729F0A8018D
:104ED00060E070E08C2F49D1CE01DF91CF911F911E
:104EE0000F9108950F931F93CF93DF938230910515
:104EF00010F482E090E0E0915D2AF0915E2A20E0DB
:104F000030E0C0E0D0E023C040815181481759070C
:104F1000A8F04817590761F482819381209719F00E
:104F20008A839B832EC080935D2A90935E2A29C03A
:104F30002115310529F04217530710F0A90102C0CD
:104F4000BE01DF0102811381EF019A01F801309760
:104F5000D9F62115310509F1281B390B243031050B
:104F600090F412968D919C9113976115710521F023
:104F7000FB018283938304C080935D2A90935E2A11
:104F8000FD01329644C0FD01E20FF31F819391931E
:104F9000225031092D933C933AC020915B2A3091E5
:104FA0005C2A232B41F4209103203091042020938C
:104FB0005B2A30935C2A2091012030910220211538
:104FC000310541F42DB73EB74091052050910620A0
:104FD000241B350BE0915B2AF0915C2AE217F30762
:104FE000A0F42E1B3F0B2817390778F0AC014E5F59
:104FF0005F4F2417350748F04E0F5F1F40935B2A21
:1050000050935C2A8193919302C0E0E0F0E0CF01DD
:10501000DF91CF911F910F910895EF92FF920F931F
:105020001F93CF93DF93009709F48FC0DC01129791
:1050300012961D921C921397E0905D2AF0905E2AC2
:10504000E114F10489F42D913C911197280F391F37
:1050500080915B2A90915C2A8217930789F5A0932F
:105060005B2AB0935C2A71C0E70120E030E001C008
:10507000EA01CA17DB0738F44A815B819E014115BA
:105080005105B1F722C0BC0162507109FB01C28316
:10509000D38300811181AC01400F511F4C175D0774
:1050A00061F448815981400F511F4E5F5F4F40832B
:1050B00051834A815B81428353832115310529F451
:1050C000A0935D2AB0935E2A40C0F901A283B38306
:1050D000E90169917991C60FD71FAC17BD0779F423
:1050E000DC015E914E91460F571F4E5F5F4F40832C
:1050F000518312968D919C91139782839383A0E0A4
:10510000B0E002C0D7017C01F70182819381009752
:10511000C9F7C701029620813181820F931F209128
:105120005B2A30915C2A2817390779F4109729F403
:1051300010925D2A10925E2A04C012961D921C9253
:105140001397E0925B2AF0925C2ADF91CF911F9136
:105150000F91FF90EF900895FB01DC0102C00190D8
:105160000D9241505040D8F70895DC0101C06D9375
:1051700041505040E0F70895FB019F01E894423010
:10518000BCF04532ACF44A3029F497FB1EF49095FC
:1051900081959F4F642F772722DE805D8A330CF044
:1051A000895D8193CB010097A9F716F45DE25193D5
:1051B0001082C90166C20F931F93CF93DF93CDB7BF
:1051C000DEB72E97CDBFDEBF0E891F89888D998DE2
:1051D00026E02C8309831A8397FF02C080E090E8C1
:1051E00001978D839E83CE014C96AC016A8D7B8D99
:1051F000CE0101963ED04D815E8157FD0AC02F81C0
:105200003885421753070CF49A01F801E20FF31F97
:1052100010822E96CDBFDEBFDF91CF911F910F91EF
:1052200008950F931F93CF93DF93CDB7DEB72E97DB
:10523000CDBFDEBF0E891F8986E08C8309831A8368
:105240008FEF9FE78D839E83CE014A96AC01688DD8
:10525000798DCE0101960DD0EF81F885E00FF11F19
:1052600010822E96CDBFDEBFDF91CF911F910F919F
:1052700008952F923F924F925F926F927F928F92FA
:105280009F92AF92BF92CF92DF92EF92FF920F93D5
:105290001F93CF93DF93CDB7DEB72C97CDBFDEBF83
:1052A0007C016B018A01FC0116821782838181FFD8
:1052B000B9C188248394912C8C0E9D1EF701938193
:1052C000F60193FD859193FF81916F01882309F485
:1052D000A5C1853239F493FD859193FF81916F01CA
:1052E000853221F4B70190E0DCD1E8CF512C312C8C
:1052F00020E02032A8F48B3261F028F4803251F0A3
:10530000833271F40BC08D3239F0803349F421605F
:1053100028C02260246025C0286023C0206121C0ED
:1053200027FD27C0382F30533A3078F426FF06C0C7
:10533000FAE05F9E300D1124532E13C08AE0389E90
:10534000300D1124332E20620CC08E3221F426FD44
:1053500065C1206406C08C3611F4206802C088360E
:1053600041F4F60193FD859193FF81916F018111C5
:10537000C0CF982F9554933018F09052933028F462
:105380000C5F1F4FFFE3F9830DC0833631F0833785
:1053900071F0833509F05AC022C0F80180818983F9
:1053A0000E5F1F4F44244394512C540114C0380104
:1053B000F2E06F0E711CF801A080B18026FF03C0DF
:1053C000652D70E002C06FEF7FEFC5012C874ED1D5
:1053D0002C0183012C856FE7262E222217C038016D
:1053E000F2E06F0E711CF801A080B18026FF03C0AF
:1053F000652D70E002C06FEF7FEFC5012C872BD1C8
:105400002C012C8550E8252E222A830123FC1AC06A
:1054100005C0B70180E290E044D13A94832D90E03A
:1054200048165906B0F30EC0F50127FC859127FEFA
:1054300081915F01B70190E034D131103A94F1E0ED
:105440004F1A51084114510479F7E5C0843611F020
:10545000893639F5F80127FF07C0608171818281A3
:1054600093810C5F1F4F08C060817181882777FD91
:105470008095982F0E5F1F4F4FE6B42EB22297FFF4
:1054800009C090958095709561957F4F8F4F9F4F84
:10549000F0E8BF2A2AE030E0A4012FD1A82EA818F6
:1054A00042C0853731F43FEEB32EB2222AE030E01D
:1054B00024C099EFB92EB2228F36B9F020F4883586
:1054C00009F0ACC00DC0803721F0883709F0A6C0C4
:1054D00002C020E1B22AB4FE0BC084E0B82A08C0A2
:1054E00024FF09C0E6E0BE2A06C028E030E005C07F
:1054F00020E130E002C020E132E0F801B7FE07C051
:1055000060817181828193810C5F1F4F06C0608131
:10551000718180E090E00E5F1F4FA401EED0A82EB5
:10552000A818FFE7BF22B6FE0BC02B2D2E7FA514B7
:1055300050F4B4FE0AC0B2FC08C02B2D2E7E05C06C
:105540007A2C2B2D03C07A2C01C0752C24FF0DC0A2
:10555000FE01EA0DF11D8081803311F4297E09C01E
:1055600022FF06C07394739404C0822F867809F0DA
:10557000739423FD13C020FF0EC05A2C731458F4EB
:10558000530C5718732C07C0B70180E290E02C87AA
:1055900088D073942C857314B8F304C0731410F47A
:1055A000371801C0312C24FF11C0B70180E390E00F
:1055B0002C8777D02C8522FF1CC021FF03C088E5F3
:1055C00090E002C088E790E0B7010CC0822F867897
:1055D00081F021FD02C080E201C08BE227FD8DE257
:1055E000B70190E05ED005C0B70180E390E059D0EC
:1055F0005A94A514C8F3AA94F401EA0DF11DB70159
:10560000808190E04ED0A110F6CF05C0B70180E2B6
:1056100090E047D03A943110F9CF50CEF70126816F
:10562000378102C02FEF3FEFC9012C96CDBFDEBFFF
:10563000DF91CF911F910F91FF90EF90DF90CF906E
:10564000BF90AF909F908F907F906F905F904F90A2
:105650003F902F900895FC0105906150704001101B
:10566000D8F7809590958E0F9F1F0895FC0161508B
:10567000704001900110D8F7809590958E0F9F1F74
:105680000895DC01FC01672F71917723E1F73297D0
:1056900004C07C916D9370836291AE17BF07C8F30D
:1056A00008950F931F93CF93DF938C01EB018B81B0
:1056B00081FD03C00FEF1FEF1AC082FF0DC02E81C6
:1056C0003F818C819D812817390764F4E881F98135
:1056D0000193E883F98306C0E885F985802F199541
:1056E000892B41F78E819F8101968E839F83C8010C
:1056F000DF91CF911F910F910895FA01AA272830C9
:1057000051F1203181F1E8946F936E7F6E5F7F4F8E
:105710008F4F9F4FAF4FB1E03ED0B4E03CD0670F0A
:10572000781F891F9A1FA11D680F791F8A1F911D5D
:10573000A11D6A0F711D811D911DA11D20D009F4AD
:1057400068943F912AE0269F11243019305D3193EF
:10575000DEF6CF010895462F4770405D4193B3E0D8
:105760000FD0C9F7F6CF462F4F70405D4A3318F07F
:10577000495D31FD4052419302D0A9F7EACFB4E030
:10578000A6959795879577956795BA95C9F70097E8
:105790006105710508959B01AC010A2E0694579589
:1057A000479537952795BA95C9F7620F731F841FE0
:0A57B000951FA01D0895F894FFCF87
:1057BA000100005F2A200000FC010607207D1C1161
:1057CA00980FA20FA40F22105A0F920F3C10A40F89
:1057DA000000722026202E202A2018200E200902DE
:1057EA004300020100C03209040000010202010064
:1057FA0005240010010424020205240600010524E0
:10580A000103010705820340001009040100020A8E
:10581A00000000070581024000000705020240005F
:10582A0000001201000202000040EB0322210001E5
:10583A00010203010403090441544D454C2041531C
:10584A004600434443205669727475616C20436F65
:10585A006D000003000000000000000000000000CE
:10586A00000000000000000000000000000000002E
:10587A00000001F9FDFDF90141FFFFFFFF4110FFA3
:10588A00FFFFFF109EBFBFBFBF9E1900AD04E320FC
:10589A00040000A6049E0496048E041B06F2201936
:1058AA000C000906F705EB05DF05D205C405B705A7
:1058BA00AA05A10592057F057405660554054605E6
:1058CA0039052D051F050F050105F204E704DD045E
:1058DA00C904BF043031323334353637383941429E
:1058EA004344454600557000446F776E00456E7418
:1058FA006572004261636B002533692043656C73EE
:10590A00697573004E54435F4F43002575000D0AB5
:02591A0000008B
:00000001FF
