S0210000584D4547415F413342555F58504C41494E45445F44454D4F312E73726563BE
S113000057C3000076C3000074C3000072C300002D
S113001070C300006EC300006CC300006AC300001C
S113002068C3000066C3000064C300000C94C219D6
S113003060C300005EC300005CC300005AC300003C
S113004058C3000056C3000054C3000052C300004C
S113005050C300004EC300000C94D3244AC30000D4
S113006048C3000046C3000044C3000042C300006C
S113007040C300003EC300003CC300003AC300007C
S113008038C3000036C3000034C3000032C300008C
S113009030C300002EC300002CC300000C945B1777
S11300A00C948D170C94BF170C94F11722C3000005
S11300B020C300001EC300001CC300001AC30000BC
S11300C018C3000016C3000014C3000012C30000CC
S11300D010C300000EC300000CC300000AC30000DC
S11300E008C3000006C3000004C3000002C30000EC
S11300F000C30000FEC20000FCC20000FAC20000FF
S1130100F8C20000F6C20000F4C20000F2C200000F
S1130110F0C20000EEC20000ECC200000C94931682
S11301200C94C5160C94F7160C942917E2C200001F
S1130130E0C20000DEC20000DCC20000DAC200003F
S1130140D8C20000D6C20000D4C20000D2C200004F
S1130150D0C20000CEC20000CCC20000CAC200005F
S1130160C8C20000C6C20000C4C20000C2C200006F
S1130170C0C20000BEC20000BCC20000BAC200007F
S1130180B8C20000B6C20000B4C20000B2C200008F
S1130190B0C20000AEC20000ACC20000AAC200009F
S11301A0A8C20000A6C20000A4C20000A2C20000AF
S11301B0A0C200009EC200009CC200009AC20000BF
S11301C098C2000096C2000094C2000092C20000CF
S11301D090C200008EC200008CC200008AC20000DF
S11301E088C2000086C2000084C2000082C20000EF
S11301F080C200000C947E1F0C942E2007634236AC
S1130200B79BD8A71A39685618AEBAAB558C1D3CA3
S1130210B7CC5763BD6DEDFD753EF6177231BF0067
S11302200000803F08000000BE922449123EABAAA1
S1130230AA2ABECDCCCC4C3E00000080BEABAAAAFC
S1130240AA3E00000000BF000000803F0000000044
S113025000084178D3BB4387D1133D190E3CC3BD7D
S11302604282AD2B3E68EC8276BED98FE1A93E4C2A
S113027080EFFFBE01C4FF7F3F00000000000000CC
S113028000000000002020202020002050505000BA
S11302900000005050F850F850502078A07028F01A
S11302A020C0C810204098186090A040A8906860B2
S11302B0204000000000102040404020104020104A
S11302C010102040005020F8205000002020F8207A
S11302D0200000000000602040000000F800000042
S11302E0000000000060600008102040800070885A
S11302F098A8C8887020602020202070708808107A
S11303002040F8F810201008887010305090F81031
S113031010F880F008088870304080F0888870F801
S113032008102040404070888870888870708888E1
S11303307808106000606000606000006060006029
S11303402040081020402010080000F800F80000A9
S11303508040201020408070880810200020708881
S11303600868A8A87070888888F88888F08888F059
S11303708888F070888080808870E0908888889071
S1130380E0F88080F08080F8F88080E080808070E1
S1130390888080988870888888F888888870202069
S11303A020202070381010101090608890A0C0A0F9
S11303B09088808080808080F888D8A88888888801
S11303C08888C8A898888870888888888870F08801
S11303D088F080808070888888A89068F08888F089
S11303E0A09088788080700808F0F82020202020D1
S11303F02088888888888870888888888850208899
S11304008888A8A8D88888885020508888888850E8
S113041020202020F80810204080F83820202020B8
S1130420203800804020100800E02020202020E018
S113043020508800000000000000000000F8402068
S11304401000000000000070087888788080B0C830
S11304508888F00000708080887008086898888810
S11304607800007088F88070304840E040404000D8
S11304700078887808308080B0C888888820006038
S113048020202070100030101090604040485060D0
S11304905048602020202020700000D0A8A8888820
S11304A00000B0C8888888000070888888700000C0
S11304B0F088F08080000068987808080000B0C8D0
S11304C0808080000070807008F04040E040404828
S11304D03000008888889868000088888850200048
S11304E0008888A8A8500000885020508800008800
S11304F0887808700000F8102040F8102020402070
S113050020102020202020202040202010202040C7
S11305102B3435206D696E002B3330206D696E00ED
S11305202B3135206D696E002030206D696E0054CA
S1130530696D657A6F6E65206D696E757465733A61
S1130540002B31323A2046696A69002B31313A2056
S1130550536F6C6F6D6F6E2049736C616E64002B0A
S113056031303A204145535400202B393A20546FFE
S11305706B796F00202B383A20486F6E67204B6FE1
S11305806E6700202B373A20546861696C616E6491
S113059000202B363A2042616E676C616465736893
S11305A000202B353A2050616B697374616E002012
S11305B02B343A204D6F73636F7700202B333A202E
S11305C04E6169726F626900202B323A204973745C
S11305D0616E62756C00202B313A204F736C6F2C66
S11305E0204265726C696E005554433A20554B2085
S11305F028474D542900202D313A205072616961F9
S113060000202D323A20536F7574682047656F724D
S113061067696100202D333A20477265656E6C610D
S11306206E6400202D343A2045435400202D353A81
S1130630204561737465726E00202D363A2043653F
S11306406E7472616C00202D373A204D6F756E7494
S113065061696E00202D383A2050616369666963D0
S113066000202D393A20416C61736B61002D3130CB
S11306703A20486177616969002D31313A204B692C
S11306806E676D616E2052656566002D31323A20C9
S113069042616B65722049736C616E640054696DCC
S11306A0657A6F6E6520686F7572732055544300C8
S11306B011241FBECFEFDFE5DEBFCDBF00E00CBFCE
S11306C011E2A0E0B0E2EEEFFBE500E00BBF02C0F8
S11306D007900D92A63AB107D9F72AE2A8EAB1E247
S11306E001C01D92A33AB207E1F70E94AB230C9418
S11306F0FD2D86CC8093A2066093A2068093A50666
S11307006093A6066093A10608953F936093A206A2
S11307108093A1068093A2066093A1063F918091E5
S1130720A806842308958093A6068093A1060895BD
S1130730A1E0B0E0EEE9F3E00C944D29E82F0FB707
S1130740007819828091A821813019F081E080938A
S1130750A821CE2EDD24F601E651FE4DB080F6012F
S1130760E251FE4DA080F894BB2009F4AAC08B2D61
S1130770DADF8B2D6A2DBEDF1B2DEE24FF2460E013
S1130780812C30E2932EF5FE07C09091EB218091ED
S1130790EA21982B19F535C08FB7802B8FBF000045
S11307A0F8948B2D6A2D412FB0DF682F0894E11C3B
S11307B0F11C809100208F5F80930020823030F004
S11307C0823021F0833011F0109200206623D9F298
S11307D02091EB218091EA21282B15C0412F80E044
S11307E040FF09C0E82FF0E0EE0FFF1FED54FE4D6F
S11307F08082918201C090FD8F5F969546959923E2
S113080079F710E020E08FB7802B8FBF1092A921D9
S1130810222309F43FC0112309F43CC03091EF2195
S11308208091EE21382B562F90E080E070E040E07C
S113083023C050FD17C019C030FF13C0981781F4AE
S1130840E42FF0E0EE0FFF1FED54FE4DE082F18245
S1130850852F8E7F19F4892F71E008C0892F06C077
S11308608F5F3695332341F701C020FD9F5F20FD44
S11308704F5F5695269511F05523D9F64093A9213B
S113088060951623713021F4112311F4EE24FF2412
S113089060E013C08091EB219091EA21892B898338
S11308A090E006C0898180FD9F5F89818695898358
S11308B089818823B9F79093A921F894112309F029
S11308C062CF8AEE91E2C80ED91EF60180812BDF39
S11308D08FB7082B0FBF2196ECE00C946629FC011E
S11308E080E290E0808391831282138280E394E01B
S11308F08483958308959091E421A92FB0E0FD01AC
S1130900EE0FFF1FEA0FFB1FEE0FFF1FE453FE4D18
S11309104383677085832370660F660F660F262BEB
S113092024839F5F9093E42108951F93CF93DF93D3
S1130930282FC82FD0E0FE01EE0FFF1FEC0FFD1F84
S1130940EE0FFF1FE453FE4D3581838190E000904C
S1130950AC2102C0959587950A94E2F7182F84304C
S113096008F414E08091E421281718F020E030E026
S11309702DC0832F1DD19C01412F50E01695169553
S1130980812F90E0841B950B8217930764F4FE017A
S1130990EE0FFF1FEC0FFD1FEE0FFF1FE453FE4D84
S11309A084818B7F848388279927841B950B8217E6
S11309B0930764F0FE01EE0FFF1FEC0FFD1FEE0F17
S11309C0FF1FE453FE4D848184608483C901DF9159
S11309D0CF911F910895FF920F931F93CF93DF93AD
S11309E01092C4211092C5212091C8213091C921AF
S11309F08093C8219093C9214091CA215091CB2161
S1130A00421B530B480F591FFF2403C0F394485C47
S1130A105040483C5105D0F74093CA215093CB2114
S1130A208091E521882341F08F1518F41092E52177
S1130A3003C08F198093E521AAD3E091C621F091D8
S1130A40C721309709F0199510E000E005C0812F07
S1130A506F2DC3D0082B1F5F6091E4211617B8F3E4
S1130A60002349F08091C4219091C5219160809325
S1130A70C4219093C5211092C321ACECB1E230E0C3
S1130A8041E050E017C08C91887191F0E32FE69516
S1130A90E695E695F0E0ED54FE4D832F8770EA016C
S1130AA002C0CC0FDD1F8A95E2F720892C2B208B06
S1130AB03F5F1696361738F38091C4219091C52173
S1130AC0CDB7DEB7E5E00C946D291092E42184E003
S1130AD08093AD2194E19093B02185E08093B1217E
S1130AE01092AF219093AE2181E08093AC2183E0FA
S1130AF08093B2213BD31092C6211092C72108954E
S1130B001F9310E003C0812F27D01F5F8091E42141
S1130B101817C8F31F910895EF92FF921F93CF9374
S1130B20DF93EC017B0110E003C0812F15D01F5F20
S1130B308091E4211817C8F31092C8211092C9219A
S1130B40C093AA21D093AB21C7010BD3DF91CF91DE
S1130B501F91FF90EF90089590E0ECECF1E29C017E
S1130B60220F331F280F391FD901AA0FBB1FAE0F45
S1130B70BF1F15964C9115978091C4219091C52162
S1130B8082608093C4219093C5212F5F3F4F220F31
S1130B90331FE20FF31F1082E6EEF1E2E40FF11DC2
S1130BA080E8808381E08C938FE011968C93089584
S1130BB090E0FC013496A3EBB1E2EE0FFF1FEA0FC5
S1130BC0FB1F880F991FA80FB91F208131818D91B8
S1130BD09C91281B390BC9010895A0E0B0E0E3EF14
S1130BE0F5E00C944B29782EF62E9FDE5C01072D40
S1130BF010E0F801EE0FFF1FE00FF11FEE0FFF1FD3
S1130C00E453FE4D54814381242F30E0852F8370BB
S1130C1090E0019602C0359527958A95E2F7822FD8
S1130C20223008F482E0242F30E0B901681B7109F6
S1130C30F801EE0FFF1FE00FF11FEF01CC0FDD1FD6
S1130C40C453DE4D8881843009F4F7C0853030F414
S1130C50813071F0823009F07DC26EC0803109F4B8
S1130C60A1C1803209F442C2883009F073C2EEC1D6
S1130C704091C4215091C521CA0192608093C4213E
S1130C809093C5218D816981A82FB0E06A3060F00E
S1130C90AA0FBB1FFD01ED54FE4D80819181A55427
S1130CA0BE4D8D939C9318C0AA0FBB1FFD01E55444
S1130CB0FE4D20813181AD54BE4D8D919C918217A2
S1130CC0930718F42150304005C02817390750F411
S1130CD02F5F3F4F20833183486052604093C4218B
S1130CE05093C521862F8150F801EE0FFF1FE00FAE
S1130CF0F11FEF01CC0FDD1FC453DE4D8983882320
S1130D00B1F4AD8182E088838091C4219091C521A2
S1130D1082608093C4219093C521EE0FFF1FE2539C
S1130D20FE4D1082B0E0AA51BE4D80E88C938091B4
S1130D30AE218093E5210CC252FF04C080E2888377
S1130D401982F7C1C501B7FE02C080E090E08217A6
S1130D50930780F0F801EE0FFF1FE00FF11FEE0F75
S1130D60FF1FDF01A453BE4D84E08C93E253FE4D7C
S1130D701082E5C1FF2009F4EDC18091E5218823AB
S1130D8009F0E8C1F801EE0FFF1FE00FF11FEE0FAD
S1130D90FF1FE453FE4D858190E0EC01CC0FDD1F75
S1130DA0C554DE4D28813981FC01EE0FFF1FED543F
S1130DB0FE4D0190F081E02D2E173F0788F4FC01D1
S1130DC0EA51FE4D90819F0D90838091B12180580E
S1130DD0981708F4BFC180E880832F5F3F4F14C089
S1130DE0DC01AA51BE4DE217F307D0F48C918F19A0
S1130DF08C9340E89091B021542F591B581708F454
S1130E00A9C14C9321503040288339838091C42157
S1130E109091C52188608093C4219093C5219AC183
S1130E202C91213810F021502C93FC01EA51FE4DF5
S1130E30808187FD8FC18F5F57C1C501B7FE02C096
S1130E4080E090E0F801EE0FFF1F8217930708F48B
S1130E508FC08091AE218093E5219F01200F311F27
S1130E60220F331FD901A253BE4D8C918F5F8C93F7
S1130E70F901E453FE4D848190E08873907023E07F
S1130E80969587952A95E1F7682E882309F43EC044
S1130E90DD24CC247F0183E090E0E80EF91E4D01AF
S1130EA02FC0D71461F18D2D90E0EC01CC0FDD1F24
S1130EB0C80FD91FCC0FDD1FC453DE4D8C8190E0C9
S1130EC08873907073E0969587957A95E1F7681624
S1130ED0B1F48D2D2ADD2B81821B9109F70120812C
S1130EE0A501421B5109481759072CF0888180310C
S1130EF011F0883021F4F4011082CC24C394D394EB
S1130F008091E421D81668F2CC2079F48091AD2147
S1130F10882359F08091C4219091C52198608093D1
S1130F20C4219093C52141E001C040E09801220F03
S1130F30331F200F311FF901EE0FFF1FE253FE4D47
S1130F4090818091AD21981708F405C18091C42146
S1130F509091C52183608093C4219093C521F901A8
S1130F60EE0FFF1FE453FE4D80E180831182F3C036
S1130F70E00FF11FEE0FFF1FDF01A453BE4D1596C6
S1130F802C91159782E08C938091C4219091C52176
S1130F9082608093C4219093C521E253FE4D108258
S1130FA0E22F9EC0C501B7FE02C080E090E0F801C8
S1130FB0EE0FFF1F4091C4215091C521861797075A
S1130FC070F4E00FF11FEE0FFF1FE453FE4D88E0B5
S1130FD0808354604093C4215093C52131C0416043
S1130FE04093C4215093C521E00FF11FEE0FFF1F62
S1130FF0E253FE4D90818091AD21981710F49F5FCC
S113100090839091AF21992371F0F801EE0FFF1FA7
S1131010E00FF11FEE0FFF1FE453FE4D818189178E
S113102020F48F0D818340E00CC0872D95DD8091E5
S1131030C4219091C52192608093C4219093C521CD
S113104041E08091AE218093E52185C08091AE215D
S11310508093E521DF01AA0FBB1FA253BE4D8C91E3
S1131060882389F1C501B7FE02C080E090E0409179
S1131070C4215091C5216817790790F4F801EE0F47
S1131080FF1FE00FF11FEE0FFF1FE453FE4D80E141
S1131090808341604093C4215093C52140E006C041
S11310A054604093C4215093C52141E0F801EE0FF0
S11310B0FF1FE00FF11FEE0FFF1FE253FE4D808173
S11310C08150808348C0ED8182E088838091C4216F
S11310D09091C52182608093C4219093C5211C9274
S11310E0F0E0EA51FE4D80E8808334C099819F5F2F
S11310F099838C8182FD17C0AD8182E088838091C1
S1131100C4219091C52182608093C4219093C5210C
S1131110EE0FFF1FE253FE4D1082B0E0AA51BE4D08
S113112080E88C9317C08091B221981740F0872DE6
S113113013DD8091C4219091C521906105C08091F7
S1131140C4219091C52194608093C4219093C521BA
S113115041E001C040E0842FCDB7DEB7EEE00C944F
S11311606429FC01009709F0199508951092EA2169
S11311701092EB211092EE211092EF211092EC21AB
S11311801092ED211092F0211092F1210895809196
S1131190EC219091EA21892B41F0E091AA21F09170
S11311A0AB21309711F080E019958091ED21909159
S11311B0EB21892B41F0E091AA21F091AB213097EA
S11311C011F081E019950895CF92DF92EF92FF928A
S11311D00F931F93CF93DF931F921F92CDB7DEB768
S11311E088E18A8388E0E0E0F6E086838A81982FAC
S11311F091509A838111FACF88E18A8388E0E0E0F4
S1131200F6E085838A81982F91509A838111FACFD1
S11312108BE2898380EA99E0ECD5C12CD12C76014C
S113122000E012E12AE730E043E0BE016F5F7F4F48
S113123080EA99E008D6E0E6F6E081E0868398E06B
S1131240A0EAB6E016969C938683E0EAF9E08181F1
S113125085FFFDCF80EA8093A009E0EAF9E081816F
S113126086FFFDCFE0EAF9E080E481838081E0EA53
S1131270F6E088E08583868381E0E0E6F6E0868315
S1131280E0EAF9E0818185FFFDCF86EA8093A00939
S1131290E0EAF9E0818186FFFDCFE0EAF9E080E44D
S11312A081838081E0EAF6E088E08583868381E0BB
S11312B0E0E6F6E08683E0EAF9E0818185FFFDCF90
S11312C088EC8093A009E0EAF9E0818186FFFDCFF4
S11312D0E0EAF9E080E481838081E0EAF6E088E0F6
S11312E08583868381E0E0E6F6E08683E0EAF9E040
S11312F0818185FFFDCF82EA8093A009E0EAF9E0CD
S1131300818186FFFDCFE0EAF9E080E4818380817A
S1131310E0EAF6E088E08583868381E0E0E6F6E0B3
S11313208683E0EAF9E0818185FFFDCF8FE2809337
S1131330A009E0EAF9E0818186FFFDCFE0EAF9E067
S113134080E481838081E0EAF6E088E08583868317
S113135081E0E0E6F6E08683E0EAF9E0818185FF5A
S1131360FDCF88EF8093A009E0EAF9E0818186FF50
S1131370FDCFE0EAF9E080E481838081E0EAF6E0F1
S113138088E08583868381E0E0E6F6E08683E0EA10
S1131390F9E0818185FFFDCF1092A009E0EAF9E030
S11313A0818186FFFDCFE0EAF9E080E481838081DA
S11313B0E0EAF6E088E08583868381E0E0E6F6E013
S11313C08683E0EAF9E0818185FFFDCF81E28093A5
S11313D0A009E0EAF9E0818186FFFDCFE0EAF9E0C7
S11313E080E481838081E0EAF6E088E08583868377
S11313F081E0E0E6F6E08683E0EAF9E0818185FFBA
S1131400FDCF81E88093A009E0EAF9E0818186FFBD
S1131410FDCFE0EAF9E080E481838081E0EAF6E050
S113142088E08583868381E0E0E6F6E08683E0EA6F
S1131430F9E0818185FFFDCF81E28093A009E0EA94
S1131440F9E0818186FFFDCFE0EAF9E080E4818361
S11314508081E0EAF6E088E08583868381E0E0E647
S1131460F6E08683E0EAF9E0818185FFFDCF8FEA2B
S11314708093A009E0EAF9E0818186FFFDCFE0EAEC
S1131480F9E080E48183808188E0E0EAF6E0858306
S11314900F900F90DF91CF911F910F91FF90EF90DC
S11314A0DF90CF9008950F931F93CF93DF9300D0D5
S11314B01F92CDB7DEB78FEF8093700080937100D9
S11314C080937200809373008093740080937500FE
S11314D08093760064E081E490E00E940A196CE154
S11314E070E082E00E942A198A836DE170E082E054
S11314F00E942A19898389819A81019621F480E4C2
S113150093E289839A8389819A818B839C83E0E621
S1131510F0E082838C8183838FB7F894E0E5F0E078
S11315209081926090838FBF818181FFFDCF8FB7BF
S1131530F89400E510E0D80116969C911697997FCF
S113154016969C931697E0E6F0E090E895839BEB63
S1131550968316969C911697946016969C93908108
S1131560916090838FBF61E080E490E00E940A194B
S11315708FB7F894F80190819E7F90838FBF249653
S1131580CDBFDEBFDF91CF911F910F9108959FB71B
S1131590F894E82FF0E0E059FF4F609580816823CC
S11315A060839FBF08959FB7F894E82FF0E0E05957
S11315B0FF4F8081682B60839FBF0895863011F4AC
S11315C068E101C060E0E0E5F0E0818181FD24C0D4
S11315D08FB7F8949081926090838FBF818181FF4F
S11315E0FDCF8FB7F894A0E5B0E016969C911697BE
S11315F0997F16969C931697E0E6F0E090E8958321
S11316009BEB968316969C911697946016969C93E2
S11316109081916090838FBF636084E490E00E9426
S11316200A1960E480E0B3CFEF92FF920F931F9307
S1131630CF93DF93EC01F62E042F122FA2D19F2D0E
S11316409F70906B88E0E0EAF6E0868381E0E0E654
S1131650F6E08683E0EAF9E0818185FFFDCF90938F
S1131660A009E0EAF9E0818186FFFDCFE0EAF9E034
S113167080E481838081E0EAF6E088E08583902F2E
S11316809F7792959F709061868381E0E0E6F6E013
S11316908683E0EAF9E0818185FFFDCF9093A0097C
S11316A0E0EAF9E0818186FFFDCFE0EAF9E080E439
S11316B081838081E0EAF6E088E085830F70868389
S11316C081E0E0E6F6E08683E0EAF9E0818185FFE7
S11316D0FDCF0093A009E0EAF9E0818186FFFDCF08
S11316E0E0EAF9E080E48183808188E0E0EAF6E0E2
S11316F0858380EA96E048E00F2EF0E6EF2EF6E0D0
S1131700FF2EF02D31E0E0EAF9E060E45991DC01CC
S113171016964C93D70115963C93218125FFFDCF56
S11317205083218126FFFDCF61832081D701169646
S11317303C93DC0115964C93115041F7DF91CF9106
S11317401F910F91FF90EF9008951F93CF93DF9314
S1131750182FD62FC42F29D11F70106B88E0E0EA10
S1131760F6E0868381E0E0E6F6E08683E0EAF9E0ED
S1131770918195FFFDCF1093A009E0EAF9E0818102
S113178086FFFDCFE0EAF9E080E481838081E0EA2E
S1131790F6E088E085839D2F9F7792959F709061F6
S11317A0868381E0E0E6F6E08683E0EAF9E0818181
S11317B085FFFDCF9093A009E0EAF9E0818186FFDF
S11317C0FDCFE0EAF9E080E481838081E0EAF6E09D
S11317D088E08583DF70868381E0E0E6F6E0868337
S11317E0E0EAF9E0818185FFFDCFD093A009E0EA2A
S11317F0F9E0818186FFFDCFE0EAF9E080E48183AE
S11318008081E0EAF6E088E08583868381E0E0E693
S1131810F6E08583E0EAF9E0818185FFFDCFC0939E
S1131820A009E0EAF9E0818186FFFDCFE0EAF9E072
S113183080E48183808181E0E0E6F6E0868388E0CD
S1131840E0EAF6E08583DF91CF911F910895CF936D
S1131850DF9382EF91E290D0B7DC88E0E0EAF6E033
S1131860868381E0E0E6F6E08683E0EAF9E08181C0
S113187085FFFDCF80E48093A009E0EAF9E081814F
S113188086FFFDCFE0EAF9E080E48183808188E08F
S1131890E0EAF6E08583D0E00AC040E06C2F8D2FAB
S11318A054DFCF5FC038C9F7DF5FD43011F0C0E038
S11318B0F4CFDF91CF91089587C00895EF92FF92FE
S11318C00F931F93CF93DF93182F042F88237CF15A
S11318D0603268F5F62EF694F694F694CF2DD0E0A7
S11318E0D195C195D109CC0FDD1FCC0FDD1FCC0FD5
S11318F0DD1FC60FD11D21E030E0C90102C0880FF1
S1131900991FCA95E2F7EC01612F8F2DD5DF0130C5
S113191021F028F0023039F405C08C2B04C0C095A6
S11319208C2301C08C27482F612F8F2D0EDFDF9170
S1131930CF911F910F91FF90EF9008950F931F93F4
S1131940CF93DF93D82F162F042FC22FB5DFC130CA
S113195021F028F0C23039F405C0802B04C0009572
S1131960802301C08027482F612F8D2FEEDEDF9169
S1131970CF911F910F9108958093F2239093F323B5
S11319800895A42FB0E030E8639FA00DB11D112489
S11319904091F2235091F323A40FB51FE82FF92FA0
S11319A081918D932150E1F7089520E8829FC00131
S11319B01124FC01E60FF11D8091F2239091F32391
S11319C0E80FF91F4083089520E8829FC001112485
S11319D0FC01E60FF11D8091F2239091F323E80FAF
S11319E0F91F80810895FF920F931F93CF93DF9384
S11319F0C42FE42FF0E0E80FF11DE138F10514F0F5
S1131A00C0E8C81BCC2309F450C0D62FD695D69570
S1131A10D695ED2FF0E0F195E195F109EE0FFF1F5A
S1131A20EE0FFF1FEE0FFF1FAF01460F511DBA014E
S1131A30E1E0F0E0AF0102C0440F551F6A95E2F700
S1131A40042F213021F090F0223079F520C0F82EB7
S1131A50FA941F2D1C0F612F8D2F2EDF482F402B42
S1131A60612F8D2F72DEC150A1F71FC0F82EFA949A
S1131A70042F00951F2D1C0F612F8D2F1DDF482F64
S1131A804023612F8D2F61DEC150A1F70EC0F82EC7
S1131A90FA941F2D1C0F612F8D2F0EDF482F402726
S1131AA0612F8D2F52DEC150A1F7DF91CF911F918D
S1131AB00F91FF900895FF920F931F93CF93DF939D
S1131AC0D82F122F442309F442C0962F9150940F1B
S1131AD0691303C0422FF2DE3AC09F3108F09FE140
S1131AE0C62FC695C695C695092F069506950695E3
S1131AF06770EFEFF0E04E2F01C0440F6A95EAF7EC
S1131B009770A7E0B0E0A91BB10902C0F595E7956D
S1131B10AA95E2F7FE2EC01306C04E23212F6D2F87
S1131B208C2F0CDF14C0212F6D2F8C2F07DFCF5F7C
S1131B30C01740F4212F4FEF6D2F8C2FFFDECF5FA6
S1131B40C017C0F3212F4F2D6D2F802FF7DEDF91AB
S1131B50CF911F910F91FF900895FF920F931F93C0
S1131B60CF93DF93D82FC62F142FF22E202F3BDFD5
S1131B706C2F61506F0D202F412F8D2F34DF202FBC
S1131B804F2D6C2F8D2F97DF8D2F8150202F4F2DB0
S1131B906C2F810F90DFDF91CF911F910F91FF90F8
S1131BA00895FF920F931F93CF93DF93D82F142F91
S1131BB0C22F222351F0F62EFA946F2D6C0F202F92
S1131BC0412F8D2F10DFC150C1F7DF91CF911F91AD
S1131BD00F91FF900895BF92CF92DF92EF92FF9200
S1131BE00F931F93CF93DF93EC01F62EE980E694D5
S1131BF0E694E694D42ED694D694D6948A818823F7
S1131C0031F0813009F03CC0E11020C039C0E1104E
S1131C1023C036C0C12CBD2CB00E909FF001919F03
S1131C20F00D1124EC0DF11D2B813C81E20FF31F0B
S1131C3044916C2D6F0D8B2D88DDC3949881C9164A
S1131C4060F30F5F1F4F0E1518F01AC000E010E08C
S1131C5098819111DFCFF5CF00E010E028816D2D40
S1131C60600F209FC001219F900D1124EB81FC8106
S1131C704F2D8E0F9F1FD8DC0F5F1F4F0E1570F373
S1131C80DF91CF911F910F91FF90EF90DF90CF9054
S1131C90BF900895AF92BF92CF92DF92EF92FF92DE
S1131CA00F931F93CF93DF93C82FD62EA42E7901C1
S1131CB000E0F901248143816A2D8D2D72DFF70143
S1131CC09081911139C08381A82FA695A695A695D8
S1131CD0877009F0AF5FF701C480AC9DD001112477
S1131CE0EC2FF0E0E7018D81E81BF109AE9F900134
S1131CF0AF9F300DBE9F300D11240980DA81C02DB5
S1131D00C20FD31FF701B380BB2099F000E010E0AD
S1131D10812F8D0D912F977019F4FE010491219656
S1131D2000231CF441E06A2DC9DD000F1F5F1B1165
S1131D30EFCFA394CA9431F7DF91CF911F910F9104
S1131D40FF90EF90DF90CF90BF90AF900895DF9217
S1131D50EF92FF920F931F93CF93DF93E42E8901A9
S1131D60C82FD92FF62ED62E89918A3031F4F80156
S1131D7084818F5FE80EFD2C09C08D3039F0980105
S1131D804E2D6F2D87DFF8018381F80E8881811134
S1131D90EBCFDF91CF911F910F91FF90EF90DF90E8
S1131DA00895CF93DF93FC01709620E030E0C62FB6
S1131DB0D0E0DE01022E02C0B595A7950A94E2F7A1
S1131DC0A0FD50832F5F3F4F31962830310589F7AE
S1131DD040FF0AC041FF03C0FC01658302C0FC014F
S1131DE06683FC01618302C0FC016283DF91CF91B1
S1131DF00895803A28E0920719F460E183E0C7CBA4
S1131E00803B28E0920719F460E283E0C0CB803A7B
S1131E1029E0920719F460E184E0B9CB803B29E022
S1131E20920719F460E284E0B2CB803A2AE0920788
S1131E3019F460E185E0ABCB803A9B4019F460E192
S1131E4086E0A5CB08950F931F93CF93DF9300D023
S1131E5000D0CDB7DEB709831A832B833C834D832F
S1131E601E82BE016F5F7F4F0E942C1A2696CDBF43
S1131E70DEBFDF91CF911F910F9108951092FD2342
S1131E801092FE231092FF2381EA8093002480E2C3
S1131E9080930124109202241092032410920424AB
S1131EA01092052482E090E0809306249093072406
S1131EB0109208241092092480E092ECA1E0B0E092
S1131EC080930A2490930B24A0930C24B0930D24A4
S1131ED010920E2410920F2488E080931024809195
S1131EE0FD238F5F8093FD2381E008958091FD237E
S1131EF081508093FD2308958091FC238150809329
S1131F00FC238091FC231092FB23089580E0089524
S1131F1080E008950895FF920F931F93CF93DF936A
S1131F208091F52381116CC00E94631E882351F0B7
S1131F30C0911524D09116240E94721EC817D90787
S1131F4059F45EC0C0911524D09116240E946B1ED2
S1131F50C817D90709F454C08FB7F894C091F62371
S1131F609091F423911106C091E0C11190E09093F7
S1131F70F62304C091E0C11190E0C92F91E0909341
S1131F80F5238FBFD0E0FE01EE0FFF1FEF5EFB4D88
S1131F90FF24F394808191818034914009F4F12CE1
S1131FA0FF2091F00E94631E882339F00E94721E64
S1131FB080931524909316240BC00E946B1E80936B
S1131FC015249093162404C01092152410921624FC
S1131FD0FE01EE0FFF1FEF5EFB4D2081318180E497
S1131FE091E0C89FA001C99F500DD89F500D1124A6
S1131FF0445E5B4D08E010E16F2D81E80E94C71E2E
S1132000DF91CF911F910F91FF90089580E083CFCE
S1132010811115C02091F62381E090E0222311F074
S113202080E090E0FC01EE0FFF1FEF5EFB4D10829D
S113203011821092F4231092F52380E06CCF08955E
S113204080916B2A8823ECF48076803209F044C0B6
S113205080916C2A813209F041C08091712A90915B
S1132060722A0797E9F58AE094E28093732A9093A1
S1132070742A87E090E08093752A9093762A81E011
S113208008958076803271F580916C2A803219F03F
S1132090823251F51AC08091712A9091722A079761
S11320A029F58AE89FE08093772A9093782A8AE03A
S11320B094E28093732A9093742A87E090E080934B
S11320C0752A9093762A81E0089580916D2A817013
S11320D00E945A2181E0089580E0089580E00895E7
S11320E080E0089580E0089580E0089580E00895F8
S11320F02091F8233091F923E091FA23F0E0EE0FD8
S1132100FF1FE95EFB4D81E04081518124173507B3
S113211008F080E008950F931F93CF93DF934FB798
S1132120F8945091FA238091F723811110C02091E3
S1132130F8233091F923C52FD0E0FE01EE0FFF1FE5
S1132140E95EFB4D808191812817390718F44FBF50
S113215080E022C01092F8231092F92381E05111FB
S113216080E08093FA2381E08093F7234FBF80E0DF
S1132170BFDF80E491E0C89FA001C99F500DD89FA4
S1132180500D11244456594D01ED10E120E431E085
S113219061E082E00E94C71EDF91CF911F910F91F1
S11321A008950F931F93942F811127C08091FA23D0
S11321B0E1E08111E0E061157105A1F4F0E020E4B3
S11321C031E0E29FB001E39F700DF29F700D112486
S11321D0AB014456594D01ED10E161E0892F0E9495
S11321E0C71E0BC0F0E0EE0FFF1FE95EFB4D6083DE
S11321F071831092F72380E08EDF1F910F91089571
S11322001092FC231092F5231092F4231092F623DB
S11322101092112410921224109213241092142458
S1132220109215241092162480E075DE1092F72384
S11322301092FA2310921724109218241092F82363
S11322401092F92380E067DF882361F08091FC23FA
S11322508F5F8093FC238091FC23813029F4809349
S1132260FB23089580E0089581E0089580E040CF45
S1132270FF920F931F93CF93DF93FF24F3948091E6
S11322801024893009F0F12C00E010E0C0E4D1E022
S11322902091F8233091F9234091FA2350E0FA0178
S11322A0EE0FFF1FE95EFB4D608171812617370732
S11322B038F08091FB238111EBCF00E010E01BC0CC
S11322C04C9FF0014D9FF00D5C9FF00D1124E20F27
S11322D0F31FE456F94D8081082B2F5F3F4F209365
S11322E0F8233093F92380E016DFFF2021F0102F2C
S11322F00027F12CCDCF802F912FDF91CF911F910B
S11323000F91FF90089580E0B3CFE091F623F0E0C1
S1132310EE0FFF1FEF5EFB4D808191818034914071
S113232019F58091F423811110C08FB7F89490911E
S1132330F523911109C091E09093F4232091F623A1
S1132340211190E09093F6238FBFE091F623F0E003
S1132350EE0FFF1FEF5EFB4D81E0208131812034C1
S1132360314019F480E0089581E00895FF920F93BD
S11323701F93CF93DF93EB01FF24F39480911024F8
S1132380893009F0F12C00E411E080E0BEDF811116
S113239007C08091FB238111F8CF20E030E025C0F5
S11323A04FB7F8942091F62330E0F901EE0FFF1FA8
S11323B0EF5EFB4D80819181209FD001219FB00D64
S11323C0309FB00D1124A80FB91FA45EBB4DCC9350
S11323D00196808391834FBFFF2029F0CD2FDD0F1D
S11323E0DD0BF12CD2CF21E030E0822F932FDF914F
S11323F0CF911F910F91FF900895BC0180E0B6CF5B
S1132400E0911F29F09120290190F081E02D228193
S113241033812E0F3F1F822F932F08951F93CF9345
S1132420DF93EC01162FECDF2881FE01E20FF11D92
S1132430E817F907A0F421812430A1F0211306C084
S113244016C02181243089F0211789F02081E20F00
S1132450F11DE817F907A8F3E0E0F0E008C0E0E0B8
S1132460F0E005C0E0E0F0E002C0E0E0F0E08E2F34
S11324709F2FDF91CF911F9108950F931F93CF93B7
S1132480DF93182F062F80911E29882369F1E0918C
S11324901F29F0912029C081D1818C81181730F532
S11324A0C0931C29D0931D29ABDF9C01C817D90701
S11324B0F8F49981943061F49A81911309C08B8165
S11324C0801306C0C0931C29D0931D2981E011C03C
S11324D09881C90FD11DC217D30758F3C0931C2983
S11324E0D0931D2980E005C080E003C080E001C0D6
S11324F080E0DF91CF911F910F91089580916D2A13
S11325008F770C94651E1F93CF93DF93182FB5DF3D
S1132510882349F1C0911C29D0911D2965E0CE0181
S11325207DDFEC01009749F04C815D816B818A81EC
S11325300E947E1E8111F2CF17C0A0911F29B09175
S11325402029812F90E0880F991F1296ED91FC911C
S11325501397E80FF91F0190F081E02D0190F081AD
S1132560E02D199501C080E0DF91CF911F9108956E
S11325700F931F93CF93DF93C82F60E07EDF8823F0
S113258089F1A0911F29B0912029EC2FF0E0EE0FE2
S1132590FF1F12962D913C911397E20FF31F0081B8
S11325A01181D8011696ED91FC9117971995682F12
S11325B08C2F63DF8823C1F0C0911C29D0911D2981
S11325C065E0CE012BDFEC01009721F08A810E94A7
S11325D0751FF6CFD8011296ED91FC9113971995BA
S11325E081E003C080E001C080E0DF91CF911F91C2
S11325F00F9108950C94CF1D0895CF9380911E29B7
S11326008823C1F0E0911F29F09120290190F081E5
S1132610E02D8481882371F0C0E08C2FA9DFCF5F87
S1132620E0911F29F09120290190F081E02D84810F
S1132630C81798F310921E2981E090E08093212915
S113264090932229CF910895CF9380911E298823B6
S113265041F1E0911F29F0912029A081B1811496C4
S11326608C918823F1F0C0E08C2F90E0880F991FA3
S11326700280F381E02DE80FF91F0190F081E02D35
S11326800084F185E02D309709F01995CF5FE09132
S11326901F29F0912029A081B18114968C91C8172B
S11326A018F3CF910895FF920F931F93CF93DF9365
S11326B01092752A1092762A1092772A1092782A0C
S11326C01092792A10927A2A20916B2A22230CF0F4
S11326D043C28091712A9091722A009709F041C2F5
S11326E035C22F7109F0A3C030916C2A363089F0BD
S11326F0383009F490C031119AC0029741F462E075
S113270070E081E299E20E94751E81E0E3C180E0FD
S1132710E1C120916D2A30916E2A832F992782304E
S1132720910581F08330910579F1019709F06BC02F
S11327308091222090912320DC016C9170E00E9412
S1132740751E50C0E0912220F09123208189281722
S113275008F05BC0C9019927880F991F880F991F3A
S1132760E0912420F0912520E80FF91F80819181C8
S1132770FC01628173810E94751EE091732AF091BD
S1132780742A82E081832EC033272130310581F001
S113279040F02230310509F4E9C123303105B9F59F
S11327A0E9C164E070E084E890E20E94751E1AC0FA
S11327B088E890E229E0382FE4EAF0E2A82FB92F64
S11327C08D918083118232968A2F831B8217C0F3E6
S11327D0220F622F6E5F6093A22070E082EA90E283
S11327E00E94751E8091712A9091722A2091752AF7
S11327F03091762A8217930760F48093752A909318
S1132800762A81E067C180E065C180E063C180E031
S113281061C181E05FC1019741F461E070E08EE144
S113282099E20E94751E81E055C180E053C12130B8
S113283009F041C030916C2A3A30E9F5019799F5D5
S113284080911E29882389F1C0916F2AD091702A22
S11328508C2F00911F2910912029D801ED91FC9112
S11328609481C91720F560E008DE882311F1CE01B8
S11328709927880F991FD8011296ED91FC9113970F
S1132880E80FF91F0190F081E02D86819781FC010A
S113289019958093232961E070E083E299E20E9414
S11328A0751E81E017C180E015C180E013C180E08E
S11328B011C180E00FC1223009F00EC120916C2AB1
S11328C0211103C1029781F480916F2A0E94A71EEF
S11328D0809324291092252962E070E084E299E231
S11328E00E94751E81E0F6C080E0F4C02F7109F0EB
S11328F093C080916C2A833009F4E9C020F48130BC
S113290009F08AC016C0853021F0893009F084C0EE
S11329102BC08091712A9091722A892B41F48EE701
S113292092E18093772A9093782A81E0D3C080E063
S1132930D1C08091712A9091722A892B89F4809157
S11329406D2A90916E2A019769F4809121299091C2
S113295022298D7F809321299093222981E0BAC076
S113296080E0B8C080E0B6C08091712A9091722A4C
S1132970892B09F045C00E94681E882309F442C0CF
S113298020916D2A30916E2A3327E0912220F09114
S11329902320818990E082179307B0F12EDE809185
S11329A06D2A90916E2A80931E29882379F19927A4
S11329B00197880F991F880F991FE0912420F091A7
S11329C02520E80FF91FE0931F29F0932029019097
S11329D0F081E02D84818823D9F0C0E060E08C2F61
S11329E092DD8823B9F0CF5FE0911F29F09120296F
S11329F00190F081E02D8481C81780F381E06AC0E2
S1132A0080E068C080E066C080E064C081E062C0AD
S1132A1081E060C080E05EC0213001F580916C2AC5
S1132A208B30E1F48091712A9091722A892B81F480
S1132A3080911E29882371F0C0916F2AD0916D2A4C
S1132A408C2F96DD882341F06D2F8C2F5CDD42C0E6
S1132A5080E040C080E03EC080E03CC02230E1F530
S1132A6080916C2A813019F0833099F515C08091DA
S1132A70712A9091722A892B59F480916D2A909130
S1132A806E2A892B39F480916F2A0E94AE1E22C0CF
S1132A9080E020C080E01EC08091712A9091722A4B
S1132AA0892B79F480916D2A90916E2A892B59F49F
S1132AB0CFE6DAE288810E943E1F88810E94651F6A
S1132AC009C080E007C080E005C080E003C080E06A
S1132AD001C080E081113CC080916B2A8F718130EC
S1132AE0C9F580911E29882349F100916F2A10911C
S1132AF0702AF02EC0911F29D0912029E881F981F4
S1132B0084810817E8F460E0802FB7DC8823D1F0D3
S1132B1011279801220F331FEA81FB81E20FF31F73
S1132B20C081D181EE81FF811995682F8F2DA5DC9D
S1132B30882351F0EC81FD81199520C080E01EC0EE
S1132B4080E01CC080E01AC080E018C080E016C09D
S1132B5081E014C080E012C0822F807609F0BCCFDF
S1132B60C5CE322F307609F0B7CFBBCD2FE082E946
S1132B7090E221CE2CE08BE79AE21DCEDF91CF913B
S1132B801F910F91FF90089543E050E061E080EEC3
S1132B9097E007D943E050E062E080EE97E001D986
S1132BA043E050E060E180E696E0FBD841E050E489
S1132BB060E280E696E0F5D840E05BE160E280E820
S1132BC096E0EFD840E05BE162E080EA96E0E9D885
S1132BD040E05BE164E080EA96E0E3D843E050E063
S1132BE062E080E696E0DDD843E050E068E080E60D
S1132BF096E0D7D843E050E068E080EA96E0D1D888
S1132C0043E050E061E080E696E0CBD843E050E05A
S1132C1068E080E096E0C5D841E050E060E180E8FB
S1132C2096E0BFD843E050E062E080E696E0B9D891
S1132C3043E050E068E080E696E0B3D840E050E03E
S1132C4064E080E696E0ADD843E050E060E180EADD
S1132C5096E0A7C82FB7F894811532E0930729F4BA
S1132C606093672A7093682A07C08034924021F4E5
S1132C706093652A7093662A2FBF0895811522E018
S1132C80920761F480912629982F9F5F90932629BB
S1132C90811113C062E081E00C94C70A8034924031
S1132CA061F480912729982F9F5F909327298111A0
S1132CB004C062E082E00C94C70A0895811522E002
S1132CC0920759F4809126298150809326298111F5
S1132CD012C062E081E00C94D30A8034924059F42B
S1132CE080912729815080932729811104C062E0B3
S1132CF082E00C94D30A08951F93CF93DF93EC01E1
S1132D001FB7F894BBDF8881816088831FBF8FB7AA
S1132D10F894E0E6FAE290819F5F90838FBFDF91A1
S1132D20CF911F9108951F920F920FB60F92112405
S1132D300BB60F922F933F934F935F936F937F93B1
S1132D408F939F93AF93BF93EF93FF93E0E0F2E0F1
S1132D5044A155A1E091672AF091682A61E080E0DE
S1132D6092E01995FF91EF91BF91AF919F918F914F
S1132D707F916F915F914F913F912F910F900BBE77
S1132D800F900FBE0F901F9018951F920F920FB6C1
S1132D900F9211240BB60F922F933F934F935F938F
S1132DA06F937F938F939F93AF93BF93EF93FF930F
S1132DB0E0E0F2E044A555A5E091672AF091682A85
S1132DC062E080E092E01995FF91EF91BF91AF919D
S1132DD09F918F917F916F915F914F913F912F912F
S1132DE00F900BBE0F900FBE0F901F9018951F925F
S1132DF00F920FB60F9211240BB60F922F933F939D
S1132E004F935F936F937F938F939F93AF93BF93EE
S1132E10EF93FF93E0E0F2E044A955A9E091672A1B
S1132E20F091682A64E080E092E01995FF91EF91B7
S1132E30BF91AF919F918F917F916F915F914F91CE
S1132E403F912F910F900BBE0F900FBE0F901F90CC
S1132E5018951F920F920FB60F9211240BB60F9272
S1132E602F933F934F935F936F937F938F939F938E
S1132E70AF93BF93EF93FF93E0E0F2E044AD55AD21
S1132E80E091672AF091682A68E080E092E0199561
S1132E90FF91EF91BF91AF919F918F917F916F912E
S1132EA05F914F913F912F910F900BBE0F900FBEEA
S1132EB00F901F9018951F920F920FB60F92112426
S1132EC00BB60F922F933F934F935F936F937F9320
S1132ED08F939F93AF93BF93EF93FF93E0E4F2E05C
S1132EE044A155A1E091652AF091662A61E080E44D
S1132EF092E01995FF91EF91BF91AF919F918F91BE
S1132F007F916F915F914F913F912F910F900BBEE5
S1132F100F900FBE0F901F9018951F920F920FB62F
S1132F200F9211240BB60F922F933F934F935F93FD
S1132F306F937F938F939F93AF93BF93EF93FF937D
S1132F40E0E4F2E044A555A5E091652AF091662AF3
S1132F5062E080E492E01995FF91EF91BF91AF9107
S1132F609F918F917F916F915F914F913F912F919D
S1132F700F900BBE0F900FBE0F901F9018951F92CD
S1132F800F920FB60F9211240BB60F922F933F930B
S1132F904F935F936F937F938F939F93AF93BF935D
S1132FA0EF93FF93E0E4F2E044A955A9E091652A88
S1132FB0F091662A64E080E492E01995FF91EF9124
S1132FC0BF91AF919F918F917F916F915F914F913D
S1132FD03F912F910F900BBE0F900FBE0F901F903B
S1132FE018951F920F920FB60F9211240BB60F92E1
S1132FF02F933F934F935F936F937F938F939F93FD
S1133000AF93BF93EF93FF93E0E4F2E044AD55AD8B
S1133010E091652AF091662A68E080E492E01995CF
S1133020FF91EF91BF91AF919F918F917F916F919C
S11330305F914F913F912F910F900BBE0F900FBE58
S11330400F901F901895DF92EF92FF920F931F93AA
S1133050CF93DF93EC018B01C11582E0D80769F4AB
S113306061E270E082E0F6D0D82E60E270E082E0A7
S1133070F1D0FD2CE12CE82A11C0C034E2E0DE07D7
S113308059F565E270E082E0E5D0F82E64E270E084
S113309082E0E0D03F2D20E07901E82ADFB6F89401
S11330A0CE01ECDD288182E08883EC86FD86F80180
S11330B085819681888F998F82818A8384818C838C
S11330C083818B8381818983822F81709081892B75
S11330D08883CE01F3DDDFBEDF91CF911F910F9185
S11330E0FF90EF90DF900895FF920F931F93CF937B
S11330F0DF93EC018B01FFB6F894C0DD8881807CFE
S1133100F8018083888D998D858396838A81828353
S11331108C8184838B81838389818183CE01CEDDFD
S1133120FFBEDF91CF911F910F91FF900895CF9231
S1133130DF92EF92FF920F931F93CF93DF937C0163
S1133140D62E8A01862F837029F4962F969596950C
S113315082E002C0962F80E090FF8F5FE701A09687
S113316098E0899FC00DD11D1124CFB6F894C701F2
S113317085DDF8018081888382818A8381818983C6
S1133180D0FE02C083818E83C70198DDCFBEDF915C
S1133190CF911F910F91FF90EF90DF90CF90089502
S11331A0CF92DF92EF92FF920F931F93CF93DF930F
S11331B07C01D62EEA01862F837029F4962F9695EA
S11331C0969582E002C0962F80E090FF8F5F870182
S11331D0005E1F4F98E0899F000D111D1124CFB68A
S11331E0F894C7014BDDF8018081888382818A834A
S11331F081818983D0FE02C086818B83C7015EDD15
S1133200CFBEDF91CF911F910F91FF90EF90DF9090
S1133210CF9008951BBEFC0128ED24BF6083089560
S11332201F93CF93DF93E0ECF1E027852223ECF3A7
S1133230C0ECD1E01A82998388831A8586E08A8754
S113324061E08BEC91E0E6DF1A878C81DF91CF910E
S11332501F9108954091CA01E62FF72F8093CA0168
S113326084914093CA01089510922004E0E2F4E0AE
S1133270218120FDFDCFE0E2F4E064837583868341
S1133280978381E0808308950F931F9380E1E0E2A8
S1133290F4E08183818184FDFDCFE0E2F4E00481E8
S11332A0158126813781602F712F822F932F1F91D3
S11332B00F910895CF93DF93D82FE0EFF0E0C18111
S11332C064E080E00E94C70ACC237CF0C0FF04C005
S11332D0DD2369F082E010C0C1FD0BC082E0809361
S11332E0F000C2FF08C085E007C081E005C083E0AC
S11332F003C084E001C080E0DF91CF910895CF93B3
S1133300DF9364E080E00E94C70AC0EFD0E08881C8
S11333108260888361E080EF90E07CDF8881846054
S1133320888380E090E00196803223E09207D9F709
S1133330E0EFF0E0808188608083818183FFFDCFAE
S113334010922004E0E2F4E0818180FDFDCFE0E210
S1133350F4E08FEF9FEFDC0180879187A287B3872A
S11333601482158216821782818180FDFDCFE0E2EE
S1133370F4E0128281E08083818180FDFDCFDF91C2
S1133380CF9108951F920F920FB60F9211240BB68E
S11333900F922F933F934F935F936F937F938F93EA
S11333A09F93AF93BF93CF93DF93EF93FF93E0E2A9
S11333B0F4E01282C091692AD0916A2A209719F008
S11333C063DFFE011995FF91EF91DF91CF91BF91DA
S11333D0AF919F918F917F916F915F914F913F91A9
S11333E02F910F900BBE0F900FBE0F901F9018954A
S11333F0CF92DF92EF92FF920F931F93CF93DF93BD
S1133400EC01D901C801B695A795979587954817FA
S113341059076A077B0778F46A017B01CC0CDD1C31
S1133420EE1CFF1CC901B801A70196010E942529C1
S11334302150310902C020E030E0832F99278F709A
S113344099278F832E83DF91CF911F910F91FF9046
S1133450EF90DF90CF9008950F931F93CF93DF9356
S1133460EC018B01C03A88E0D80729F460E183E0DD
S11334700E94C70A12C0C03BE8E0DE0729F460E2FC
S113348083E00E94C70A12C0C03AF9E0DF0729F4BA
S113349060E184E00E94C70A12C0C03B89E0D807FB
S11334A029F460E284E00E94C70A11C0C03AEAE04D
S11334B0DE0729F460E185E00E94C70A08C0C03A2B
S11334C0FBE0DF0721F460E186E00E94C70A8D81FA
S11334D0806C8D83F8018481813011F0833021F474
S11334E08D8182608D8303C08D818D7F8D83F801F2
S11334F084818250823008F047C0C03AF8E0DF0788
S113350041F443E050E462E080E496E00E94D10E8E
S113351018C0C03B88E0D80741F443E050E460E2BF
S113352080E496E00E94D10E18C0C03AE9E0DE07BC
S113353041F443E050E462E080E696E00E94D10E5C
S113354018C0C03BF9E0DF0741F443E050E460E217
S113355080E696E00E94D10E17C0C03A8AE0D807F0
S113356041F443E050E462E080E896E00E94D10E2A
S11335700BC0C03AEBE0DE0739F443E050E462E00C
S113358080EA96E00E94D10EF80140815181628167
S1133590738100E016E32EE631E0CE0129DF8C8151
S11335A088608C838C8180618C83DF91CF911F91A3
S11335B00F910895811118C090918C29992389F055
S11335C09FB7F894E0E6FAE22081215020839FBF60
S11335D008C09FB7F894E0E6FAE220812F5F2083C9
S11335E09FBF80938C29089590918C29992389F306
S11335F0F8CF282F2F7030E0220F331F992787FD33
S113360090958827990F881F9927280F391F220F13
S1133610331F220F331F220F331F2C5C364D822F92
S1133620932F0895CF93DF936370613011F028F0E6
S113363002C0D0EC03C0D0E801C0D0E4403851054A
S1133640E1F050F440325105A1F04034510599F0B5
S11336504031510561F419C0411592E0590789F0D0
S11336604F3F93E0590779F04115514041F0C0E0D4
S11336700DC0C2E00BC0C3E009C0C4E007C0C5E090
S113368005C0C6E003C0C7E001C0C1E0B2DFFC0171
S1133690118286E08083CD2BC183DF91CF91089581
S11336A00F93E8ECF4E080818F7D808380818F7DAF
S11336B08083ECE3F9E202E0059310923E29109234
S11336C03F2900E2069300E40693E4E3F9E200E212
S11336D0069300E406931092772A1092782A1092A7
S11336E0792A10927A2A1092752A1092762A1092C8
S11336F04D2A0F9108950F9385E080934D2AEDE3B1
S1133700F9E204E00593E5E3F9E204E005930F919F
S113371008950F9383E080934D2A10923E291092CE
S11337203F29ECE3F9E202E006930F9108950F9329
S113373084E080934D2AE4E3F9E202E006930F91DA
S11337400895E091772AF091782A309709F0199535
S113375008950F93CF93DF9380914D2A833019F40A
S1133760F0DF9EDF5AC08091502A9091512AC09177
S1133770752AD091762AC81BD90B41F520914E2A7F
S113378030914F2A820F931F80934E2A90934F2A91
S11337902091712A3091722A8217930721F0809127
S11337A0522A882311F0C3DF38C0E091792AF091BE
S11337B07A2A309799F01995882381F01092502A2B
S11337C01092512AC091752AD091762AC034D1051D
S11337D028F01092522AC0E4D0E003C081E0809324
S11337E0522AC0933E29D0933F298091502A909128
S11337F0512A2091732A3091742A280F391F20935B
S1133800402930934129C80FD91FC093502AD0931F
S1133810512AECE3F9E202E00693DF91CF910F9194
S11338200895FC01818187708430A9F030F48230DE
S113383061F070F4813031F41AC0863091F070F088
S1133840873091F028E030E014C020E230E011C06D
S113385020E430E00EC020E830E00BC020E031E08E
S113386008C020E032E005C02FEF33E002C020E1C1
S113387030E0822F932F0895282F2F7030E0220FED
S1133880331F992787FD90958827990F881F9927BB
S1133890280F391F22503109C901880F991F880F39
S11338A0991F880F991F280F391F2859364D822FC9
S11338B0932F08950F938091CC0480FF64C081E01E
S11338C08093CC04E4E3F9E200E80693ECE3F9E244
S11338D000E806938093CA04E4E3F9E200E1069366
S11338E080914D2A882329F08350823008F429DFFF
S11338F0D7DE8091362990913729089709F045C081
S113390088E0EDE0FAE2ABE6BAE201900D928A9526
S1133910E1F7E8ECF4E0808180628083808180625A
S113392080830E945313811103C0E5DE81E02EC021
S113393080916B2A882374F410924E2A10924F2A95
S11339401092502A1092512A82E080934D2A01DF6E
S113395081E01CC08091712A9091722A892B19F4FC
S1133960D8DE81E013C010924E2A10924F2A109292
S1133970502A1092512A81E080934D2AE4E3F9E21F
S113398002E0069303C080E001C081E00F91089536
S1133990BF92CF92DF92EF92FF920F931F93CF9338
S11339A0DF93B82E69DFEC018B2D23DE7C0139DF38
S11339B06C01BB200CF05FC0D70116962D913C9191
S11339C017978D819E81280F391F2D833E838B810C
S11339D09C812817390709F43CC0FC01E21BF30B56
S11339E09F012115F4E03F0740F02FEF33E0C901B8
S11339F0B6010E941129281B390B888181FF0CC054
S1133A00C901B6010E94112941E050E0892B11F04F
S1133A1040E050E0CA0102C080E090E0988180FB61
S1133A2091F99883D70116961D921C9217971296B6
S1133A302D933C93139729813A818D819E81820F26
S1133A40931F14968D939C931597F70102E00693A8
S1133A509CC0888181FF8BC08D7F8883D701169697
S1133A601D921C92179712961D921C921397F701A0
S1133A7002E006938AC0D70112960D911C91139708
S1133A80888182FF19C029813A818D819E81280F06
S1133A90391F8B819C81B6010E941129B0E4BB9E21
S1133AA0F0011124E35BF64D482F592F6E2F7F2F21
S1133AB0822F932F0E94CE2A2D813E81200F311F09
S1133AC02D833E83EB81FC81E217F30710F4ED8331
S1133AD0FE83D70116962D913C9117972017310735
S1133AE009F045C08D819E81E817F90709F43FC0AC
S1133AF0E81BF90BE115B4E0FB0748F0EFEFF3E046
S1133B00CF01B6010E941129E81BF90B06C0CF01B1
S1133B10B6010E941129E81BF90BD70112961D92D8
S1133B201C921397EC15FD0578F4888184608883D2
S1133B30B0E4BB9EC0011124835B964DF7018483DE
S1133B409583C682D7820FC029813A818D819E8157
S1133B50820F931FD70114968D939C9315971696F5
S1133B60ED93FC931797F70102E006930EC088814A
S1133B7080FF0BC08E7F8883EF81F885309729F012
S1133B806D817E814B2D80E01995DF91CF911F913E
S1133B900F91FF90EF90DF90CF90BF900895CF9357
S1133BA0DF93C0E6D0E0188280E30E94DE0AE0ECF6
S1133BB0F4E080818064808381E08883CFB7F894C7
S1133BC01092352910923D291092452910924D29C1
S1133BD01092552910925D29E8E6F9E280818E7FE2
S1133BE08083E1E7F9E280818E7F8083EAE7F9E26E
S1133BF080818E7F8083E3E8F9E280818E7F8083F9
S1133C006AE170E082E026DB8F3F19F08093FA04CA
S1133C1003C08FE18093FA046BE170E082E01ADB69
S1133C208F3F19F08093FB0403C08FE18093FB0462
S1133C30E0ECF4E08081826080838081806880830E
S1133C4080818061808384E399E286839783808185
S1133C50806280838FEF8093C504E8ECF4E0808178
S1133C608160808310928C298FB7F894E4E6FAE29D
S1133C7090819F5F90838FBFCFBFDF91CF910895D5
S1133C80CF93CFB7F89481E095DCEAECF4E080E4DC
S1133C90808380E28083E1ECF4E080818160808332
S1133CA0A9ECB4E08C9182608C93E8ECF4E0808120
S1133CB0806480838C9181608C9380818068808310
S1133CC0CFBFCF91089580E008958093C3040895F1
S1133CD08091C30408952091642930916529822F2D
S1133CE0932F089580E090E008958093732A909331
S1133CF0742A6093752A7093762A0895EF92FF923E
S1133D000F931F93CF93DF93F82EE62E8A0171DC75
S1133D10EC018981807C89F4A8016E2D8F2D82DCD1
S1133D208981807C803C21F489818770873039F0D7
S1133D3089818062898381E003C080E001C081E0E1
S1133D40DF91CF911F910F91FF90EF90089551DC77
S1133D50FC01818182FB882780F90895CF93C82FC5
S1133D6048DCFC01818182FF0FC081818B7F8183CC
S1133D708C2F82DDFC01808180FF06C08E7F8083D2
S1133D800780F085E02D199581E0CF9108958F92F9
S1133D909F92AF92BF92CF92DF92EF92FF920F93D6
S1133DA01F93CF93DF93982E862E5A01690164DD09
S1133DB07C01892D1EDCEC018981807C09F44EC0D4
S1133DC08981807C803C19F0898182FD49C08FB74C
S1133DD0F894F701908190FF03C08FBF80E041C049
S1133DE0F7019081916090838FBFA182B282C382D8
S1133DF0D4821582168207831087811008C021E0BF
S1133E0030E0C114D10429F020E030E002C021E008
S1133E1030E0F701808120FB81F98B7F808399203A
S1133E201CF41E821F8216C08981807C803C71F440
S1133E30CE01F7DCBC01C6010E941129892B31F0A7
S1133E40F70180818E7F808380E00BC01A821B8201
S1133E501E821F82892D9CDD81E003C080E001C0A9
S1133E6080E0DF91CF911F910F91FF90EF90DF9051
S1133E70CF90BF90AF909F908F9008950F931F9312
S1133E80CF93DF93182FB5DBEC01812FF5DCDC0138
S1133E90FE0102E005938C9180FF12C08E7F8C930B
S1133EA01796ED91FC911897309751F011231CF45B
S1133EB06E817F8102C06A817B81412F81E01995E7
S1133EC0DF91CF911F910F9108950F93CF93C82F36
S1133ED090DBFC0181818460818301E006938C2F57
S1133EE0CDDF81E0CF910F910895CF93C82FC6DF26
S1133EF08C2F7FDBFC011182CF9108951F920F92CA
S1133F000FB60F9211240BB60F920F932F933F937A
S1133F104F935F936F937F938F939F93AF93BF93CD
S1133F20EF93FF938091CB04882334F480E880934B
S1133F30CA040E9424137EC08091CB0482FF20C057
S1133F4084E08093CA0480913C2986FF73C08091E9
S1133F50CC0481FD6FC0AEDC81116CC080914D2A10
S1133F60813011F4D6DB66C0843009F063C0EDE320
S1133F70F9E204E00593E5E3F9E204E005935AC0AD
S1133F808091CB0481FF51C082E08093CA04809168
S1133F90342986FF4FC08091CC0481FD4BC08ADC5C
S1133FA0811148C080914D2A823011F4C0DB42C097
S1133FB0833009F03FC0EDE3F9E204E00593E5E363
S1133FC0F9E204E0059336C080E18093CA0481E0FD
S1133FD055DF81E853DF0E94FD121092C30440E4D0
S1133FE050E060E080E01EDB40E450E060E080E808
S1133FF019DB8DE09AE2809338299093392950DBBC
S113400019C08091CB0486FF06C080E48093CA0463
S113401080E0D0DA0FC08091CB0485FF0BC080E232
S11340208093CA0481E0C6DA05C08091CB0484FD84
S1134030CBCFE7CFFF91EF91BF91AF919F918F913C
S11340407F916F915F914F913F912F910F910F90BD
S11340500BBE0F900FBE0F901F9018951F920F92DA
S11340600FB60F9211240BB60F920F931F932F9339
S11340703F934F935F936F937F938F939F93AF93EC
S1134080BF93CF93DF93EF93FF938091CC0481FD93
S113409003C010DC8111ABC082E08093CC0480911A
S11340A0C5048195880FE4E3F9E2E81BF109208156
S11340B0318124533942369527953695279536957F
S11340C02795822F869520FF02C0C0E801C0C0E07A
S11340D0C80F8C2F8EDAFC01808185FF88C000E236
S11340E00693C1117EC080914D2A843019F429DBD6
S11340F0D7DA7DC0C0913629D09137298091752AAD
S11341009091762A0091502A1091512A98012C0FEF
S11341103D1F8217930718F4EC01C01BD10B2091AB
S1134120732A3091742A200F311F8DE09AE24C2FAC
S11341305D2F682F792F822F932F0E94CE2A0C0F88
S11341401D1F0093502A1093512AC034D10569F4DD
S113415080914E2A90914F2A800F911F2091712AAD
S11341603091722A8217930788F00093752A10936E
S1134170762AE091792AF0917A2A309729F01995D4
S1134180811102C0B8DA33C0C4DA31C08091752A13
S11341909091762A08171907F9F4E091792AF09199
S11341A07A2A309711F4A7DA22C01995811102C036
S11341B0A2DA1DC020914E2A30914F2A8091502AB4
S11341C09091512A820F931F80934E2A90934F2AE5
S11341D01092502A1092512AE4E3F9E202E0069385
S11341E006C0C03811F4B5DA02C08C2FD1DBFF91C0
S11341F0EF91DF91CF91BF91AF919F918F917F917B
S11342006F915F914F913F912F911F910F910F905B
S11342100BBE0F900FBE0F901F901895EF92FF9258
S11342200F931F93CF93DF93CDB7DEB76097CDBFC6
S1134230DEBF80E1E4E2F1E2DE01119601900D922D
S11342408A95E1F70F2EFCE7EF2EFAE2FF2EF02D10
S113425008E010E0B80181E00E942A19F7013197C3
S1134260982F92959F70A1E0B0E0AC0FBD1FA90FED
S1134270B11D9C9190838F70E1E0F0E0EC0FFD1F85
S1134280E80FF11D8081F70180830F5F1F4FF2E07B
S1134290EF0EF11C0E301105E9F60E94FA12F0DC63
S11342A06096CDBFDEBFDF91CF911F910F91FF903C
S11342B0EF9008958093532A08958091532A811191
S11342C01092532A0E9436118823F1F00E94831120
S11342D09091542A913049F48B3521F492E09093D3
S11342E0542A08951092542A08C0923031F410923E
S11342F0542A813459F0823459F08B3151F481E0DD
S11343008093542A80E0089580E0089586E2089519
S113431088E20895CF93DF93EC01E0E8F6E080852E
S113432085FD0CC08091552A80FD08C08160809372
S1134330552A8DE0888381E089837CC0E0E8F6E03B
S1134340808585FF0CC08091552A80FF08C08E7F30
S11343508093552A8DE0888382E089836BC0E0EAEC
S1134360F6E0808581FD0CC08091552A81FD08C04E
S113437082608093552A86E2888381E089835AC0CB
S1134380E0EAF6E0808581FF0CC08091552A81FF28
S113439008C08D7F8093552A86E2888382E08983D2
S11343A049C0E0EAF6E0808582FD0CC08091552A80
S11343B082FD08C084608093552A88E2888381E066
S11343C0898338C0E0EAF6E0808582FF0CC08091E2
S11343D0552A82FF08C08B7F8093552A88E2888300
S11343E082E0898327C051D3882361F08091552AC4
S11343F083FD08C088608093552A88E0888381E023
S1134400898318C042D381110CC08091552A83FF3F
S113441008C0877F8093552A88E0888382E0898357
S113442009C04BDF882321F0888382E0898302C09E
S113443018821982DF91CF910895613061F58091DE
S1134440592A8F5F8093592A813039F44093562A30
S11344505093572A1092582A0CC08091562A909152
S1134460572A480F591F569547954093562A5093FB
S1134470572A8091592A843031F41092592A81E0C4
S11344808093582A08958FB7F894E0E4F2E090817D
S1134490946090838FBF0895CF93DF93EC0188815C
S11344A0882349F02196992787FD90950E94FD1154
S11344B089918111F8CFDF91CF9108958091562A87
S11344C09091572A08958F929F92AF92BF92CF9264
S11344D0DF92EF92FF920F931F93CF93DF938C01A0
S11344E06A017B01E9012930310564F42F5F3F4FF4
S11344F0EADF20E030E0A90119D3862E972EA82EFA
S1134500B92E04C0812C912CA12CB12CBE0188277A
S113451077FD8095982F09D49B01AC01C701B601A2
S1134520F7D4CC0FDD1FCC0FDD1FC00FD11F2881A6
S113453039814A815B8189D4282D392D4A2D5B2DFF
S1134540F5D2DF91CF911F910F91FF90EF90DF9003
S1134550CF90BF90AF909F908F900895CF92DF92AD
S1134560EF92FF926B017C0120E030E0A90169D455
S113457088231CF08EE591E202C082E891E220E0FB
S113458030E0B701A6019FDF9DD3862F972FFF90C0
S1134590EF90DF90CF90089591DFBC01882777FDDD
S11345A08095982FC2D320E030E040E859E34DD401
S11345B020E030E040E250E448D42BED39EF4EEFF8
S11345C05EE3B3D223E333E343E653E413D3C6CF2A
S11345D08FB7F8949091582A992329F01092582A69
S11345E08FBF81E008958FBF80E008950F938FB748
S11345F0F894E0E4F2E09081946090838FBF10928D
S11346008D2A86E080938B2A80E280938C2A82EC28
S113461090E280938E2A90938F2A01E020E240E872
S113462060E080E00E94AD0D00E02EE14EE761E025
S113463081E00E94D10D40E06AE08BE89AE20E949A
S1134640EB0DC6DF8823E9F3A7DF8093882A9093D4
S1134650892ABC01882777FD8095982F66D32CEE94
S113466031E548EB5EEBF1D320E030E042EA51E47F
S11346705DD22DD3262F60938A2A00E042E063E0C6
S11346808CE00E94D10D8091892A8F938091882A91
S11346908F9388E491E29F938F931F928FE08F937F
S11346A080E99AE29F938F93A8D727E030E24DE008
S11346B066E180E99AE20E94A70E8DB79EB708963C
S11346C08DBF9EBF0F910895CF93DF93CDB7DEB713
S11346D02B97CDBFDEBFBE016F5F7F4F80E492E0BA
S11346E00E947418AE01485F5F4F61E080E492E07D
S11346F00E94D0188A819B819F7890639B8396E067
S11347009D83817E8A831C82BE016F5F7F4F80E41C
S113471092E00E9423186DE172E280E492E00E942C
S11347202A1681E0888788E089878A85807F81606E
S11347308A87AE01485F5F4F61E080E492E00E94A7
S1134740971880E492E00E947C162B96CDBFDEBFC2
S1134750DF91CF910895CF93DF931F921F92CDB72E
S1134760DEB70E94530A0E94C41587E0E0EAF0E035
S113477082830E94270C3AD1A7DF80E1E0E8F6E0CB
S1134780858364E080E00E94C70AE0E2F4E081816E
S113479080FDFDCF80E00E945A19882349F00E94D1
S11347A07F19C5D06F5F7F4F8F4F9F4F0E94341981
S11347B00E94441960387E468E419D4430F460E87E
S11347C07EE68EE19DE40E94341928DD78947ED142
S11347D00DDF0F2EFBE58F2EF1E29F2EF02D689456
S11347E0EE24E6F8FF24F1F80F2EF8E4AF2EF1E200
S11347F0BF2EF02D1FE00F2EF0E9CF2EFAE2DF2EB0
S1134800F02D8FE794E8EEE181509040E040E1F72D
S113481000C000000E944419062F572E482E392E3E
S113482084E591E239DE8CE290E00E94FD1161E0C2
S113483070E08AE090E05CD5682E792E3F924F922A
S11348405F920F939F928F929F938F930CD7862D95
S1134850972D22DE862D972D02D68CE290E00E94C1
S1134860FD118FB7F894F7019081946090838FBF06
S1134870CDBFDEBFADDE8823E9F38EDE4AE050E033
S1134880612C712CB3019AD6C30106DE8DE090E051
S11348900E94FD118AE090E00E94FD1140E06AE070
S11348A08BE89AE20E94EB0D8FB7F894F7019081A0
S11348B0946090838FBF8CDE8823E9F36DDE809350
S11348C0882A9093892ABC01882777FD8095982FA0
S11348D02CD22CEE31E548EB5EEBB7D220E030E091
S11348E042EA51E423D1F3D1262F60938A2A00E0CF
S11348F042E063E08CE00E94D10D8091892A8F937D
S11349008091882A8F93BF92AF921F921F93DF9258
S1134910CF9273D627E030E24DE066E1C6010E94F3
S1134920A70ECE010196F6DCCDBFDEBF6ACF0F9392
S11349301F93CF93DF9360E170E081E00E942A1916
S1134940D82F61E170E081E00E942A19082F62E10A
S113495070E081E00E942A19C82F63E170E081E0D1
S11349600E942A1910E020E030E098011127002766
S11349703D2B082B1C2BD901C80180589E46AE4103
S1134980BD448F379149A14EB24B20F000E81EE69A
S11349902EE13DE4602F712F822F932FDF91CF9171
S11349A01F910F9108951F920F920FB60F92112429
S11349B02F933F938F939F9381E080935C2A209160
S11349C05A2A30915B2A8091DA209091DB20820F61
S11349D0931F80935A2A90935B2A9F918F913F91C2
S11349E02F910F900FBE0F901F90189580E4809325
S11349F0EA211092EB211092EC211092ED2180E833
S1134A008093EE211092EF211092F0211092F12167
S1134A1023E04AE060E080E00E947B0460E070E014
S1134A2088E993E00E948C0584E08093AD2184E1C1
S1134A308093B02195E09093B1211092AF2180939F
S1134A40AE2161E06093AC2183E08093B221E0E782
S1134A50F0E083818D7F8383E0E4F8E082E080836B
S1134A604091DA205091DB2028EE33E0429FC001D0
S1134A70439F900D529F900D112486A397A36783A3
S1134A801092C6211092C721089580915C2A882330
S1134A9051F010925C2A80915A2A90915B2A0E94CC
S1134AA0EB0490FDF8CF8091C32180958170089527
S1134AB0823031F0833031F0813031F080E008957C
S1134AC08EE108958DE208958FE00895CF93DF93EA
S1134AD084E090E00E941019982F9C5090935D2AD6
S1134AE0893120F48093F020D0E006C010925D2A32
S1134AF08CE08093F020D1E085E090E00E941019D2
S1134B00C82F843040F4D4DF80935E2AC093E12020
S1134B10D13041F402C01092E12081E080935D2AFB
S1134B2010925E2ADF91CF9108955058BB27AA278F
S1134B300ED04DC13ED130F043D120F031F49F3F2F
S1134B4011F41EF433C10EF4E095E7FB29C1E92FFB
S1134B504FD180F3BA17620773078407950718F0DB
S1134B6071F49EF567C10EF4E0950B2EBA2FA02DBB
S1134B700B01B90190010C01CA01A0011124FF2706
S1134B80591B99F0593F50F4503E68F11A16F04001
S1134B90A22F232F342F4427585FF3CF4695379500
S1134BA02795A795F0405395C9F77EF41F16BA0BC5
S1134BB0620B730B840BBAF09150A1F0FF0FBB1F73
S1134BC0661F771F881FC2F70EC0BA0F621F731FBC
S1134BD0841F48F4879577956795B795F7959E3F19
S1134BE008F0B3CF9395880F08F09927EE0F9795A7
S1134BF0879508950CD0EBC0E3D040F0DAD030F0C4
S1134C0021F45F3F19F0CCC0511115C1CFC0F0D0D1
S1134C1098F39923C9F35523B1F3951B550BBB277F
S1134C20AA2762177307840738F09F5F5F4F220F2C
S1134C30331F441FAA1FA9F333D00E2E3AF0E0E825
S1134C4030D091505040E695001CCAF729D0FE2F71
S1134C5027D0660F771F881FBB1F26173707480703
S1134C60AB07B0E809F0BB0B802DBF01FF279358B9
S1134C705F4F2AF09E3F510568F092C0DCC05F3F51
S1134C80ECF3983EDCF3869577956795B795F795A1
S1134C909F5FC9F7880F911D9695879597F9089599
S1134CA0E1E0660F771F881FBB1F62177307840735
S1134CB0BA0720F0621B730B840BBA0BEE1F88F744
S1134CC0E095089504D06894B111B5C0089598D0C2
S1134CD088F09F5790F0B92F9927B751A0F0D1F0E1
S1134CE0660F771F881F991F1AF0BA95C9F712C06B
S1134CF0B13081F09FD0B1E008959CC0672F782F28
S1134D008827B85F39F0B93FCCF3869577956795D6
S1134D10B395D9F73EF490958095709561957F4F42
S1134D208F4F9F4F0895E89409C097FB3EF49095E8
S1134D308095709561957F4F8F4F9F4F9923A9F070
S1134D40F92F96E9BB279395F695879577956795FF
S1134D50B795F111F8CFFAF4BB0F11F460FF1BC043
S1134D606F5F7F4F8F4F9F4F16C0882311F096E9D6
S1134D7011C0772321F09EE8872F762F05C0662384
S1134D8071F096E8862F70E060E02AF09A95660F3D
S1134D90771F881FDAF7880F9695879597F90895F6
S1134DA097F99F6780E870E060E008959FEF80ECDA
S1134DB0089500240A94161617061806090608957D
S1134DC000240A9412161306140605060895092EE3
S1134DD00394000C11F4882352F0BB0F40F4BF2B52
S1134DE011F460FF04C06F5F7F4F8F4F9F4F089592
S1134DF057FD9058440F551F59F05F3F71F0479588
S1134E00880F97FB991F61F09F3F79F0879508956C
S1134E10121613061406551FF2CF4695F1DF08C08B
S1134E20161617061806991FF1CF869571056105A8
S1134E3008940895E894BB2766277727CB0197F950
S1134E400895E3D008F48FEF08950BD0C0CFB1DFFD
S1134E5028F0B6DF18F0952309F0A2CFA7CF1124CC
S1134E60EACFC6DFA0F3959FD1F3950F50E0551F0D
S1134E70629FF001729FBB27F00DB11D639FAA27AB
S1134E80F00DB11DAA1F649F6627B00DA11D661FFA
S1134E90829F2227B00DA11D621F739FB00DA11D1B
S1134EA0621F839FA00D611D221F749F3327A00DD5
S1134EB0611D231F849F600D211D822F762F6A2F71
S1134EC011249F5750408AF0E1F088234AF0EE0FF6
S1134ED0FF1FBB1F661F771F881F91505040A9F703
S1134EE09E3F510570F05CCFA6CF5F3FECF3983E38
S1134EF0DCF3869577956795B795F795E7959F5F6A
S1134F00C1F7FE2B880F911D9695879597F9089503
S1134F10FA01EE0FFF1F30962105310599F1611555
S1134F20710561F48038BFE39B0749F168949038B8
S1134F30810561F08038BFEF9B0741F0992342F56A
S1134F40FF3FE1053105210511F1E8940894E79547
S1134F50D901AA2329F4AB2FBE2FF85FD0F310C0D8
S1134F60FF5F70F4A695E0F7F73950F019F0FF3AB7
S1134F7038F49F779F930CD00F9007FC90580895B6
S1134F803EF014CF60E070E080E89FE308954FE7BF
S1134F909F775F934F933F932F93C2D02F913F916D
S1134FA04F915F9152DF05C019F40EF0F9CE42CF54
S1134FB0FDCE26DFC8F39638C0F707F80F92E894C1
S1134FC02BE33AEA48EB5FE74EDF0F920F920F9222
S1134FD04DB75EB70F92E4D0ECEFF1E03AD04F91C9
S1134FE05F91EF91FF91E595EE1FFF1F49F0FE578A
S1134FF0E0684427EE0F441FFA95E1F74195550BFD
S113500056D00F9007FE4AC00895990F0008550F17
S1135010AA0BE0E8FEEF16161706E807F907C0F03A
S113502012161306E407F50798F0621B730B840B42
S1135030950B39F40A2661F0232B242B252B21F41C
S113504008950A2609F4A140A6958FEF811D811DBC
S11350500895DF93CF931F930F93FF92EF92DF9204
S11350607B018C01689405C0DA2EEF01FADEFE01A3
S1135070E894A5912591359145915591AEF3EF01B1
S113508066DDFE019701A801DA9479F7DF90EF90CD
S1135090FF900F911F91CF91DF9108959B01AC0177
S11350A060E070E080E89FE3A5CD7ACEACC0A8DED6
S11350B0E8F39923D9F3940F511DBBF39150504059
S11350C094F059F0882332F0660F771F881F9150AF
S11350D05040C1F79E3F510544F7880F911D9695A6
S11350E0879597F908955F3FACF0983E9CF0BB27F5
S11350F0869577956795B79508F4B1609395C1F750
S1135100BB0F58F711F460FFE8CF6F5F7F4F8F4FED
S11351109F4FE3CF90CE0EF076C048CE689440CE39
S11351206FDEC8F39923D1F3C6F3DF93CF931F93B4
S11351300F93FF92C92FDD2788232AF02197660F4A
S1135140771F881FDAF720E030E040E85FEB9FE349
S1135150883920F0803E30F021968F77E7DCE4E256
S1135160F2E003C0E3DCE1E5F2E073DF8B01BE01B2
S1135170EC01FB2E6F5771097595771F880B990BFE
S1135180D4DD28E132E741E35FE36BDEAF2D980124
S1135190AE01FF900F911F91CF91DF91D8DC17CE14
S11351A0FA01DC01AA0FBB1F9B01AC01BF5728F415
S11351B022273327442750781FC0B75188F4AB2FD8
S11351C00024469537952795011CA395D2F300201A
S11351D069F0220F331F441FB395DAF30DD0A5CC29
S11351E061307105A0E88A07B94630F49B01AC012F
S11351F06627772788279078309621F0208331839B
S11352004283538308959F3F31F0915020F4879552
S113521077956795B795880F911D9695879597F91A
S11352200895AA1BBB1B51E107C0AA1FBB1FA617E9
S1135230B70710F0A61BB70B881F991F5A95A9F73B
S113524080959095BC01CD010895A1E21A2EAA1B68
S1135250BB1BFD010DC0AA1FBB1FEE1FFF1FA21722
S1135260B307E407F50720F0A21BB30BE40BF50B1F
S1135270661F771F881F991F1A9469F760957095A8
S1135280809590959B01AC01BD01CF0108952F92AB
S11352903F924F925F926F927F928F929F92AF92C2
S11352A0BF92CF92DF92EF92FF920F931F93CF930F
S11352B0DF93CDB7DEB7CA1BDB0BCDBFDEBF1994BE
S11352C02A88398848885F846E847D848C849B8492
S11352D0AA84B984C884DF80EE80FD800C811B81A0
S11352E0AA81B981CE0FD11DCDBFDEBFED010895D6
S11352F00F931F93CF93DF93689F8001699F100DD5
S1135300789F100D1124C8010FD0C82FD92F2097D2
S113531029F0A80160E070E08C2F49D1CE01DF9123
S1135320CF911F910F9108950F931F93CF93DF9304
S11353308230910510F482E090E0E091A12AF0918E
S1135340A22A20E030E0C0E0D0E023C040815181B7
S113535048175907A8F04817590761F482819381C7
S1135360209719F08A839B832EC08093A12A90935F
S1135370A22A29C02115310529F04217530710F03C
S1135380A90102C0BE01DF0102811381EF019A016C
S1135390F8013097D9F62115310509F1281B390B8D
S11353A02430310590F412968D919C9113976115D8
S11353B0710521F0FB018283938304C08093A12AA9
S11353C09093A22AFD01329644C0FD01E20FF31F1F
S11353D081939193225031092D933C933AC02091AB
S11353E09F2A3091A02A232B41F42091032030914D
S11353F0042020939F2A3093A02A209101203091E9
S113540002202115310541F42DB73EB74091052006
S113541050910620241B350BE0919F2AF091A02A7D
S1135420E217F307A0F42E1B3F0B2817390778F077
S1135430AC014E5F5F4F2417350748F04E0F5F1FD6
S113544040939F2A5093A02A8193919302C0E0E055
S1135450F0E0CF01DF91CF911F910F910895EF926A
S1135460FF920F931F93CF93DF93009709F48FC09C
S1135470DC01129712961D921C921397E090A12AB8
S1135480F090A22AE114F10489F42D913C91119732
S1135490280F391F80919F2A9091A02A8217930781
S11354A089F5A0939F2AB093A02A71C0E70120E058
S11354B030E001C0EA01CA17DB0738F44A815B8196
S11354C09E0141155105B1F722C0BC01625071091A
S11354D0FB01C283D38300811181AC01400F511FB2
S11354E04C175D0761F448815981400F511F4E5F8D
S11354F05F4F408351834A815B81428353832115EB
S1135500310529F4A093A12AB093A22A40C0F9013D
S1135510A283B383E90169917991C60FD71FAC17B0
S1135520BD0779F4DC015E914E91460F571F4E5F23
S11355305F4F4083518312968D919C911397828380
S11355409383A0E0B0E002C0D7017C01F70182811F
S113555093810097C9F7C701029620813181820F98
S1135560931F20919F2A3091A02A2817390779F494
S1135570109729F41092A12A1092A22A04C012961C
S11355801D921C921397E0929F2AF092A02ADF9119
S1135590CF911F910F91FF90EF900895FB01DC01D3
S11355A002C001900D9241505040D8F70895DC019B
S11355B001C06D9341505040E0F70895FB019F01F5
S11355C0E8944230BCF04532ACF44A3029F497FBFD
S11355D01EF4909581959F4F642F772722DE805D7E
S11355E08A330CF0895D8193CB010097A9F716F4F7
S11355F05DE251931082C90166C20F931F93CF934A
S1135600DF93CDB7DEB72E97CDBFDEBF0E891F89DE
S1135610888D998D26E02C8309831A8397FF02C015
S113562080E090E801978D839E83CE014C96AC0177
S11356306A8D7B8DCE0101963ED04D815E8157FDF2
S11356400AC02F813885421753070CF49A01F801D8
S1135650E20FF31F10822E96CDBFDEBFDF91CF91F4
S11356601F910F9108950F931F93CF93DF93CDB79D
S1135670DEB72E97CDBFDEBF0E891F8986E08C83EF
S113568009831A838FEF9FE78D839E83CE014A9609
S1135690AC01688D798DCE0101960DD0EF81F8852E
S11356A0E00FF11F10822E96CDBFDEBFDF91CF91A8
S11356B01F910F9108952F923F924F925F926F9294
S11356C07F928F929F92AF92BF92CF92DF92EF928E
S11356D0FF920F931F93CF93DF93CDB7DEB72C9731
S11356E0CDBFDEBF7C016B018A01FC0116821782EB
S11356F0838181FFB9C188248394912C8C0E9D1ED3
S1135700F7019381F60193FD859193FF81916F01D8
S1135710882309F4A5C1853239F493FD859193FF5B
S113572081916F01853221F4B70190E0DCD1E8CF9B
S1135730512C312C20E02032A8F48B3261F028F473
S1135740803251F0833271F40BC08D3239F08033E2
S113575049F4216028C02260246025C0286023C049
S1135760206121C027FD27C0382F30533A3078F408
S113577026FF06C0FAE05F9E300D1124532E13C09D
S11357808AE0389E300D1124332E20620CC08E32F4
S113579021F426FD65C1206406C08C3611F420680E
S11357A002C0883641F4F60193FD859193FF8191FF
S11357B06F018111C0CF982F9554933018F09052F7
S11357C0933028F40C5F1F4FFFE3F9830DC0833639
S11357D031F0833771F0833509F05AC022C0F801E3
S11357E0808189830E5F1F4F44244394512C5401BC
S11357F014C03801F2E06F0E711CF801A080B18072
S113580026FF03C0652D70E002C06FEF7FEFC50176
S11358102C874ED12C0183012C856FE7262E222262
S113582017C03801F2E06F0E711CF801A080B1803E
S113583026FF03C0652D70E002C06FEF7FEFC50146
S11358402C872BD12C012C8550E8252E222A83016C
S113585023FC1AC005C0B70180E290E044D13A9419
S1135860832D90E048165906B0F30EC0F50127FCCD
S1135870859127FE81915F01B70190E034D1311009
S11358803A94F1E04F1A51084114510479F7E5C0F4
S1135890843611F0893639F5F80127FF07C0608195
S11358A07181828193810C5F1F4F08C06081718177
S11358B0882777FD8095982F0E5F1F4F4FE6B42EF3
S11358C0B22297FF09C090958095709561957F4F9E
S11358D08F4F9F4FF0E8BF2A2AE030E0A4012FD178
S11358E0A82EA81842C0853731F43FEEB32EB22259
S11358F02AE030E024C099EFB92EB2228F36B9F0F5
S113590020F4883509F0ACC00DC0803721F0883709
S113591009F0A6C002C020E1B22AB4FE0BC084E0A4
S1135920B82A08C024FF09C0E6E0BE2A06C028E061
S113593030E005C020E130E002C020E132E0F801AF
S1135940B7FE07C060817181828193810C5F1F4F14
S113595006C06081718180E090E00E5F1F4FA4015A
S1135960EED0A82EA818FFE7BF22B6FE0BC02B2D41
S11359702E7FA51450F4B4FE0AC0B2FC08C02B2D2F
S11359802E7E05C07A2C2B2D03C07A2C01C0752CD9
S113599024FF0DC0FE01EA0DF11D8081803311F456
S11359A0297E09C022FF06C07394739404C0822F19
S11359B0867809F0739423FD13C020FF0EC05A2C7F
S11359C0731458F4530C5718732C07C0B70180E2B2
S11359D090E02C8788D073942C857314B8F304C09A
S11359E0731410F4371801C0312C24FF11C0B7010F
S11359F080E390E02C8777D02C8522FF1CC021FF08
S1135A0003C088E590E002C088E790E0B7010CC0CD
S1135A10822F867881F021FD02C080E201C08BE2F2
S1135A2027FD8DE2B70190E05ED005C0B70180E3A9
S1135A3090E059D05A94A514C8F3AA94F401EA0D3D
S1135A40F11DB701808190E04ED0A110F6CF05C0C2
S1135A50B70180E290E047D03A943110F9CF50CEAC
S1135A60F7012681378102C02FEF3FEFC9012C9641
S1135A70CDBFDEBFDF91CF911F910F91FF90EF90CB
S1135A80DF90CF90BF90AF909F908F907F906F905A
S1135A905F904F903F902F900895FC0105906150C6
S1135AA070400110D8F7809590958E0F9F1F089530
S1135AB0FC016150704001900110D8F780959095D9
S1135AC08E0F9F1F0895DC01FC01672F71917723CE
S1135AD0E1F7329704C07C916D9370836291AE17A5
S1135AE0BF07C8F308950F931F93CF93DF938C01DF
S1135AF0EB018B8181FD03C00FEF1FEF1AC082FF02
S1135B000DC02E813F818C819D812817390764F453
S1135B10E881F9810193E883F98306C0E885F98572
S1135B20802F1995892B41F78E819F8101968E8351
S1135B309F83C801DF91CF911F910F910895FA01BE
S1135B40AA27283051F1203181F1E8946F936E7FB8
S1135B506E5F7F4F8F4F9F4FAF4FB1E03ED0B4E0A9
S1135B603CD0670F781F891F9A1FA11D680F791FEA
S1135B708A1F911DA11D6A0F711D811D911DA11DFB
S1135B8020D009F468943F912AE0269F112430190B
S1135B90305D3193DEF6CF010895462F4770405DA6
S1135BA04193B3E00FD0C9F7F6CF462F4F70405D55
S1135BB04A3318F0495D31FD4052419302D0A9F7B0
S1135BC0EACFB4E0A6959795879577956795BA95AA
S1135BD0C9F700976105710508959B01AC010A2E70
S1135BE006945795479537952795BA95C9F7620F47
S1115BF0731F841F951FA01D0895F894FFCF06
S1135BFE010000A32A2000007E020607207D00116A
S1135C0E7C0F860F880F06103E0F760F2010880F1C
S1135C1E0000722026202E202A2018200E20090291
S1135C2E4300020100C03209040000010202010017
S1135C3E0524001001042402020524060001052493
S1135C4E0103010705820340001009040100020A42
S1135C5E0000000705810240000007050202400013
S1135C6E00001201000202000040EB032221000199
S1135C7E010203010403090441544D454C204153D0
S1135C8E4600434443205669727475616C20436F19
S1135C9E6D00000300000000000000000000000082
S1135CAE00000000000000000000000000000000E2
S1135CBE000001F9FDFDF90141FFFFFFFF4110FF57
S1135CCEFFFFFF109EBFBFBFBF9E19002F05E3202D
