S0210000584D4547415F413342555F58504C41494E45445F44454D4F312E73726563BE
S1130000E5C3000004C4000002C4000000C40000F2
S1130010FEC30000FCC30000FAC30000F8C30000E4
S1130020F6C30000F4C30000F2C300000C948D205A
S1130030EEC30000ECC30000EAC30000E8C3000004
S1130040E6C30000E4C30000E2C30000E0C3000014
S1130050DEC30000DCC300000C94F12ED8C3000002
S1130060D6C30000D4C30000D2C30000D0C3000034
S1130070CEC30000CCC30000CAC30000C8C3000044
S1130080C6C30000C4C30000C2C30000C0C3000054
S1130090BEC30000BCC30000BAC300000C94BB1D67
S11300A00C94ED1D0C941F1E0C94511EB0C3000043
S11300B0AEC30000ACC30000AAC30000A8C3000084
S11300C0A6C30000A4C30000A2C30000A0C3000094
S11300D09EC300009CC300009AC3000098C30000A4
S11300E096C3000094C3000092C3000090C30000B4
S11300F08EC300008CC300008AC3000088C30000C4
S113010086C3000084C3000082C3000080C30000D3
S11301107EC300007CC300007AC300000C94F31C6F
S11301200C94251D0C94571D0C94891D70C300005C
S11301306EC300006CC300006AC3000068C3000003
S113014066C3000064C3000062C3000060C3000013
S11301505EC300005CC300005AC3000058C3000023
S113016056C3000054C3000052C3000050C3000033
S11301704EC300004CC300004AC3000048C3000043
S113018046C3000044C3000042C3000040C3000053
S11301903EC300003CC300003AC3000038C3000063
S11301A036C3000034C3000032C3000030C3000073
S11301B02EC300002CC300002AC3000028C3000083
S11301C026C3000024C3000022C3000020C3000093
S11301D01EC300001CC300001AC3000018C30000A3
S11301E016C3000014C3000012C3000010C30000B3
S11301F00EC300000C9404260C94B926FF7E3C1810
S1130200FF7E3C18183C7EFF000000000000002028
S1130210202020200020505050000000005050F8B2
S113022050F850502078A07028F020C0C81020400A
S113023098186090A040A8906860204000000000DA
S1130240102040404020104020101010204000504A
S113025020F8205000002020F8202000000000009A
S1130260602040000000F800000000000000006072
S11302706000081020408000708898A8C88870200A
S1130280602020202070708808102040F8F810208A
S11302901008887010305090F81010F880F008089A
S11302A08870304080F0888870F808102040404002
S11302B070888870888870708888780810600060FA
S11302C06000606000006060006020400810204012
S11302D02010080000F800F80000804020102040A2
S11302E0807088081020002070880868A8A87070A2
S11302F0888888F88888F08888F08888F0708880F2
S113030080808870E09088888890E0F88080F08011
S113031080F8F88080E08080807088808098887081
S1130320888888F8888888702020202020703810D9
S113033010101090608890A0C0A090888080808069
S11303408080F888D8A8888888888888C8A89888E9
S11303508870888888888870F08888F080808070A9
S1130360888888A89068F08888F0A0908878808031
S1130370700808F0F82020202020208888888888A9
S1130380887088888888885020888888A8A8D88811
S11303908888502050888888885020202020F80899
S11303A010204080F8382020202020380080402071
S11303B0100800E02020202020E0205088000000C9
S11303C000000000000000F84020100000000000C1
S11303D00070087888788080B0C88888F000007041
S11303E0808088700808689888887800007088F889
S11303F08070304840E04040400000788878083001
S11304008080B0C888888820006020202070100078
S113041030101090604040485060504860202020C8
S11304202020700000D0A8A888880000B0C8888860
S113043088000070888888700000F088F080800050
S11304400068987808080000B0C8808080000070B8
S1130450807008F04040E0404048300000888888C0
S113046098680000888888502000008888A8A850D0
S113047000008850205088000088887808700000A8
S1130480F8102040F81020204020201020202020A8
S113049020202040202010202040088942183DBC04
S11304A0184291103C7EFF8180100A021A021A023F
S11304B00A106050A09884828C844C300D0A5765D1
S11304C06C636F6D6520746F2074686520584D45AA
S11304D047412D413342552058706C61696E656403
S11304E02044656D6F2043444320696E74657266D1
S11304F0616365210D0A0D0A4B65792062696E649A
S1130500696E677320666F72204C4344206D656E7C
S11305107520636F6E74726F6C3A0D0A2020456EFD
S11305207465722020202020203A20456E74657264
S11305300D0A20204261636B737061636520203A69
S1130540204261636B0D0A20204172726F7720553F
S1130550702020203A2055700D0A20204172726FBD
S11305607720446F776E203A20446F776E0D0A002F
S11305704461746520696E76616C6964004D696ECE
S113058075746500486F757200446179004D6F6E33
S113059074680059656172005365742054696D650F
S11305A07A6F6E65005365742054696D65005365F8
S11305B07420446174650053686F772044617465E6
S11305C02654696D6500446174652654696D65003F
S11305D0546F67676C65204261636B6C696768740C
S11305E0004461746520262054696D650050726F63
S11305F064756374696F6E2044617465004C696747
S1130600687473656E736F720054656D70657261A2
S113061074757265004D61696E204D656E75005488
S1130620656D7065726174757265002B3435206D6B
S1130630696E002B3330206D696E002B3135206DCF
S1130640696E002030206D696E0054696D657A6FA3
S11306506E65206D696E757465733A002B31323A9C
S11306602046696A69002B31313A20536F6C6F6DF3
S11306706F6E2049736C616E64002B31303A2041F7
S113068045535400202B393A20546F6B796F002066
S11306902B383A20486F6E67204B6F6E6700202B13
S11306A0373A20546861696C616E6400202B363AD5
S11306B02042616E676C616465736800202B353A73
S11306C02050616B697374616E00202B343A204DA5
S11306D06F73636F7700202B333A204E6169726F1A
S11306E0626900202B323A20497374616E62756C22
S11306F000202B313A204F736C6F2C204265726CB2
S1130700696E005554433A20554B2028474D5429CF
S113071000202D313A20507261696100202D323A57
S113072020536F7574682047656F72676961002094
S11307302D333A20477265656E6C616E6400202D1E
S1130740343A2045435400202D353A2045617374D2
S113075065726E00202D363A2043656E7472616CAA
S113076000202D373A204D6F756E7461696E00203C
S11307702D383A205061636966696300202D393A47
S113078020416C61736B61002D31303A20486177F0
S1130790616969002D31313A204B696E676D616E74
S11307A02052656566002D31323A2042616B6572D4
S11307B02049736C616E640054696D657A6F6E656F
S11307C020686F75727320555443000011241FBEB6
S11307D0CFEFDFE5DEBFCDBF00E00CBF12E2A0E04B
S11307E0B0E2EAECF9E600E00BBF02C007900D921C
S11307F0AC37B107D9F72BE2ACE7B2E201C01D92E6
S1130800A436B207E1F70E94962C0C94E334F8CB9B
S11308108093A2066093A2068093A5066093A60621
S11308206093A10608953F936093A2068093A10666
S11308308093A2066093A1063F918091A806842329
S113084008958093A6068093A1060895A1E0B0E0E0
S1130850ECE2F4E00C94E031E82F0FB70078198251
S113086080917C22813019F081E080937C22CE2E0D
S1130870DD24F601E254FD4DB080F601EE53FD4D4A
S1130880A080F894BB2009F4AAC08B2DDADF8B2D4D
S11308906A2DBEDF1B2DEE24FF2460E0812C30E2A4
S11308A0932EF5FE07C09091BF228091BE22982B13
S11308B019F535C08FB7802B8FBF0000F8948B2DAE
S11308C06A2D412FB0DF682F0894E11CF11C809140
S11308D000208F5F80930020823030F0823021F03E
S11308E0833011F0109200206623D9F22091BF22A8
S11308F08091BE22282B15C0412F80E040FF09C003
S1130900E82FF0E0EE0FFF1FE957FD4D8082918242
S113091001C090FD8F5F96954695992379F710E075
S113092020E08FB7802B8FBF10927D22222309F401
S11309303FC0112309F43CC03091C3228091C222EC
S1130940382B562F90E080E070E040E023C050FD4B
S113095017C019C030FF13C0981781F4E42FF0E0DA
S1130960EE0FFF1FE957FD4DE082F182852F8E7F48
S113097019F4892F71E008C0892F06C08F5F36955E
S1130980332341F701C020FD9F5F20FD4F5F569543
S1130990269511F05523D9F640937D2260951623B0
S11309A0713021F4112311F4EE24FF2460E013C00C
S11309B08091BF229091BE22892B898390E006C04A
S11309C0898180FD9F5F89818695898389818823B8
S11309D0B9F790937D22F894112309F062CF8EEB3E
S11309E092E2C80ED91EF60180812BDF8FB7082B47
S11309F00FBF2196ECE00C94F931FC0180E290E009
S1130A00808391831282138280E394E084839583AC
S1130A1008959091B822A92FB0E0FD01EE0FFF1FB9
S1130A20EA0FFB1FEE0FFF1FE056FD4D4383677077
S1130A3085832370660F660F660F262B24839F5FC2
S1130A409093B82208951F93CF93DF93282FC82F34
S1130A50D0E0FE01EE0FFF1FEC0FFD1FEE0FFF1F96
S1130A60E056FD4D3581838190E00090802202C0E4
S1130A70959587950A94E2F7182F843008F414E0CA
S1130A808091B822281718F020E030E02DC0832F81
S1130A901DD19C01412F50E016951695812F90E0B1
S1130AA0841B950B8217930764F4FE01EE0FFF1F5E
S1130AB0EC0FFD1FEE0FFF1FE056FD4D84818B7F71
S1130AC0848388279927841B950B8217930764F0E6
S1130AD0FE01EE0FFF1FEC0FFD1FEE0FFF1FE05690
S1130AE0FD4D848184608483C901DF91CF911F917E
S1130AF00895FF920F931F93CF93DF931092982240
S1130B001092992220919C2230919D2280939C22C4
S1130B1090939D2240919E2250919F22421B530B01
S1130B20480F591FFF2403C0F394485C5040483CCD
S1130B305105D0F740939E2250939F228091B92271
S1130B40882341F08F1518F41092B92203C08F192D
S1130B508093B922AAD3E0919A22F0919B223097F4
S1130B6009F0199510E000E005C0812F6F2DC3D066
S1130B70082B1F5F6091B8221617B8F3002349F0C1
S1130B8080919822909199229160809398229093D9
S1130B90992210929722A0EAB2E230E041E050E0BC
S1130BA017C08C91887191F0E32FE695E695E69550
S1130BB0F0E0E957FD4D832F8770EA0102C0CC0FA6
S1130BC0DD1F8A95E2F720892C2B208B3F5F169638
S1130BD0361738F38091982290919922CDB7DEB7D9
S1130BE0E5E00C9400321092B82284E080938122D4
S1130BF094E19093842285E080938522109283224D
S1130C009093822281E08093802283E080938622E5
S1130C103BD310929A2210929B2208951F9310E0C6
S1130C2003C0812F27D01F5F8091B8221817C8F303
S1130C301F910895EF92FF921F93CF93DF93EC01DE
S1130C407B0110E003C0812F15D01F5F8091B82273
S1130C501817C8F310929C2210929D22C0937E22F2
S1130C60D0937F22C7010BD3DF91CF911F91FF90C7
S1130C70EF90089590E0E0EAF2E29C01220F331F26
S1130C80280F391FD901AA0FBB1FAE0FBF1F15961E
S1130C904C9115978091982290919922826080932B
S1130CA09822909399222F5F3F4F220F331FE20F18
S1130CB0F31F1082EAEBF2E2E40FF11D80E8808377
S1130CC081E08C938FE011968C93089590E0FC0161
S1130CD03496A7E8B2E2EE0FFF1FEA0FFB1F880F5E
S1130CE0991FA80FB91F208131818D919C91281BD8
S1130CF0390BC9010895A0E0B0E0E1E8F6E00C94F6
S1130D00DE31782EF62E9FDE5C01072D10E0F8010F
S1130D10EE0FFF1FE00FF11FEE0FFF1FE056FD4D1A
S1130D2054814381242F30E0852F837090E0019615
S1130D3002C0359527958A95E2F7822F223008F470
S1130D4082E0242F30E0B901681B7109F801EE0F2D
S1130D50FF1FE00FF11FEF01CC0FDD1FC056DD4D6B
S1130D608881843009F4F7C0853030F4813071F023
S1130D70823009F07DC26EC0803109F4A1C1803295
S1130D8009F442C2883009F073C2EEC1409198223E
S1130D9050919922CA01926080939822909399224B
S1130DA08D816981A82FB0E06A3060F0AA0FBB1F63
S1130DB0FD01E957FD4D80819181A157BD4D8D9372
S1130DC09C9318C0AA0FBB1FFD01E157FD4D208164
S1130DD03181A957BD4D8D919C918217930718F4C9
S1130DE02150304005C02817390750F42F5F3F4F7A
S1130DF02083318348605260409398225093992213
S1130E00862F8150F801EE0FFF1FE00FF11FEF0155
S1130E10CC0FDD1FC056DD4D89838823B1F4AD812D
S1130E2082E08883809198229091992282608093B5
S1130E30982290939922EE0FFF1FEE55FD4D1082DC
S1130E40B0E0A654BD4D80E88C93809182228093BB
S1130E50B9220CC252FF04C080E288831982F7C110
S1130E60C501B7FE02C080E090E08217930780F0CE
S1130E70F801EE0FFF1FE00FF11FEE0FFF1FDF0160
S1130E80A056BD4D84E08C93EE55FD4D1082E5C116
S1130E90FF2009F4EDC18091B922882309F0E8C14B
S1130EA0F801EE0FFF1FE00FF11FEE0FFF1FE056DA
S1130EB0FD4D858190E0EC01CC0FDD1FC157DD4D68
S1130EC028813981FC01EE0FFF1FE957FD4D019088
S1130ED0F081E02D2E173F0788F4FC01E654FD4D08
S1130EE090819F0D9083809185228058981708F4F3
S1130EF0BFC180E880832F5F3F4F14C0DC01A6543C
S1130F00BD4DE217F307D0F48C918F198C9340E810
S1130F1090918422542F591B581708F4A9C14C935B
S1130F2021503040288339838091982290919922CE
S1130F30886080939822909399229AC12C912138A9
S1130F4010F021502C93FC01E654FD4D808187FD67
S1130F508FC18F5F57C1C501B7FE02C080E090E02A
S1130F60F801EE0FFF1F8217930708F48FC08091DA
S1130F7082228093B9229F01200F311F220F331F39
S1130F80D901AE55BD4D8C918F5F8C93F901E0561C
S1130F90FD4D848190E08873907023E09695879549
S1130FA02A95E1F7682E882309F43EC0DD24CC2479
S1130FB07F0183E090E0E80EF91E4D012FC0D714A5
S1130FC061F18D2D90E0EC01CC0FDD1FC80FD91F0E
S1130FD0CC0FDD1FC056DD4D8C8190E0887390707E
S1130FE073E0969587957A95E1F76816B1F48D2D9F
S1130FF02ADD2B81821B9109F7012081A501421B67
S11310005109481759072CF08881803111F0883034
S113101021F4F4011082CC24C394D3948091B82297
S1131020D81668F2CC2079F480918122882359F073
S1131030809198229091992298608093982290931D
S1131040992241E001C040E09801220F331F200F94
S1131050311FF901EE0FFF1FEE55FD4D9081809178
S11310608122981708F405C18091982290919922C1
S113107083608093982290939922F901EE0FFF1FC9
S1131080E056FD4D80E180831182F3C0E00FF11F33
S1131090EE0FFF1FDF01A056BD4D15962C9115973D
S11310A082E08C938091982290919922826080931F
S11310B0982290939922EE55FD4D1082E22F9EC006
S11310C0C501B7FE02C080E090E0F801EE0FFF1FFB
S11310D040919822509199228617970770F4E00F57
S11310E0F11FEE0FFF1FE056FD4D88E08083546032
S11310F0409398225093992231C0416040939822A2
S113110050939922E00FF11FEE0FFF1FEE55FD4D96
S1131110908180918122981710F49F5F9083909121
S11311208322992371F0F801EE0FFF1FE00FF11FE6
S1131130EE0FFF1FE056FD4D8181891720F48F0DBE
S1131140818340E00CC0872D95DD80919822909199
S113115099229260809398229093992241E0809101
S113116082228093B92285C0809182228093B92201
S1131170DF01AA0FBB1FAE55BD4D8C91882389F1A9
S1131180C501B7FE02C080E090E0409198225091E2
S113119099226817790790F4F801EE0FFF1FE00F0A
S11311A0F11FEE0FFF1FE056FD4D80E1808341608B
S11311B0409398225093992240E006C05460409393
S11311C098225093992241E0F801EE0FFF1FE00F9F
S11311D0F11FEE0FFF1FEE55FD4D8081815080837E
S11311E048C0ED8182E08883809198229091992271
S11311F0826080939822909399221C92F0E0E654A6
S1131200FD4D80E8808334C099819F5F99838C81F0
S113121082FD17C0AD8182E08883809198229091ED
S1131220992282608093982290939922EE0FFF1F57
S1131230EE55FD4D1082B0E0A654BD4D80E88C9370
S113124017C080918622981740F0872D13DD809176
S1131250982290919922906105C080919822909152
S113126099229460809398229093992241E001C03E
S113127040E0842FCDB7DEB7EEE00C94F731FC01EB
S1131280009709F0199508951092BE221092BF227A
S11312901092C2221092C3221092C0221092C12234
S11312A01092C4221092C52208958091C022909178
S11312B0BE22892B41F0E0917E22F0917F2230976B
S11312C011F080E019958091C1229091BF22892B61
S11312D041F0E0917E22F0917F22309711F081E07D
S11312E019950895613039F52091CC222F5F209310
S11312F0CC22213039F44093C6225093C722109255
S1131300CA2213C08091C6229091C722840F951FD0
S1131310969587958093C6229093C722243029F40A
S11313201092CC226093CA2208959FB7F8948091BA
S11313300002846029C0623051F52091CD222F5FD4
S11313402093CD22213039F44093C8225093C922EE
S11313501092CB2214C08091C8229091C922840F8C
S1131360951F969587958093C8229093C92224301F
S113137031F41092CD2281E08093CB2208959FB75F
S1131380F894809100028860809300029FBF0895C2
S11313908FB7F8949091CB22992329F01092CB2205
S11313A08FBF81E008958FBF80E008958FB7F894D0
S11313B09091CA22992329F01092CA228FBF81E00A
S11313C008958FBF80E008951F93CF93DF93CDB727
S11313D0DEB72B97CDBFDEBFBE016F5F7F4F80E0CE
S11313E092E00E94C51EAE01485F5F4F61E080E05D
S11313F092E00E94301F8A819B819F7890619B8339
S113140096E09D83817E80618A831C82BE016F5F2A
S11314107F4F80E092E00E94831E62E779E080E0E3
S113142092E00E947A1C11E0188719868A85807FD1
S113143081608A87AE01485F5F4F61E080E092E09F
S11314400E94E81E188788E08987AE01485F5F4FD5
S113145062E080E092E00E94E81E80E092E00E9458
S1131460CA1C2B96CDBFDEBFDF91CF911F9108958B
S1131470CF93DF93C091C822D091C922BE0180E0EE
S113148090E00E949D30C53AD14058F021E836E200
S113149042E45DEB0E942B3123E333E345E552E460
S11314A00AC02DE231E24FE95DEB0E942B3123E3C8
S11314B033E342E852E40E9408300E946C30862FE5
S11314C0DF91CF9108958091C6229091C72208950B
S11314D098E09093A60691E0909366069091A109F6
S11314E095FFFCCF8093A0098091A10986FFFCCFD2
S11314F080E48093A1098091A00988E08093A506E7
S11315000895CF92DF92EF92FF920F931F93CF93A0
S1131510DF931F921F92CDB7DEB788E18A8388E0FC
S1131520809306068A81982F91509A838111FACF6D
S113153088E18A8388E0809305068A81982F9150F8
S11315409A838111FACF8BE2898380EA99E00E9421
S11315500816C12CD12C760100E012E12AE730E014
S113156043E0BE016F5F7F4F80EA99E00E9430162E
S113157081E08093660680EAABDF86EAA9DF88EC27
S1131580A7DF82EAA5DF8FE2A3DF88EFA1DF80E097
S11315909FDF81E29DDF81E89BDF81E299DF8FEAB3
S11315A097DF0F900F90DF91CF911F910F91FF90D4
S11315B0EF90DF90CF9008959C0183709927892B39
S11315C081F4C90164E670E00E948E31892B11F028
S11315D081E00895C90160E971E00E948E31892B90
S11315E0B9F380E008950F931F93CF93DF93FC0129
S11315F080818C3308F581818C33F0F482818831C9
S1131600D8F404810C30C0F413811F31A8F4C581CF
S1131610D681CE01D1DF9CE0899FF0011124E00F37
S1131620F11DEF55FE4D8081181730F4C25BD74091
S113163081E0C838D10508F080E0DF91CF911F9197
S11316400F9108954F925F926F927F928F929F9223
S1131650AF92BF92CF92DF92EF92FF92CF93DF933C
S1131660EA0122EB37E02D833E831C8220E831E53A
S113167041E050E00E94A23169017A012B013C0152
S11316802CE3822E912CA12CB12CA50194010E9453
S1131690A2316883C301B20120E13EE040E050E0A2
S11316A00E94A231722EA50194010E94A2312983C5
S11316B07A82C701B6016C5F7F4F8F4F9F4F27E03F
S11316C030E040E050E00E94A2316F8309C0C41AA8
S11316D0D50AE60AF70A2FEFA21AB20AAD82BE8231
S11316E0AD80BE80C50168DF882319F04EE651E065
S11316F002C04DE651E060E070E0C416D506E6068F
S1131700F70628F707C0C41AD50AE60AF70A2F5FB6
S11317102C8304C02CE0829FC00111242C81FC0185
S1131720E20FF11DEF55FE4D408150E060E070E0A6
S1131730C416D506E606F70630F7CB82DF91CF91C3
S1131740FF90EF90DF90CF90BF90AF909F908F90DD
S11317507F906F905F904F9008958F929F92AF9279
S1131760BF92CF92DF92EF92FF920F931F934B01A0
S11317705C01842FF22F242F332727FD3095432F2C
S1131780532FE0E0A0E1BEE087FD13C00E94D031FA
S11317906B017C01C80CD91CEA1CFB1C2F2F3E2FAB
S11317A0ACE3B0E00E94C431C60ED71EE81EF91E99
S11317B012C00E94D0316B017C01C80CD91CEA1CF8
S11317C0FB1C2F2F3E2FACE3B0E00E94C431C61A9D
S11317D0D70AE80AF90AA801C701B6011F910F91B7
S11317E0FF90EF90DF90CF90BF90AF909F908F903D
S11317F029CFAF92BF92CF92DF92EF92FF920F93D5
S11318001F93CF93DF938C01EEDE882309F463C02A
S1131810D8011496BC9014971596CD91DC91169727
S11318201196AC9011971396AC91B0E020E831E595
S113183041E050E00E94D0316B017C01F80122812B
S113184030E0A0E1BEE00E94C431C60ED71EE81EFF
S1131850F91E8081C80ED11CE11CF11C2A2DACE3B9
S1131860B0E00E94C431C60ED71EE81EF91E1CE06B
S113187016C0BA94CE01A0DE189FF0011124EB0D1E
S1131880F11DEF55FE4DA081B0E020E831E541E0C7
S113189050E00E94D031C60ED71EE81EF91EB110CA
S11318A0E8CF14C02197CE0187DE882319F0AEE675
S11318B0B1E002C0ADE6B1E020E831E541E050E03E
S11318C00E94D031C60ED71EE81EF91EC33BF7E0B6
S11318D0DF0740F703C0C12CD12C7601B601C70144
S11318E0DF91CF911F910F91FF90EF90DF90CF90F8
S11318F0BF90AF9008954F925F926F927F928F92B4
S11319009F92AF92BF92CF92DF92EF92FF92CF93CA
S1131910DF931F92CDB7DEB7F62E49836ADF4B0102
S11319205C0149816115710581059105E1F14F2C37
S1131930552447FC5094652C752CF42FE0E0F7FCFB
S11319401BC0A0E1BEE0A30192010E94D0316B0153
S11319507C012F2F3E2FACE3B0E00E94C431C60EB1
S1131960D71EE81EF91ED501C4018C199D09AE09C4
S1131970BF096C017D011AC0242F3E2FACE3B0E0F7
S11319800E94C4316B017C01A0E1BEE0A30192017D
S11319900E94D031C61AD70AE80AF90AC80CD91C21
S11319A0EA1CFB1C03C0C12CD12C7601B601C70173
S11319B00F90DF91CF91FF90EF90DF90CF90BF9089
S11319C0AF909F908F907F906F905F904F9008950D
S11319D0AF92BF92CF92DF92EF92FF920F931F9339
S11319E0CF93DF93EC018B015A01CB0102DF6B0132
S11319F07C01CE01FEDE6C157D058E059F0528F465
S1131A009C2F8D2FE801092F182F8D819E81F801BD
S1131A1025813681821B930BF501858396834C8146
S1131A20242F30E0F8015481251B310937FF08C009
S1131A30445F4C83009721F00197F50185839683D9
S1131A40FC80F8018481F81AF501F482EB808E2D74
S1131A5090E0F8012381821B910997FF15C08D81C5
S1131A609E81AADD9C812CE0829FF0011124EF5518
S1131A70FE4DE90FF11D319780818E0D8B83FF2080
S1131A8019F0FA94F501F4822B81F8018381281B63
S1131A90F50123833A81832F90E0F8014281841B6E
S1131AA0910997FF07C0385E3A83222319F0215029
S1131AB0F50123832A81F8018281281BF501228301
S1131AC03981832F90E0F8014181841B910997FFAC
S1131AD007C0345C3983222319F02150F501228395
S1131AE02981F8018181281BF50121833881832F05
S1131AF090E0F8014081841B910997FF07C0345C92
S1131B003883222319F02150F50121838881F801BB
S1131B109081891BF5018083DF91CF911F910F91F3
S1131B20FF90EF90DF90CF90BF90AF900895EF9229
S1131B30FF920F931F93CF93DF93EC0188818F5F04
S1131B408C3311F0888337C0188289818F5F8C337E
S1131B5089F58A818F5F883159F5FB80EC800D818E
S1131B601E81F394C801992727DD9CE0899FF00129
S1131B701124EE0DF11DEF55FE4D8081F8120FC0BA
S1131B808E2D8F5F8C3049F4093388E0180720F4D8
S1131B900F5F1F4F0D831E8380E08C83F12C8F8198
S1131BA08F5F873011F08F8301C01F82FB8280E03A
S1131BB08A8380E08983DF91CF911F910F91FF90F9
S1131BC0EF9008959FB7F894E0E5F0E02081822B30
S1131BD080839FBF08959FB7F894A0E5B0E0169660
S1131BE08C911697897F16968C931697E0E6F0E011
S1131BF080E885838BEB868316968C911697846098
S1131C0016968C938081816080839FBF0895CF93C3
S1131C10DF9300D01F92CDB7DEB78FEF80937000B3
S1131C20809371008093720080937300809374009A
S1131C30809375008093760064E081E490E00E94D4
S1131C40781F6CE170E082E00E94EC1F8C836DE1F0
S1131C5070E082E00E94EC1F8B838B819C81019653
S1131C6021F480E493E28B839C838B819C81898320
S1131C709A83809362008A818093630082E0A2DF6A
S1131C808091510081FFFCCFA6DF61E080E490E009
S1131C900E94781F9FB7F894809150008E7F8093A4
S1131CA050009FBF2496CDBFDEBFDF91CF91089532
S1131CB09FB7F894E82FF0E0E059FF4F60958081DA
S1131CC0862380839FBF08959FB7F894E82FF0E0A0
S1131CD0E059FF4F8081862B80839FBF0895CF9367
S1131CE0863011F4C8E101C0C0E08091510081FD4B
S1131CF007C082E067DF8091510081FFFCCF6BDF7A
S1131D006C2F636084E490E00E94781F60E480E0BC
S1131D10CF91CECF9091A10995FFFCCF8093A009DC
S1131D208091A10986FFFCCF80E48093A109809172
S1131D30A00908951F93CF93DF93C0EAD6E018E07B
S1131D401E8391E0E0E6F6E09683E4DF1D83DF91F5
S1131D50CF911F910895CF93C82F8F7782958F705D
S1131D608061E8DF8C2F8F70CF91E4CFEF92FF92E8
S1131D700F931F93CF93DF93182FF92ED62FC42FD1
S1131D80022FD3D08D2F8F70806BD4DF8C2FE3DFA5
S1131D90C12FDF2D88E0F82EEE24E394100F8991F3
S1131DA0F092A606E0926506B5DFE0926606F09230
S1131DB0A5061C13F4CFDF91CF911F910F91FF90D3
S1131DC0EF900895DF92EF92FF920F931F93CF93BA
S1131DD0DF93D82FC62FF42EBBD08D2F8F70806B3E
S1131DE0A9DF8C2FB8DFC0EAD6E098E0E92EEE82B6
S1131DF000E616E0DD24D394F801D5828F2D8ADF26
S1131E00F801D682ED82DF91CF911F910F91FF905F
S1131E10EF90DF900895CF93DF938EEC92E280D021
S1131E2070DB80E487DFD0E00AC040E06C2F8D2FA8
S1131E30C9DFCF5FC038C9F7DF5FD43011F0C0E02D
S1131E40F4CFDF91CF910895CF92DF92FF920F9359
S1131E501F93CF93DF931F92CDB7DEB7082F87FD73
S1131E6030C0603270F5162F16951695169558EFFA
S1131E70510390011124260F311DCC24C394D12C7D
S1131E8001C0CC0C2A95EAF7682F812F49836DD0C5
S1131E904981413021F028F0423039F405C08C29C1
S1131EA004C0C0948C2101C08C25482F602F812F41
S1131EB00F90DF91CF911F910F91FF90DF90CF9002
S1131EC081CF0F90DF91CF911F910F91FF90DF9001
S1131ED0CF9008954AC00F931F93CF93DF931F921F
S1131EE01F92CDB7DEB7182F062F2A8349833DD022
S1131EF02A814981213021F028F0223039F405C0AB
S1131F00842B04C04095842301C08427482F602F6C
S1131F10812F0F900F90DF91CF911F910F9152CF8E
S1131F208093CE249093CF24089550E030E8639FAB
S1131F30400D511D1124E091CE24F091CF24DC01F9
S1131F40E40FF51F2E0F8D9181932E13FCCF08956E
S1131F50E091CE24F091CF2490E8899FE00DF11D0B
S1131F601124E60FF11D40830895E091CE24F091F1
S1131F70CF2490E8899FE00DF11D1124E60FF11D97
S1131F8080810895FF920F931F93CF93DF93C82FFF
S1131F90E42FF0E0E80FF11DE138F10514F040E81A
S1131FA0481B442309F447C0162F16951695169519
S1131FB038EF3103F0011124E60FF11D61E070E008
S1131FC00E2E01C0660F0A94EAF7062F213029F07D
S1131FD030F0223081F5D42F2CC0D42F0FC0D42F51
S1131FE0D150F62EF09418C0FD2EFC0E6F2D812FCB
S1131FF071DF482F402B6F2D812FE4DED150A0F7E5
S11320001AC00D2F0C0F602F812F64DF482F4F2132
S1132010602F812FD7DED150DF3F99F70CC0FD2E02
S1132020FC0E6F2D812F56DF482F40276F2D812FF7
S1132030C9DED150A0F7DF91CF911F910F91FF908E
S11320400895EF92FF920F931F93CF93DF93082F7E
S1132050F22E442309F44AC0962F9150940F691329
S113206008C0422FDF91CF911F910F91FF90EF9005
S1132070EBCE9F3108F09FE1162F16951695169515
S1132080E92EE694E694E6946770CFEFD0E0DE01A3
S1132090062E01C0AA0F0A94EAF74A2F9770E7E0C8
S11320A0F0E0E91BF109CE0102C095958795EA9508
S11320B0E2F7C82F1E1105C048232F2D602F812F52
S11320C00EC02F2D4A2F01C04FEF602F812F03DF49
S11320D01F5F2F2D1E15C0F34C2F602F8E2DDF9107
S11320E0CF911F910F91FF90EF90F5CEDF91CF919B
S11320F01F910F91FF90EF900895FF920F931F93FC
S1132100CF93DF93D82FC62FF42E122F202F3ADF30
S11321106C2F6150610F202F4F2D8D2F33DF202F17
S1132120412F6C2F8D2F8DDF8D2F8150202F412F2C
S11321306C2F8F0DDF91CF911F910F91FF9081CF65
S1132140FF920F931F93CF93DF93D82F162FF42E64
S1132150222351F0C22F06C06C2F610F202F4F2D68
S11321608D2F10DFC150C0F7DF91CF911F910F91D8
S1132170FF9008958F929F92AF92BF92CF92DF9279
S1132180EF92FF920F931F93CF93DF93E82ED62EF7
S1132190C22E41110EC0422FDF91CF911F910F919A
S11321A0FF90EF90DF90CF90BF90AF909F908F9073
S11321B04BCEC42FD0E0D195C195D109CC0FDD1FF2
S11321C02396142FBB24B394F12C83E0A82EA022D1
S11321D09CE0992E902220E3822E8022007CAA206B
S11321E079F06D2D6F192C2D4B2D812F8E0D29DF3C
S11321F0412F4F5F6D2D611B2C2D8F2D8E0D21DFF7
S1132200992079F06D2D6F192C2D4B2D8E2D811B5E
S113221018DF412F4F5F6D2D611B2C2D8E2D8F19D3
S113222010DF882069F02C2D4B2D6D2D8E2D811BF8
S113223008DF412F4F5F2C2D6D2D8E2D8F1901DF5F
S1132240002369F02C2D4B2D6D2D812F8E0DF9DE81
S1132250412F4F5F2C2D6D2D8F2D8E0DF2DEEF2D26
S1132260F0E0D7FF08C0EE0FFF1FEE0FFF1F3696FA
S1132270CE0FDF1F0AC0E11BF109EE0FFF1FEE0FA7
S1132280FF1F3A96CE0FDF1F1150F394B3941F151E
S113229008F0A5CFDF91CF911F910F91FF90EF90A0
S11322A0DF90CF90BF90AF909F908F900895CF9282
S11322B0DF92EF92FF920F931F93CF93DF93EC0182
S11322C0D62EE42EF980F694F694F694E694E694E9
S11322D0E6948A81882379F1813091F518C0129FA0
S11322E090011124200F311DEB81FC81E20FF31FBB
S11322F04491602F6D0D8C2D65DD0F5F03C000E0F0
S1132300C12ECE0C2881021750F31F5F01C010E0CC
S11323101F11F5CF15C028816E0D209FC001219F8C
S1132320900D1124EB81FC814D2D8E0F9F1F1EDD1E
S11323300F5F1F4F02C000E010E0602F0F1558F32D
S1132340DF91CF911F910F91FF90EF90DF90CF908D
S11323500895CF92DF92FF920F931F93CF93DF9351
S11323601F92CDB7DEB76C01DC0115961C91159751
S11323708BEA189F112D1124169516968C918113B2
S113238002C0662349F000E028E140E868E080E00C
S1132390D7DE81E08093D024F601168300E028E1A3
S11323A044E068E080E0CCDED60115964C918BEADF
S11323B0489F812D11248695982F990F980F491BBA
S11323C0440F440F440F485F60E081E090E26FDF08
S11323D08091D024882361F1F12EFF0CF10E812F1E
S11323E090E001968C01000F111F080F191F58E08F
S11323F014C0880F991FD6011296ED91FC91139782
S1132400E80FF91F20E130E2452F65E080819181DA
S1132410598394D3F3945981585F8F2D90E080179A
S1132420910724F4F6012481F21618F31092D024B3
S11324300F90DF91CF911F910F91FF90DF90CF907C
S113244008950F93CF93DF93EC0100E020E240E87E
S113245060E080E075DE20E130E240E060E0888109
S113246099816CD361E0CE01DF91CF910F9171CF4F
S1132470FC016D3019F118F4683011F505C06632AD
S1132480B1F06832E9F402C08EEF08954581242F3B
S113249030E0848190E001972817390711F4158200
S11324A002C04F5F458360E0CF0153DF09C08581DF
S11324B0811101C0848181508583F5CF8581089580
S11324C08FEF0895482F60E086E090E2F0CE0F93FE
S11324D01F93CF93DF93CDB7DEB76897CDBFDEBF31
S11324E0182F00E027E040E868E180E029DE69EB8E
S11324F071E2CE0101960E9414329E01295E3F4F83
S1132500AE01485E5F4F60E170E2CE01019643D3B5
S1132510888D60E870E0681B710977FF02C06F5F07
S11325207F4F75956795062F20E130E248E1CE0193
S11325300196DBD2802F8450112331F048E1682FBB
S113254086E090E2B4DE05C000E028E044E068E103
S1132550F7DD6896CDBFDEBFDF91CF911F910F915C
S11325600895CF92DF92EF92FF920F93CF93DF9370
S1132570CDB7DEB72997CDBFDEBF7C01662381F0DE
S113258000E027E040E8DC011C966C9180E0D8DD97
S113259020E130E2F701448565E080819181CED26B
S11325A0D7011D968C911D97882339F01C964C9168
S11325B06CE78BE090E27BDE07C000E028E044E0BB
S11325C0F70164858CE7BCDDD70112968C911297D4
S11325D0813049F514968C9114978F9313968C91AE
S11325E08F9387ED91E29F938F931F9289E08F934E
S11325F0CC24C394D12CCC0EDD1EDF92CF920E944A
S11326001B3200E027E042E3F70164858AE498DDA9
S113261020E130E2D7011C964C916AE4C60165D2F0
S1132620CDBFDEBF1FC081111DC0D7011596DC9040
S1132630159700E027E042E31C966C918AE480DD64
S1132640F70193818481E92FF82FED0DF11DED0D34
S1132650F11D20E130E2D7011C964C916AE480819F
S113266091816CD22996CDBFDEBFDF91CF910F91BE
S1132670FF90EF90DF90CF900895CF92EF92FF926A
S11326800F931F93FC01408351836283008711875A
S1132690E286F386C486158606831783611104C017
S11326A023833483058302C0038314831F910F9112
S11326B0FF90EF90CF900895FC011086158214824C
S11326C081E081870895CF93DF93FB012481233038
S11326D018F5220F220F220FDC011C962C93348153
S11326E0311103C08083918312C0A081B18121E0A4
S11326F005C01E960D90BC91A02D2F5F2313F9CF1A
S11327001E968D939C931F97EC01A88BB98B8283A3
S1132710938384818F5F8483DF91CF910895FF92A7
S11327200F931F93CF93DF93EC0100E020E240E886
S113273060E080E005DD8C818823C9F0088119817F
S1132740F12C07C061E0C8010CDFF801068517858C
S1132750F3948C81F816B0F380E0B9DEE881F98156
S11327608485DF91CF911F910F91FF90ABCEDF91C4
S1132770CF911F910F91FF900895CF93DF93EC01B8
S11327806D3009F450C020F4683009F07FC06BC08C
S1132790663239F1683209F079C08D85882309F4ED
S11327A075C08A81813071F48B819C81288539853B
S11327B02817390714F4019702C08A859B858B83F7
S11327C09C834DC081114BC04D81242F30E08885FE
S11327D099858217930714F4415021C08A858D830B
S11327E03EC08D85882309F451C08A81813061F40B
S11327F08B819C812A853B858217930714F401966B
S1132800DECF88859985DBCF811129C04D81242FA6
S113281030E08A859B85281739071CF44F5F4D8368
S11328201EC08885DCCF8D858823B9F08A818130EC
S113283049F41D8660E0CE0194DE2B813C812E8319
S11328403F8326C081110FC01D8660E0CE0189DE62
S11328502D812E831F8230E01BC081E08D8760E0D4
S1132860CE017FDE13C01D868A81813029F48E81DA
S11328709F818B839C8304C0811102C08E818D83D0
S113288060E0CE016EDE2EEF30E002C02FEF30E0CC
S1132890C901DF91CF910895EF92FF920F931F9397
S11328A0CF93DF93EC018A018C81882309F4B4C0AF
S11328B08985882341F1A881B98120E020C012963E
S11328C08C911297E22FF0E0813059F413968D9198
S11328D09C911497EE0FFF1FE00FF11F80839183EB
S11328E009C0EE0FFF1FE00FF11F15968C9115978D
S11328F0808311821E960D90BC91A02D2F5F8C8138
S11329002817E8F21986E880F9802D812F3F41F4D9
S11329100AC0D7011E96ED90FC901F978F5F01C0EF
S113292080E08213F6CF88858823B1F0C70125DFC4
S11329308E839F838E3F910509F40CC08F3F9105D0
S113294009F467C02D81F801E20FF11DE20FF11DBA
S11329508083918318865DC06D3009F453C020F4E0
S1132960683009F056C058C0663211F1683209F077
S113297050C02F3F29F41D8280E0A9DDF70121C05A
S113298030E08C8190E0019700E0281739077CF54E
S113299028E044E0D7011C966C9180E0D1DB8D8166
S11329A08F5F8D83D7011E96ED91FC911F9709C00F
S11329B02F3F51F480E08BDD8C8181508D83EA813F
S11329C0FB8184857FDD25C000E0222381F028E09F
S11329D044E0D7011C966C9180E0B2DB8D8181507C
S11329E08D83D7015096ED91FC915197EACF28E061
S11329F044E0F701648580E0A3DB8FEF8D8381E001
S1132A0066DD07C02F3F59F06DE0C701B6DE81E0F7
S1132A1088872FEF30E005C02EEF30E002C02DEFA5
S1132A2030E0C901DF91CF911F910F91FF90EF909A
S1132A3008959F92AF92BF92CF92DF92EF92FF924E
S1132A400F931F93CF93DF93182FC62EE42EE90123
S1132A5000E02C814B816E2D8C2D72DB88818111DD
S1132A6038C09B81A92FA695A695A695977009F0C5
S1132A70AF5FFC80AF9DD0011124212F30E08D8108
S1132A80281B3109A29FF001A39FF00DB29FF00D06
S1132A90112409811A810E0F1F1FBE2CBF0C9B2C01
S1132AA09F18AB80D12CE12C0EC09E2D977021F481
S1132AB0F801D4900F5F1F4FD7FE03C041E0692D8A
S1132AC0C3D9DD0CE3948E2D8C0DEA10EECFFA946D
S1132AD031F7DF91CF911F910F91FF90EF90DF902D
S1132AE0CF90BF90AF909F900895DF92EF92FF92A6
S1132AF00F931F93CF93DF93D62EE42E8901EC011D
S1132B00F62E89918A3031F4F80184818F5FE80EC2
S1132B10FD2C09C08D3039F098014E2D6F2D89DFC1
S1132B20F8018381F80E88818111EBCFDF91CF9179
S1132B301F910F91FF90EF90DF900895DF92EF9235
S1132B40FF920F931F93CF93DF93EC01D62EE42EC5
S1132B508901FC018491F62E14C08A3031F4F80105
S1132B6084818F5FE80EFD2C09C08D3039F0980107
S1132B704E2D6F2D5EDFF8018381F80E2196FE0144
S1132B8084918111EACFDF91CF911F910F91FF9032
S1132B90EF90DF900895FB01B3817481FC01972FBE
S1132BA080E061E0A191AA3019F4970F80E006C09B
S1132BB0AD3021F08B0F681708F4682FA081A111A4
S1132BC0F1CFFA016083F90190830895FC0180E05C
S1132BD090E0262F30E0D901082E02C0B595A795C4
S1132BE00A94E2F7A0FF05C0DF01A80FB91F5096B1
S1132BF05C9301968830910571F740FF07C041FF4F
S1132C0002C0658301C06683618308956283089569
S1132C10803A28E0920711F460E105C0803B28E087
S1132C20920719F460E283E019C0803A29E0920720
S1132C3011F460E105C0803B29E0920719F460E2D9
S1132C4084E00CC0803A2AE0920719F460E185E040
S1132C5005C0803A9B4019F460E186E029C80895D4
S1132C600F931F93CF93DF9300D000D0CDB7DEB77F
S1132C7009831A832B833C834D831E82BE016F5FBD
S1132C807F4F0E9431212696CDBFDEBFDF91CF91C9
S1132C901F910F9108951092DA241092DB24109260
S1132CA0DC2481EA8093DE2480E28093DF24109286
S1132CB0E0241092E1241092E2241092E32482E0B2
S1132CC090E08093E4249093E5241092E6241092FB
S1132CD0E72480E092ECA1E0B0E08093E8249093B4
S1132CE0E924A093EA24B093EB241092EC241092EC
S1132CF0ED2488E08093EE248091DA248F5F809322
S1132D00DA2481E008958091DA2481508093DA24D2
S1132D1008958091D92481508093D9248091D92415
S1132D201092D824089580E0089580E008950895CD
S1132D30FF920F931F93CF93DF938091D22481113D
S1132D405FC00E94A724C091F324D091F424882367
S1132D5079F00E94B524C817D90709F451C09FB768
S1132D60F894C091D3248091D12481110AC003C066
S1132D700E94AF24F0CF81E0C11180E08093D3247E
S1132D8004C081E0C11180E0C82F81E08093D22487
S1132D909FBFD0E08E01000F111FF801E151FB4DE0
S1132DA0FF24F394808191818034914031F4F12C9B
S1132DB01092F3241092F4240DC00E94A7248823B7
S1132DC019F00E94B52402C00E94AF248093F3241A
S1132DD09093F424F801E151FB4D2081318180E48A
S1132DE091E0C89FA001C99F500DD89F500D112498
S1132DF046505B4D07E017E16F2D81E80E943C25AA
S1132E00DF91CF911F910F91FF90089591CF811180
S1132E1013C08091D324E1E0F0E0882311F0E0E0D6
S1132E20F0E0EE0FFF1FE151FB4D10821182109272
S1132E30D1241092D2247CCF08959091472B892FCE
S1132E40807697FF0EC08032A1F58091482B8132A5
S1132E5081F580914D2B90914E2B8730910549F54A
S1132E6016C0803231F58091482B803219F08232BD
S1132E7001F518C080914D2B90914E2B8730910510
S1132E80C1F427E936E12093532B3093542B28EED9
S1132E9034E220934F2B3093502B8093512B9093FB
S1132EA0522B05C08091492B81700E94DA2781E062
S1132EB0089580E008954091D5245091D624E0915E
S1132EC0D724F0E0EE0FFF1FEB50FB4D81E0208193
S1132ED031814217530708F080E008950F931F9340
S1132EE0CF93DF934FB7F8945091D7248091D42493
S1132EF0811110C02091D5243091D624C52FD0E063
S1132F00FE01EE0FFF1FEB50FB4D808191812817CE
S1132F10390718F44FBF80E022C01092D5241092D4
S1132F20D62481E0511180E08093D72481E08093FE
S1132F30D4244FBF80E0BFDF80E491E0C89FA001AC
S1132F40C99F500DD89F500D11244658584D04EB7D
S1132F5017E120E431E061E082E00E943C25DF914A
S1132F60CF911F910F9108950F931F93942F811167
S1132F7026C08091D724E1E08111E0E0F0E0611502
S1132F80710591F420E431E0E29FA001E39F500D2C
S1132F90F29F500D11244658584D04EB17E161E09F
S1132FA0892F0E943C250BC0EE0FFF1FEB50FB4DF9
S1132FB0608371831092D4241F910F918FCF1F913E
S1132FC00F9108951092D9241092D2241092D124F2
S1132FD01092D3241092EF241092F0241092F12432
S1132FE01092F2241092F3241092F424A1DE109291
S1132FF0D4241092D7241092F5241092F62410921F
S1133000D5241092D6246ADF882361F08091D924D4
S11330108F5F8093D9248091D924813029F48093BF
S1133020D824089580E0089581E0089580E043CF96
S1133030FF920F931F93CF93DF93FF24F394809118
S1133040EE24893009F0F12CC0E0D0E000E411E076
S11330508091D5249091D6242091D72430E0F90191
S1133060EE0FFF1FEB50FB4D4081518184179507F4
S113307038F08091D8248111EBCFC0E0D0E019C0A2
S1133080209FF001219FF00D309FF00D1124E80FD7
S1133090F91FE658F84D2081C22B01968093D52460
S11330A09093D6241BDFFF2021F0DC2FCC27F12CBA
S11330B0CFCFCE01DF91CF911F910F91FF90089553
S11330C080E0B6CFE091D324F0E0EE0FFF1FE15192
S11330D0FB4D808191818034914019F58091D124F8
S11330E0811110C09FB7F8948091D224811109C036
S11330F081E08093D1242091D324211180E0809316
S1133100D3249FBFE091D324F0E0EE0FFF1FE151E1
S1133110FB4D81E0208131812034314019F480E07D
S1133120089581E00895FF920F931F93CF93DF9347
S1133130EB01FF24F3948091EE24893009F0F12C03
S113314000E411E080E0BEDF811107C08091D82443
S11331508111F8CF20E030E026C04FB7F8942091D9
S1133160D32430E0D901AA0FBB1FA151BB4D8D91CF
S11331709C911197209FF001219FF00D309FF00D3D
S11331801124E80FF91FE650FB4DC08301968D937F
S11331909C934FBFFF2029F0CD2FDD0FDD0BF12CC9
S11331A0D1CF21E030E0C901DF91CF911F910F9180
S11331B0FF900895BC0180E0B6CF8091492B8F77B2
S11331C00C94A9249091FC29992369F1E091FD299B
S11331D0F091FE290190F081E02D9481891708F087
S11331E022C0E093FA29F093FB29228133812E0F28
S11331F03F1F12C09181943061F49281891309C0F8
S11332009381691306C0E093FA29F093FB2981E0C6
S113321008959081E90FF11DE217F30758F3E09345
S1133220FA29F093FB2980E00895E091FD29F091BB
S1133230FE290190F081E02D228133812E0F3F1F62
S1133240FC014081E40FF11D08C08181843041F00C
S1133250853041F08081E80FF11DE217F307A8F3F0
S1133260E0E0F0E0CF0108950F931F93CF93DF9335
S1133270C82F60E0A7DF882371F1E091FD29F09168
S1133280FE2992818381E92FF82FEC0FF11DEC0FB9
S1133290F11D00811181D8011696ED91FC911797CB
S11332A01995682F8C2F8EDF8823A9F0C091FA29F5
S11332B0D091FB29CE01B9DFEC01009721F08A817E
S11332C00E94FB25F7CFD8011296ED91FC9113973C
S11332D0199581E001C080E0DF91CF911F910F919A
S11332E008951F93CF93DF93182F6CDF882341F148
S11332F0C091FA29D091FB29CE0197DFEC01009708
S113330049F04C815D816B818A810E94C1248111C5
S1133310F3CF16C0E091FD29F091FE2992818381BB
S1133320E92FF82FE10FF11DE10FF11D0190F0815C
S1133330E02D0190F081E02DDF91CF911F91199440
S113334080E0DF91CF911F9108950C941124CF93C5
S11333508091FC2981110DC01092FC2981E090E03C
S11333608093FF299093002A10C08C2F7DDFCF5FBC
S113337001C0C0E0E091FD29F091FE290190F081A7
S1133380E02D8481C81788F3E7CFCF910895CF93B8
S11333908091FC29811114C01EC092818381E92F80
S11333A0F82FEC0FF11DEC0FF11D0190F081E02DD1
S11333B00084F185E02D309709F01995CF5F01C0A5
S11333C0C0E0E091FD29F091FE29A081B18114961D
S11333D08C91C81710F3CF910895EF92FF920F9339
S11333E01F93CF93DF931F92CDB7DEB71092512B6B
S11333F01092522B1092532B1092542B1092552B47
S11334001092562B2091472B27FF07C080914D2BFC
S113341090914E2B892B09F401C2822F807609F0FA
S1133420C1C127FFEBC080914D2B90914E2B00978B
S113343009F4B8C12F7109F08CC02091482B2630B3
S113344069F0283009F47DC02111ACC1029709F05C
S1133450A9C162E070E08FEF99E2CDC08091492B61
S113346090914A2B292F33272230310579F02330CC
S1133470310569F12130310509F094C180912B2087
S113348090912C20DC016C9170E048C0E0912B20DD
S1133490F0912C202189821708F084C19927880F84
S11334A0991F880F991FE0912D20F0912E20E80F8D
S11334B0F91F80819181FC01628173810E94B8248B
S11334C0E0914F2BF091502B82E0818329C0992702
S11334D08130910549F060F08230910509F4A0C172
S11334E0039709F05FC1A0C169E082E990E29FC13E
S11334F064E070E08EE890E211C081918C931196A3
S11335001C92119712968E2F821B8617B0F3660FAA
S11335106E5F6093AC2070E08CEA90E20E94B82465
S113352080914D2B90914E2B2091512B3091522B09
S11335308217930708F034C18093512B9093522B38
S11335402FC1019709F02EC161E070E08CEF99E280
S113355052C02130D1F52091482B2A3009F022C1E4
S1133560019709F01FC18091FC29882309F41AC12D
S1133570E0904B2BF0904C2B0091FD291091FE29EB
S1133580D801ED91FC918481E81608F00BC160E04C
S11335908E2D18DE882309F405C1FF24EE0CFF1CD0
S11335A0D8011296ED91FC911397EE0DFF1D019039
S11335B0F081E02D0680F781E02D19958093012A92
S11335C061E070E081E09AE216C0223009F0EAC0BE
S11335D02091482B2111E6C0029709F0E3C08091A5
S11335E04B2B0E941C258093022A1092032A62E02E
S11335F070E082E09AE20E94B824D2C02F7109F0F0
S11336007FC08091482B833009F4CCC020F48130F2
S113361009F0C8C014C0853021F0893009F0C2C057
S113362026C080914D2B90914E2B892B09F0BAC066
S11336308DED98E18093532B9093542BB1C08091DE
S11336404D2B90914E2B892B09F0ACC08091492BC6
S113365090914A2B019709F0A5C08091FF29909180
S1133660002A8D7F8093FF299093002A99C080912E
S11336704D2B90914E2B892B09F094C00E94AC24C1
S1133680882309F48FC08091492B90914A2B992764
S1133690E0912B20F0912C20218930E02817390764
S11336A008F480C054DE8091492B90914A2B80937A
S11336B0FC29882309F474C099270197880F991F5E
S11336C0880F991F20912D2030912E20280F391F0B
S11336D02093FD293093FE2910E007C060E0812F7C
S11336E000DE882309F45EC01F5FE091FD29F0919C
S11336F0FE290190F081E02D8481181778F350C0E1
S11337002130F1F48091482B8B3009F04BC080912B
S11337104D2B90914E2B892B09F044C08091FC29AC
S1133720882309F43FC010914B2B6091492B812FC2
S113373069839ADD69818823A9F1812FD2DD2EC0A6
S1133740223081F58091482B813019F0833051F576
S113375011C080914D2B90914E2B892B19F580919E
S1133760492B90914A2B892BE9F480914B2B0E9491
S1133770232514C080914D2B90914E2B892B91F4CD
S11337808091492B90914A2B892B61F480914B2B8A
S11337900E94C02580914B2B0E94EB25882311F0B9
S11337A081E04AC08091472B8F718130B9F58091B7
S11337B0FC29882399F1E0904B2BF0904C2B00913D
S11337C0FD291091FE29D801ED91FC918481E81620
S11337D028F560E08E2DF6DC882301F1C7019927D6
S11337E0880F991FD8011296ED91FC911397E80F59
S11337F0F91F00811181D8011696ED91FC9117975C
S11338001995682F8E2DDEDC882341F0D80114969B
S1133810ED91FC91159719958111C2CF80E00CC0F0
S11338206FE08CE990E203C06CE087E59BE2282F0F
S1133830AEEAB0E2FC0161CE0F90DF91CF911F910F
S11338400F91FF90EF900895AB01982F9695969560
S11338509695877061E070E001C0660F8A95EAF77B
S113386020E2929FC00111249A5FB0C963E070E026
S113387088E7EADF63E070E089E7E6DF63E070E0B1
S11338808CE1E2DF61E070E48DE1DEDF60E07BE1AA
S113389085E2DADF60E07BE189E2D6DF60E07BE1AC
S11338A08AE2D2DF63E070E089E1CEDF63E070E0BA
S11338B08BE1CADF63E070E08BE2C6DF63E070E0B7
S11338C088E1C2DF63E070E083E0BEDF61E070E0C6
S11338D084E2BADF63E070E089E1B6DF63E070E0C0
S11338E08BE1B2DF60E070E08AE1AEDF63E070E0BC
S11338F08CE2AACF2FB7F894811532E0930729F40C
S11339006093432B7093442B07C08034924021F47E
S11339106093412B7093422B2FBF0895811522E0B1
S1133920920759F48091042A982F9F5F9093042A58
S1133930811112C062E081E00DC08034924061F4D4
S11339408091052A982F9F5F9093052A811104C0C6
S113395062E082E00C94580E0895811522E09207EB
S113396051F48091042A81508093042A811111C05A
S113397062E081E00CC08034924059F48091052AC1
S113398081508093052A811104C062E082E00C9486
S1133990640E08951F93CF93DF93EC011FB7F8943F
S11339A0BDDF8881816088831FBF9FB7F894ECE3F3
S11339B0FBE280818F5F80839FBFDF91CF911F9156
S11339C00895682F70E082E007C3CF93DF9381E20C
S11339D0F8DFD82F80E0C82F80E2F3DFC82BCE01B8
S11339E0DF91CF9108951F920F920FB60F92112479
S11339F00BB60F922F933F934F935F936F937F93E5
S1133A008F939F93AF93BF93EF93FF93E0E0F2E024
S1133A1044A155A1E091432BF091442B61E080E057
S1133A2092E01995FF91EF91BF91AF919F918F9182
S1133A307F916F915F914F913F912F910F900BBEAA
S1133A400F900FBE0F901F9018951F920F920FB6F4
S1133A500F9211240BB60F922F933F934F935F93C2
S1133A606F937F938F939F93AF93BF93EF93FF9342
S1133A70E0E0F2E044A555A5E091432BF091442BFE
S1133A8062E080E092E01995FF91EF91BF91AF91D0
S1133A909F918F917F916F915F914F913F912F9162
S1133AA00F900BBE0F900FBE0F901F9018951F9292
S1133AB00F920FB60F9211240BB60F922F933F93D0
S1133AC04F935F936F937F938F939F93AF93BF9322
S1133AD0EF93FF93E0E0F2E044A955A9E091432B72
S1133AE0F091442B64E080E092E01995FF91EF910E
S1133AF0BF91AF919F918F917F916F915F914F9102
S1133B003F912F910F900BBE0F900FBE0F901F90FF
S1133B1018951F920F920FB60F9211240BB60F92A5
S1133B202F933F934F935F936F937F938F939F93C1
S1133B30AF93BF93EF93FF93E0E0F2E044AD55AD54
S1133B40E091432BF091442B68E080E092E01995DA
S1133B50FF91EF91BF91AF919F918F917F916F9161
S1133B605F914F913F912F910F900BBE0F900FBE1D
S1133B700F901F9018951F920F920FB60F92112459
S1133B800BB60F922F933F934F935F936F937F9353
S1133B908F939F93AF93BF93EF93FF93E0E4F2E08F
S1133BA044A155A1E091412BF091422B61E080E4C6
S1133BB092E01995FF91EF91BF91AF919F918F91F1
S1133BC07F916F915F914F913F912F910F900BBE19
S1133BD00F900FBE0F901F9018951F920F920FB663
S1133BE00F9211240BB60F922F933F934F935F9331
S1133BF06F937F938F939F93AF93BF93EF93FF93B1
S1133C00E0E4F2E044A555A5E091412BF091422B6C
S1133C1062E080E492E01995FF91EF91BF91AF913A
S1133C209F918F917F916F915F914F913F912F91D0
S1133C300F900BBE0F900FBE0F901F9018951F9200
S1133C400F920FB60F9211240BB60F922F933F933E
S1133C504F935F936F937F938F939F93AF93BF9390
S1133C60EF93FF93E0E4F2E044A955A9E091412BDE
S1133C70F091422B64E080E492E01995FF91EF917A
S1133C80BF91AF919F918F917F916F915F914F9170
S1133C903F912F910F900BBE0F900FBE0F901F906E
S1133CA018951F920F920FB60F9211240BB60F9214
S1133CB02F933F934F935F936F937F938F939F9330
S1133CC0AF93BF93EF93FF93E0E4F2E044AD55ADBF
S1133CD0E091412BF091422B68E080E492E0199549
S1133CE0FF91EF91BF91AF919F918F917F916F91D0
S1133CF05F914F913F912F910F900BBE0F900FBE8C
S1133D000F901F901895DF92EF92FF920F931F93DD
S1133D10CF93DF93EC018B01C11582E0D80719F42E
S1133D2054DE7C010DC0C034E2E0DE0731F585E2EB
S1133D3048DEF82E84E245DE3F2D20E07901E82AB2
S1133D40DFB6F894CE01EADD288182E08883EC8630
S1133D50FD86F80185819681888F998F82818A8377
S1133D6084818C8383818B83818189832170808189
S1133D70282B2883CE01F1DDDFBEDF91CF911F9187
S1133D800F91FF90EF90DF900895FF920F931F9390
S1133D90CF93DF93EC018B01FFB6F894BFDD8881EC
S1133DA0807CF8018083888D998D858396838A81B0
S1133DB082838C8184838B81838389818183CE01F7
S1133DC0CCDDFFBEDF91CF911F910F91FF9008953D
S1133DD0AF92BF92DF92EF92FF920F931F93CF9314
S1133DE0DF931F92CDB7DEB77C018A01862F8370E3
S1133DF0962F21F49695969582E001C080E090FF7D
S1133E008F5F570190E2A90EB11CE8E08E9FA00CD1
S1133E10B11C1124DFB6F894C70169837FDDF80172
S1133E208081F5018083F8018281F5018283F801A4
S1133E308181F5018183698160FF04C0F801838178
S1133E40F5018683C70189DDDFBE0F90DF91CF9135
S1133E501F910F91FF90EF90DF90BF90AF90089566
S1133E60AF92BF92DF92EF92FF920F931F93CF9383
S1133E70DF931F92CDB7DEB77C018A01862F837052
S1133E80962F21F49695969582E001C080E090FFEC
S1133E908F5F570190E2A90EB11CE8E08E9FA00C41
S1133EA0B11C1124DFB6F894C701698337DDF5012D
S1133EB08081F8018083F5018281F8018283F50114
S1133EC08181F8018183698160FF04C0F5018681E5
S1133ED0F8018383C70141DDDFBE0F90DF91CF91ED
S1133EE01F910F91FF90EF90DF90BF90AF900895D6
S1133EF01BBEFC0128ED24BF608308958091CF018F
S1133F0087FDFCCF08951F93CF93DF93C0ECD1E0DE
S1133F101A858A8761E08BEC91E0EADF1A87DF91EA
S1133F20CF911F9108950F931F93CF93DF931F9207
S1133F301F92CDB7DEB789839A83E0DF00EC11E0EE
S1133F40F80112829A8191838981808386E0DBDF84
S1133F50F80184810F900F90DF91CF911F910F9101
S1133F600895CCDF8091CF0181FF07C086E3809361
S1133F70CA0161E08BEC91E0BBCF0895EF92FF9210
S1133F801F93CF93DF9300D0CDB7DEB720ECE22EA2
S1133F90FF24F394F701128569838A839B83E1DF0D
S1133FA0ADDF23E3F701228712829B8191838A810B
S1133FB080836981648385E3828761E08BEC91E08F
S1133FC097DFF70112872396CDBFDEBFDF91CF9134
S1133FD01F91FF90EF9008954091CA01E62FF72FAB
S1133FE08093CA0184914093CA01089580E090E0CF
S1133FF00196803223E09207D9F7089510922004A5
S11340002091210420FDFCCF6093240470932504A7
S1134010809326049093270481E0809320040895DC
S11340200F931F9380E1809321048091210484FDE8
S1134030FCCF009124041091250420912604309192
S11340402704B801C9011F910F910895CF93DF93FD
S1134050D82FC091F10064E080E00E94580EC7FDA3
S11340600FC0C0FF04C0DD2369F082E010C0C1FDB1
S11340700BC082E08093F000C2FF08C085E007C057
S113408081E005C083E003C084E001C080E0DF91EB
S1134090CF91089564E080E00E94580E8091F00072
S11340A082608093F00061E080EF90E021DF8091F6
S11340B0F00084608093F00099DF8091F0008860C4
S11340C08093F0008091F10083FFFCCF10922004D4
S11340D08091210480FDFCCF8FEF9FEFDC01809362
S11340E0280490932904A0932A04B0932B041092DB
S11340F0240410922504109226041092270480911F
S1134100210480FDFCCF1092220481E080932004DE
S11341108091210480FDFCCF08951F920F920FB669
S11341200F9211240BB60F922F933F934F935F93EB
S11341306F937F938F939F93AF93BF93EF93FF936B
S113414010922204E091452BF091462B309781F098
S113415080E1809321048091210484FDFCCF60914F
S113416024047091250480912604909127041995C4
S1134170FF91EF91BF91AF919F918F917F916F913B
S11341805F914F913F912F910F900BBE0F900FBEF7
S11341900F901F901895CF93DF93EC01C03A88E0FD
S11341A0D80711F460E105C0C03B88E0D80729F4C2
S11341B060E283E00E94580E14C0C03A89E0D80738
S11341C011F460E105C0C03B89E0D80719F460E24E
S11341D084E00CC0C03A8AE0D80719F460E185E0B5
S11341E005C0C03ADB4031F460E186E0DF91CF9155
S11341F00C94580EDF91CF910895CF92DF92EF92F5
S1134200FF920F931F93CF93DF93EC01D901C80161
S1134210B695A79597958795481759076A077B0719
S113422078F46A017B01CC0CDD1CEE1CFF1CC90177
S1134230B801A70196010E94A2312150310902C0A0
S113424020E030E0832F99278F7099278F832E8366
S1134250DF91CF911F910F91FF90EF90DF90CF905E
S113426008950F931F93CF93DF93EC018B0193DF9A
S11342708D81806C8D83F8018481813011F08330CD
S113428019F48D81826002C08D818D7F8D83F80148
S1134290848182508230D8F5C03AF8E0DF0721F4F7
S11342A043E050E462E007C0C03B88E0D80741F433
S11342B043E050E460E280E496E00E94E6151CC00E
S11342C0C03AE9E0DE0721F443E050E462E007C0CD
S11342D0C03BF9E0DF0731F443E050E460E280E6FC
S11342E096E013C0C03A8AE0D80731F443E050E4C2
S11342F062E080E896E009C0C03AEBE0DE0739F4FA
S113430043E050E462E080EA96E00E94E615F8019A
S1134310408151816281738100E016E32EE631E031
S1134320CE016BDF8C8188608C838C8180618C836F
S1134330DF91CF911F910F91089590916C2A811173
S113434013C0992371F02FB7F89490913C2B91509E
S113435005C02FB7F89490913C2B9F5F90933C2B12
S11343602FBF80936C2A08959111FBCFF2CF982F21
S11343709F70282F332727FD30952227330F221FC4
S11343803327290F311D290F311D93E0220F331FCD
S11343909A95E1F72C5E354DC90108950F93E8EC29
S11343A0F4E080818F7D808380818F7D8083ECE148
S11343B0FAE202E0059310921E2A10921F2A00E2EC
S11343C0069300E40693E4E1FAE200E2069300E4D3
S11343D006931092532B1092542B1092552B10923B
S11343E0562B1092512B1092522B10922D2B0F9171
S11343F008950F9385E080932D2BEDE1FAE204E01C
S11344000593E5E1FAE204E005930F9108950F9313
S113441083E080932D2B10921E2A10921F2AECE128
S1134420FAE202E006930F910895E091532BF09184
S1134430542B309709F019940895982F9F70282FC2
S1134440332727FD30952227330F221F3327290FC7
S1134450311D290F311D2250310989E0829FA001AD
S1134460839F500D1124485B554DCA010895BF9296
S1134470CF92DF92EF92FF920F931F93CF93DF932C
S1134480B82EDBDFEC018B2D72DF7C01DC01119691
S1134490EC91E770E150E73040F4F0E0EE0FFF1FDD
S11344A0E454FE4D0081118102C008E010E08D81CA
S11344B09E81B7FE51C0F70126813781280F391F2D
S11344C02D833E838B819C81488128173907C1F154
S11344D0BC01621B730B9B01211574E0370740F08C
S11344E02FEF33E0C901B8010E948E31281B390B2C
S11344F041FF0CC0C901B8010E948E3141E050E077
S1134500892B11F040E050E0CA0102C080E090E045
S1134510988180FB91F99883D70116961D921C927D
S1134520179712962D933C93139789819A812D8125
S11345303E81820F931F14968D939C93159708C008
S113454041FF73C04D7F4883168217821282138203
S1134550F70102E0069380C0D7011296CD90DC905B
S11345601397288122FF14C029813A81280F391F0B
S11345708B819C81B8010E948E31B0E4BB9EF00116
S11345801124E35DF54DAC01BF01C9010E940B325A
S11345908D819E818C0D9D1D8D839E832B813C81FD
S11345A02817390710F42D833E83F70186819781FC
S11345B0C816D906D1F58D819E8182179307A9F17A
S11345C0281B390B2115F4E03F0710F02FEF33E0DF
S11345D0C901B8010E948E31281B390BD7011296EC
S11345E01D921C9213972017310778F488818460F8
S11345F08883B0E4BB9EC0011124835D954DF7010F
S11346008483958306831783A3CF89819A814D81FF
S11346105E81840F951FD70114968D939C931597F3
S113462016962D933C93179793CF888180FF14C0DF
S11346308E7F8883EF81F885309771F06D817E815C
S11346404B2D80E0DF91CF911F910F91FF90EF9060
S1134650DF90CF90BF901994DF91CF911F910F916C
S1134660FF90EF90DF90CF90BF9008950F93CF937A
S1134670DF9380912D2B833029F4D7DEDF91CF9106
S11346800F918CCE2091302B3091312BC091512B36
S1134690D091522BC21BD30B61F580912E2B90919C
S11346A02F2B820F931F80932E2B90932F2B2091CF
S11346B04D2B30914E2B2817390721F08091322B46
S11346C0882331F084E080932D2BE4E1FAE236C0B4
S11346D0E091552BF091562B309799F0199588233A
S11346E081F01092302B1092312BC091512BD0912C
S11346F0522BC034D10528F01092322BC0E4D0E004
S113470003C081E08093322BC0931E2AD0931F2ACA
S11347102091302B3091312B80914F2B9091502B45
S1134720820F931F8093202A9093212AC20FD31FB4
S1134730C093302BD093312BECE1FAE202E00693E4
S1134740DF91CF910F9108950F938091CC0480FF56
S113475063C021E02093CC0484E19AE2FC0100E8E8
S11347600693ECE1FAE200E806932093CA04FC0104
S113477000E1069380912D2B882329F08350823009
S113478008F453DE0BDE8091162A9091172A0897BD
S113479009F044C088E0EDEEFAE2A7E4BBE2019040
S11347A00D928A95E1F78091C80480628093C804D1
S11347B08091C80480628093C8040E94ED1981111D
S11347C002C017DE2BC08091472B87FF0DC01092CB
S11347D02E2B10922F2B1092302B1092312B82E023
S11347E080932D2B43DF1AC080914D2B90914E2B3B
S11347F0892B11F40CDE12C010922E2B10922F2B49
S11348001092302B1092312B81E080932D2BE4E118
S1134810FAE202E0069303C080E001C081E00F9158
S11348200895CF931092600080E30E946F0E8091F0
S1134830C00480648093C00481E080936000CFB79B
S1134840F8941092152A10921D2A1092252A10927B
S11348502D2A1092352A10923D2A8091482A8E7F63
S11348608093482A8091512A8E7F8093512A809187
S11348705A2A8E7F80935A2A8091632A8E7F80934E
S1134880632A6AE170E082E0A7DB8F3F09F001C090
S11348908FE18093FA046BE170E082E09DDB8F3F4F
S11348A009F001C08FE18093FB048091C004826011
S11348B08093C0048091C00480688093C004809178
S11348C0C00480618093C00484E19AE28093C604AA
S11348D09093C7048091C00480628093C0048FEFDA
S11348E08093C5048091C80481608093C8041092A9
S11348F06C2A9FB7F8948091402B8F5F8093402B54
S11349009FBFCFBFCF910895CF93CFB7F89481E0E5
S113491014DDEAECF4E080E4808380E28083E1EC5F
S1134920F4E0808181608083A9ECB4E08C918260A2
S11349308C93E8ECF4E08081806480838C918160C6
S11349408C93808180688083CFBFCF91089580E06D
S113495008958093C30408958091C3040895209119
S1134960442A3091452AC901089580E090E00895D1
S113497080934F2B9093502B6093512B7093522B19
S113498008950F931F93CF93DF931F92CDB7DEB794
S11349908A016983ECDCFC018181807C698181115D
S11349A042C06370613029F010F490E403C090E8D1
S11349B001C090EC00381105E1F050F4003211050B
S11349C0A1F00034110599F00031110561F419C00A
S11349D0011582E0180789F00F3FA3E01A0779F068
S11349E00115114041F080E00DC082E00BC083E06E
S11349F009C084E007C085E005C086E003C087E005
S1134A0001C081E0118226E02083892B818381818A
S1134A10807C803C21F481818770873031F08181F2
S1134A208062818302C080E001C081E00F90DF9149
S1134A30CF911F910F9108959ADCFC01818182FB33
S1134A40882780F90895CF93C82F91DCFC018181D8
S1134A5082FF0FC091819B7F91838C2FEEDCFC0140
S1134A60808180FF06C08E7F80830780F085E02DE3
S1134A70199581E0CF9108958F929F92AF92BF9242
S1134A80DF92EF92FF920F931F93CF93DF931F92C6
S1134A90CDB7DEB7D82E5A0179016983CEDC4C013B
S1134AA08D2D65DCFC018181807C6981882309F47A
S1134AB059C08181807C803C19F0818182FD52C083
S1134AC08FB7F894D4019C9190FF02C08FBF4AC065
S1134AD09160D4019C938FBF1196AD92BC921297B2
S1134AE01396ED92FC92149715961D921C921697AC
S1134AF017960D931C93189721E030E0611105C0BF
S1134B00E114F10411F020E030E0D4018C9120FB99
S1134B1081F98B7F8C93D7FC1FC08181807C803C82
S1134B20C9F4A181A770A150A73040F4B0E0AA0F46
S1134B30BB1FA454BE4D6D917C9102C068E070E02F
S1134B40C7010E948E31892B29F0F40180818E7F68
S1134B50808308C012821382168217828D2D87DC0F
S1134B6081E001C080E00F90DF91CF911F910F9100
S1134B70FF90EF90DF90BF90AF909F908F9008953B
S1134B800F931F93CF93DF93182FF1DBEC01812F49
S1134B9054DCDC01FE0102E005938C9180FF16C019
S1134BA08E7F8C931796ED91FC911897309771F046
S1134BB017FF03C06E817F8102C06A817B81412F10
S1134BC081E0DF91CF911F910F911994DF91CF91E3
S1134BD01F910F9108950F93CF93C82FC8DBFC0149
S1134BE091819460918301E006938C2FC9DF81E069
S1134BF0CF910F910895CF93C82FC2DF8C2FB7DBCD
S1134C00FC011182CF9108951F920F920FB60F925B
S1134C1011240BB60F920F932F933F934F935F93EF
S1134C206F937F938F939F93AF93BF93CF93DF93B0
S1134C30EF93FF938091CB0487FF06C080E88093B5
S1134C40CA040E94C7197FC08091CB0482FF18C098
S1134C5084E08093CA0480911C2A86FF74C08091EA
S1134C60CC0481FD70C070DD81116DC080912D2B4D
S1134C70813011F4CCDB67C0843009F064C021C0FA
S1134C808091CB0481FF5AC082E08093CA04809152
S1134C90142A86FF58C08091CC0481FD54C054DD91
S1134CA0811151C080912D2B823041F484E0809396
S1134CB02D2BE4E1FAE202E0069345C0833009F0CB
S1134CC042C0EDE1FAE204E00593E5E1FAE204E032
S1134CD0059339C080E18093CA0481E051DF81E803
S1134CE04FDF0E94A7191092C30480E040DBFC014F
S1134CF01182D6E0D083C3E4C18380E838DBFC01B1
S1134D001182D083C1838DEE9AE28093182A909306
S1134D10192A44DB18C08091CB0486FF05C080E4C7
S1134D208093CA0480E008C08091CB0485FF0BC047
S1134D3080E28093CA0481E000DB05C08091CB044B
S1134D4084FDC8CFE8CFFF91EF91DF91CF91BF9160
S1134D50AF919F918F917F916F915F914F913F910F
S1134D602F910F910F900BBE0F900FBE0F901F90BD
S1134D7018951F920F920FB60F9211240BB60F9233
S1134D800F931F932F933F934F935F936F937F934F
S1134D908F939F93AF93BF93CF93DF93EF93FF933F
S1134DA08091CC0481FF1AC082E08093CC0480916E
S1134DB0C5048195880FE4E1FAE2E81BF10920813A
S1134DC0318124513A4273E0369527957A95E1F77B
S1134DD0C22FC69520FF06C080E805C0B5DC882335
S1134DE019F389C080E0C80F8C2FC1DAFC018081DF
S1134DF085FF81C000E20693C11177C080912D2BFD
S1134E00843019F412DBCADA76C0C091162AD09124
S1134E10172A8091512B9091522B0091302B109195
S1134E20312B98012C0F3D1F8217930718F4EC01C6
S1134E30C01BD10B20914F2B3091502B200F311FD1
S1134E408DEE9AE2AE01BC01C9010E940B320C0F37
S1134E501D1F0093302B1093312BC034D10569F4FE
S1134E6080912E2B90912F2B800F911F20914D2BF1
S1134E7030914E2B8217930788F00093512B109397
S1134E80522BE091552BF091562B309729F0199520
S1134E90811102C0AEDA2FC0BADA2DC08091512B35
S1134EA09091522B80179107D9F4E091552BF091F2
S1134EB0562B309779F31995882361F380912E2B23
S1134EC090912F2B2091302B3091312B820F931FF7
S1134ED080932E2B90932F2B1092302B1092312BEA
S1134EE0E4E1FAE202E0069306C0C03811F4BEDB46
S1134EF002C08C2FBCDAFF91EF91DF91CF91BF916B
S1134F00AF919F918F917F916F915F914F913F915D
S1134F102F911F910F910F900BBE0F900FBE0F900A
S1134F201F901895CF92DF92EF92FF920F931F93E9
S1134F30CF93DF93CDB7DEB76097CDBFDEBF20E15F
S1134F40E0E7F1E2CE010196DC0101900D922A9591
S1134F50E1F728E5E22E2BE2F22E08E010E06C01E6
S1134F60B80181E039D8F7013197982F92959F7055
S1134F70D601A90FB11D9C9190838F70F601E80FA3
S1134F80F11D8081F70180830F5F1F4FF2E0EF0E68
S1134F90F11C0E30110521F70E94A5196096CDBFB2
S1134FA0DEBFDF91CF911F910F91FF90EF90DF90C3
S1134FB0CF90AACC8093332B0895CF93DF93809125
S1134FC0332B811105C00E941618811111C031C004
S1134FD01092332BCCEBD4E006C0992787FD909533
S1134FE00E94DA182196FE0184918111F6CFEBCF4D
S1134FF00E9460189091342B913049F48B3521F440
S113500092E09093342B15C01092342B0AC0923046
S113501041F41092342B813459F0823411F488E233
S113502008C08B3131F481E08093342B88E001C0D7
S113503086E2DF91CF9108952F923F924F925F9233
S11350406F927F928F929F92AF92BF92CF92DF9294
S1135050EF92FF920F931F93CF93DF93CDB7DEB7F9
S1135060CE58D109CDBFDEBF8EEE90E20E94211250
S1135070CE0185579F4FC4D2C457DF4F8881CC5887
S1135080D0408230A9F7C557DF4F6881CB58D04054
S11350908EEE90E20E9438128F3F51F3813009F472
S11350A010C138F0823009F40EC2833009F091C285
S11350B08EC28CE0E1E8F1E2DE01119601900D92DE
S11350C08A95E1F7FE013D9684E1DF011D928A9500
S11350D0E9F700E020E240E860E080E00E94A010F0
S11350E00E9410204B015C010DD7D82E0ED7C82E7C
S11350F09E0123573F4FAE0142575F4F60E170E27C
S1135100CE0101960E94CB15C257DF4F8881CE583D
S1135110D04060E870E0681B710977FF02C06F5FE0
S11351207F4F7595679520E130E240E0EE24E394EB
S1135130F12CEC0EFD1EC7010E9475158E010D5851
S11351401F4F2C2D4D2DC501B4010E94AD0B4424DD
S11351504A94542C32010AEC11E23E2C2F2C80E8A4
S1135160A82EB12C9AED892E91E2992ECE01875763
S11351709F4F46D2C757DF4F8881C958D0408830E7
S113518041F4C657DF4F8881CA58D040823009F4B1
S11351906BCF0E9410206B017C0164157505860598
S11351A0970521F3CE018D589F4F0E94970DEA96E3
S11351B08FADEA978F93E9968FADE9978F93E89631
S11351C08FADE89790E001969F938F93E7968FAD0C
S11351D0E79790E001969F938F93EB96EFADEB9753
S11351E0F0E0EE0FFF1FE052FF4D81818F9380812D
S11351F08F931F930F931F92B0E2BF932F923F920E
S11352000E941B329E0123573F4FAE0142575F4F0E
S113521060E170E2832D922D0E94CB15C257DF4FBF
S11352208881CE58D040B501681B710977FF02C050
S11352306F5F7F4F7595679520E130E24CE0832DD9
S1135240922D0E947515E4968FADE4971F928F936B
S1135250E5968FADE5971F928F93E6968FADE6970F
S11352601F928F939F928F921F9280E28F932F921F
S11352703F920E941B329E0123573F4FAE0142577B
S11352805F4F60E170E2832D922D0E94CB15C257CF
S1135290DF4F8881CE58D040B501681B710977FF74
S11352A002C06F5F7F4F7595679520E130E244E15E
S11352B0832D922D0E947515CDBFDEBF26013701C7
S11352C055CFC12C29E3E22E28E0F22E0BED17E096
S11352D020E030E043E955E061E0CE01895A9F4F78
S11352E00E943D133CE0E32EF12C01E010E020E0AD
S11352F030E04DE855E061E0CE018B5B9F4F0E94AA
S11353003D134FE1E42EF12C20E030E049E855E074
S113531061E0CE01C3960E943D13CE0187599F4F91
S11353200E945C13BE0167597F4FCE01895A9F4F7B
S11353300E946313BE0167597F4FCE018B5B9F4F61
S11353400E946313BE0167597F4FCE01C3960E942A
S11353506313D8D5F82ED9D5E82E0E9410208E01DB
S113536005581F4F2E2D4F2D0E94AD0BEF968FAD7C
S1135370EF9790E001968EAB9FABC158DF4F8881C9
S1135380CF57D04090E001962A968EAF9FAF2A97D0
S1135390C058DF4F88819981C058D0406C968EAF39
S11353A09FAF6C97CE0187599F4F0E948F13CE01F8
S11353B087579F4F25D1C657DF4F8881CA58D040A1
S11353C08230A9F7AE014D575F4FC757DF4F688151
S11353D0C958D040CE0187599F4F0E944C148D3F2D
S11353E031F7CD57DF4F88819981C358D040EA9671
S11353F08EAF9FAFEA97CB57DF4F8881C558D04017
S11354008150E8968FAFE897C957DF4F8881C75816
S1135410D0408150E7968FAFE797E6961FAEE697A8
S1135420E5961FAEE597E4961FAEE4974E2D6F2DDB
S1135430CE018D589F4F0E947B0C672B682B692BE4
S1135440D9F400E020E240E860E080E00E94A0108F
S113545020E130E24CE06AE080E795E00E949E158E
S1135460CE0187579F4FCCD0C657DF4F8881CA588B
S1135470D0408230A9F7F8CD0E9410208E01055843
S11354801F4F2E2D4F2D0E94AD0BEA968EAD9FAD72
S1135490EA97C058DF4F88839983C058D040E89674
S11354A08FADE897C158DF4F8883CF57D040E79638
S11354B08FADE797EF968FAFEF974E2D6F2DC80105
S11354C00E947B0C81C0C12C87E1E82EF12C00E006
S11354D010E020E030E044E855E061E0CE01819640
S11354E00E943D139BE3E92EF12C20E030E04DE7D0
S11354F055E061E0CE0101960E943D13CE0187592B
S11355009F4F0E945C13BE0167597F4FCE01819665
S11355100E946313BE0167597F4FCE0101960E941A
S11355206313F0D4F82EF1D4E82E0E9410208E01DB
S11355300D581F4F2E2D4F2D0E94AD0BE6968FADAB
S1135540E6978CA31DA2E5968FADE5978C831D820B
S1135550CE0187599F4F0E948F13CE0187579F4FCB
S11355604FD0C657DF4F8881CA58D0408230A9F740
S1135570AE014D575F4FC757DF4F6881C958D040C0
S1135580CE0187599F4F0E944C148D3F31F7CD5760
S1135590DF4F8881C358D040E6968FAFE697CB574C
S11355A0DF4F8881C558D040E5968FAFE5974E2DE3
S11355B06F2DCE018D589F4F0E947B0C6115710594
S11355C08105910509F450CD0E94FE1F4DCDA0D454
S11355D04BCDC257DF4FCDBFDEBFDF91CF911F91BF
S11355E00F91FF90EF90DF90CF90BF90AF909F907E
S11355F08F907F906F905F904F903F902F90089581
S1135600CF93DF93EC018091880685FD09C08091DA
S1135610352B80FD05C081608093352B8DE04CC017
S11356208091880685FF09C08091352B80FF05C0D5
S11356308E7F8093352B8DE051C08091A80681FD2B
S113564009C08091352B81FD05C082608093352B84
S113565086E232C08091A80681FF09C08091352B73
S113566081FF05C08D7F8093352B86E237C0809102
S1135670A80682FD09C08091352B82FD05C0846097
S11356808093352B88E218C08091A80682FF09C058
S11356908091352B82FF05C08B7F8093352B88E268
S11356A01DC011D4882359F08091352B83FD07C088
S11356B088608093352B88E0888381E011C003D40F
S11356C0811109C08091352B83FF05C0877F8093AA
S11356D0352B88E003C071DC882321F0888382E0C5
S11356E0898302C018821982DF91CF9108952F9285
S11356F03F924F925F926F927F928F929F92AF925E
S1135700BF92CF92DF92EF92FF920F931F93CF93AA
S1135710DF93CDB7DEB72C97CDBFDEBF00E020E22C
S113572040E860E080E00E94A01048E161E081ED83
S113573090E20E94571148E16EE18BED90E20E94E5
S1135740571148E16CE386ED90E20E94571148E15D
S113575066E78CEC90E20E94571120E130E240E0D1
S113576060E085E092E20E94751520E130E248E0B5
S113577060E081E192E20E947515C12CD12C760182
S113578098EC492E512C612C712C2CE1822E22E2B2
S1135790922E1AE0AA24A394B12CAC0EBD1E40E8AC
S11357A0342E01C0022D9FB7F894809100028460CA
S11357B0809300029FBF0E94D6098823E1F30E94D0
S11357C0630AAA2797FDA095BA2FC80ED91EEA1E10
S11357D0FB1E202E2394083CA8F1C701B601A301A7
S11357E09201B0D569017A01FF92EF92DF922F9373
S11357F09F928F921F921F93BF92AF921CD620E16B
S113580030E248E066E4C5010E94751584E0F69430
S1135810E794D794C7948A95D1F701E027E04C2DFB
S113582061E180E00E94A010432D4C1900E027E0C4
S113583061E18C2D0E94A010CDBFDEBF212CC12CB4
S1135840D12C7601CE010B96DBDE8B85883009F0F6
S1135850A9CF8C85823009F0A5CF2C96CDBFDEBFB1
S1135860DF91CF911F910F91FF90EF90DF90CF9038
S1135870BF90AF909F908F907F906F905F904F906C
S11358803F902F9008950F93CF93DF931F921F9211
S1135890CDB7DEB700E020E240E860E080E00E949F
S11358A0A0100FEF21E044E06AE08AE00E94BA1001
S11358B021E044E066E18AE00E94BA1021E044E07D
S11358C06AE085E70E94BA1021E044E066E185E7DA
S11358D00E94BA1020E130E248E06AE581E292E2F7
S11358E00E94751520E130E244E160E584E292E231
S11358F00E94751520E130E248E064E189E292E219
S11359000E94751520E130E244E164E18FE292E205
S11359100E947515CE01019673DE8A818230D1F71B
S11359200F900F90DF91CF910F910895CF93DF9354
S11359301F921F92CDB7DEB70E94070E0E94361C3D
S113594087E08093A2000E940B0F6ED20E94E409AC
S113595080E18093850664E080E00E94580E809187
S1135960210480FDFCCF80E00E942620882349F09A
S11359700E944A200DD16F5F7F4F8F4F9F4F0E942F
S1135980FE1F0E94102060387E468E419D4430F4F4
S113599060E87EE68EE19DE40E94FE1FC3DA7894FF
S11359A072DF06D310E18DEF90E20E942112CE0146
S11359B0019626DE8A818230D1F769818DEF90E2EB
S11359C00E9438128F3F99F3823079F028F48823AB
S11359D041F0813089F407C0833049F0843061F4A8
S11359E008C00CD0E0CF83DEDECF0CD1DCCF24DBCB
S11359F0DACF10938706D7CF46DFD5CF4F925F9289
S1135A006F927F929F92AF92BF92CF92DF92EF926A
S1135A10FF920F931F93CF93DF93CDB7DEB76697B3
S1135A20CDBFDEBF9FB7F894809100028860809359
S1135A3000029FBF1A8A86E0888B80E2898B8EE001
S1135A4091E28B8B9C8B01E020E240E860E080E0F7
S1135A500E947D1000E02EE14EE761E081E00E94AB
S1135A60A01020E130E242E06BE18FE196E00E9479
S1135A709E1584E3C82E82E2D82E1FE0EE24E39420
S1135A80F12CEC0EFD1E20E4A22E22E2B22E40E008
S1135A906AE0CE0140960E9457110E94C8098823EB
S1135AA0E1F30E94380A982E9FB7F894809100027F
S1135AB08860809300029FBF692D772767FD7095EA
S1135AC0872F972F3CD32B013C012CEE31E548EB7B
S1135AD05EEBC1D320E030E042EA51E499D201D335
S1135AE0262F00E042E063E08CE00E94A010892DA4
S1135AF0992787FD90959F939F92DF92CF921F9253
S1135B001F93FF92EF9297D420E130E24DE066E1DB
S1135B10C7010E94751526E636E646EE5FE3C3012B
S1135B20B20199D320E030E040E052E471D2D4D203
S1135B307F936F93BF92AF921F921F93FF92EF9246
S1135B407AD420E130E245E166E1C7010E9475158F
S1135B50CE01459655DDCDBFDEBF8D89883009F075
S1135B6096CF8E89823009F092CF6696CDBFDEBF84
S1135B70DF91CF911F910F91FF90EF90DF90CF9025
S1135B80BF90AF909F907F906F905F904F900895DB
S1135B900F931F93CF93DF9360E170E081E00E9445
S1135BA0EC1FD82F61E170E081E00E94EC1F082F08
S1135BB062E170E081E00E94EC1FC82F63E170E0B5
S1135BC081E00E94EC1F10E020E030E098011127F2
S1135BD000273D2B082B1C2BD901C80180589E4659
S1135BE0AE41BD448F379149A14EB24B20F000E83D
S1135BF01EE62EE13DE4B801C901DF91CF911F916A
S1135C000F9108952F923F924F925F926F927F92DD
S1135C108F929F92AF92BF92CF92DF92EF92FF92B8
S1135C200F931F93CF93DF93CDB7DEB7E397CDBF29
S1135C30DEBF00E020E240E860E080E00E94A010C7
S1135C4020E130E240E060E08FE492E20E947515CA
S1135C509FDF8E01095E1F4FA8010E94220BAA2418
S1135C60AA94BA2C65010BAB812E45E6242E42E2A0
S1135C70342E56E1952E8E010F5F1F4F60E8E62EFD
S1135C80F12CCE018F96BCDC8FA5883021F488A935
S1135C90823009F490C00E9410202B013C016A1547
S1135CA07B058C059D0569F3AE01495D5F4FC3011A
S1135CB00E94220BAE01415E5F4F6BA9782DCE018D
S1135CC087960E94E80C4BA12CA13DA15CE0529F59
S1135CD0C001539F900D1124840F911D9F938F93A6
